
rtos.elf:     file format elf32-littlearm

Sections:
Idx Name          Size      VMA       LMA       File off  Algn
  0 .text         000034a0  00000000  00000000  00010000  2**2
                  CONTENTS, ALLOC, LOAD, READONLY, CODE
  1 .relocate     0000009c  20000000  000034a0  00020000  2**2
                  CONTENTS, ALLOC, LOAD, DATA
  2 .bss          00000bc0  2000009c  0000353c  0002009c  2**2
                  ALLOC
  3 .stack        00000804  20000c5c  000040fc  0002009c  2**0
                  ALLOC
  4 .ARM.attributes 00000028  00000000  00000000  0002009c  2**0
                  CONTENTS, READONLY
  5 .comment      00000059  00000000  00000000  000200c4  2**0
                  CONTENTS, READONLY
  6 .debug_info   000317f6  00000000  00000000  0002011d  2**0
                  CONTENTS, READONLY, DEBUGGING
  7 .debug_abbrev 00004bf7  00000000  00000000  00051913  2**0
                  CONTENTS, READONLY, DEBUGGING
  8 .debug_loc    000095ac  00000000  00000000  0005650a  2**0
                  CONTENTS, READONLY, DEBUGGING
  9 .debug_aranges 000009c0  00000000  00000000  0005fab6  2**0
                  CONTENTS, READONLY, DEBUGGING
 10 .debug_ranges 00000b70  00000000  00000000  00060476  2**0
                  CONTENTS, READONLY, DEBUGGING
 11 .debug_macro  0001a383  00000000  00000000  00060fe6  2**0
                  CONTENTS, READONLY, DEBUGGING
 12 .debug_line   0000f424  00000000  00000000  0007b369  2**0
                  CONTENTS, READONLY, DEBUGGING
 13 .debug_str    0008f456  00000000  00000000  0008a78d  2**0
                  CONTENTS, READONLY, DEBUGGING
 14 .debug_frame  000018ec  00000000  00000000  00119be4  2**2
                  CONTENTS, READONLY, DEBUGGING

Disassembly of section .text:

00000000 <exception_table>:
       0:	60 14 00 20 71 2e 00 00 6d 2e 00 00 6d 2e 00 00     `.. q...m...m...
	...
      2c:	79 0f 00 00 00 00 00 00 00 00 00 00 e5 0f 00 00     y...............
      3c:	29 10 00 00 6d 2e 00 00 6d 2e 00 00 6d 2e 00 00     )...m...m...m...
      4c:	6d 2e 00 00 e1 01 00 00 6d 2e 00 00 6d 2e 00 00     m.......m...m...
      5c:	79 09 00 00 81 01 00 00 6d 2e 00 00 6d 2e 00 00     y.......m...m...
      6c:	6d 2e 00 00 6d 2e 00 00 00 00 00 00 00 00 00 00     m...m...........
      7c:	b5 08 00 00 c5 08 00 00 d5 08 00 00 49 09 00 00     ............I...
      8c:	59 09 00 00 69 09 00 00 00 00 00 00 00 00 00 00     Y...i...........
      9c:	6d 2e 00 00 6d 2e 00 00 6d 2e 00 00 6d 2e 00 00     m...m...m...m...
      ac:	6d 2e 00 00 00 00 00 00                             m.......

000000b4 <__do_global_dtors_aux>:
      b4:	b510      	push	{r4, lr}
      b6:	4c06      	ldr	r4, [pc, #24]	; (d0 <__do_global_dtors_aux+0x1c>)
      b8:	7823      	ldrb	r3, [r4, #0]
      ba:	2b00      	cmp	r3, #0
      bc:	d107      	bne.n	ce <__do_global_dtors_aux+0x1a>
      be:	4b05      	ldr	r3, [pc, #20]	; (d4 <__do_global_dtors_aux+0x20>)
      c0:	2b00      	cmp	r3, #0
      c2:	d002      	beq.n	ca <__do_global_dtors_aux+0x16>
      c4:	4804      	ldr	r0, [pc, #16]	; (d8 <__do_global_dtors_aux+0x24>)
      c6:	e000      	b.n	ca <__do_global_dtors_aux+0x16>
      c8:	bf00      	nop
      ca:	2301      	movs	r3, #1
      cc:	7023      	strb	r3, [r4, #0]
      ce:	bd10      	pop	{r4, pc}
      d0:	2000009c 	.word	0x2000009c
      d4:	00000000 	.word	0x00000000
      d8:	000034a0 	.word	0x000034a0

000000dc <frame_dummy>:
      dc:	4b08      	ldr	r3, [pc, #32]	; (100 <frame_dummy+0x24>)
      de:	b510      	push	{r4, lr}
      e0:	2b00      	cmp	r3, #0
      e2:	d003      	beq.n	ec <frame_dummy+0x10>
      e4:	4907      	ldr	r1, [pc, #28]	; (104 <frame_dummy+0x28>)
      e6:	4808      	ldr	r0, [pc, #32]	; (108 <frame_dummy+0x2c>)
      e8:	e000      	b.n	ec <frame_dummy+0x10>
      ea:	bf00      	nop
      ec:	4807      	ldr	r0, [pc, #28]	; (10c <frame_dummy+0x30>)
      ee:	6803      	ldr	r3, [r0, #0]
      f0:	2b00      	cmp	r3, #0
      f2:	d100      	bne.n	f6 <frame_dummy+0x1a>
      f4:	bd10      	pop	{r4, pc}
      f6:	4b06      	ldr	r3, [pc, #24]	; (110 <frame_dummy+0x34>)
      f8:	2b00      	cmp	r3, #0
      fa:	d0fb      	beq.n	f4 <frame_dummy+0x18>
      fc:	4798      	blx	r3
      fe:	e7f9      	b.n	f4 <frame_dummy+0x18>
     100:	00000000 	.word	0x00000000
     104:	200000a0 	.word	0x200000a0
     108:	000034a0 	.word	0x000034a0
     10c:	000034a0 	.word	0x000034a0
     110:	00000000 	.word	0x00000000

00000114 <delay_init>:
 *
 * This must be called during start up to initialize the delay routine with
 * the current used main clock. It must run any time the main CPU clock is changed.
 */
void delay_init(void)
{
     114:	b570      	push	{r4, r5, r6, lr}
	cycles_per_ms = system_gclk_gen_get_hz(0);
     116:	2000      	movs	r0, #0
     118:	4b08      	ldr	r3, [pc, #32]	; (13c <delay_init+0x28>)
     11a:	4798      	blx	r3
     11c:	0005      	movs	r5, r0
	cycles_per_ms /= 1000;
     11e:	4c08      	ldr	r4, [pc, #32]	; (140 <delay_init+0x2c>)
     120:	21fa      	movs	r1, #250	; 0xfa
     122:	0089      	lsls	r1, r1, #2
     124:	47a0      	blx	r4
     126:	4b07      	ldr	r3, [pc, #28]	; (144 <delay_init+0x30>)
     128:	6018      	str	r0, [r3, #0]
	cycles_per_us = cycles_per_ms / 1000;
     12a:	4907      	ldr	r1, [pc, #28]	; (148 <delay_init+0x34>)
     12c:	0028      	movs	r0, r5
     12e:	47a0      	blx	r4
     130:	4b06      	ldr	r3, [pc, #24]	; (14c <delay_init+0x38>)
     132:	6018      	str	r0, [r3, #0]

	SysTick->CTRL = SysTick_CTRL_CLKSOURCE_Msk | SysTick_CTRL_ENABLE_Msk;
     134:	2205      	movs	r2, #5
     136:	4b06      	ldr	r3, [pc, #24]	; (150 <delay_init+0x3c>)
     138:	601a      	str	r2, [r3, #0]
}
     13a:	bd70      	pop	{r4, r5, r6, pc}
     13c:	00002bfd 	.word	0x00002bfd
     140:	000031cd 	.word	0x000031cd
     144:	20000000 	.word	0x20000000
     148:	000f4240 	.word	0x000f4240
     14c:	20000004 	.word	0x20000004
     150:	e000e010 	.word	0xe000e010

00000154 <delay_cycles_ms>:
 *
 * \param n  Number of milliseconds to wait
 */
void delay_cycles_ms(
		uint32_t n)
{
     154:	b530      	push	{r4, r5, lr}
	while (n--) {
		/* Devide up to blocks of 1ms */
		delay_cycles(cycles_per_ms);
     156:	4b08      	ldr	r3, [pc, #32]	; (178 <delay_cycles_ms+0x24>)
     158:	681c      	ldr	r4, [r3, #0]
 */
static inline void delay_cycles(
		const uint32_t n)
{
	if (n > 0) {
		SysTick->LOAD = n;
     15a:	4a08      	ldr	r2, [pc, #32]	; (17c <delay_cycles_ms+0x28>)
		SysTick->VAL = 0;
     15c:	2500      	movs	r5, #0

		while (!(SysTick->CTRL & SysTick_CTRL_COUNTFLAG_Msk)) {
     15e:	2180      	movs	r1, #128	; 0x80
     160:	0249      	lsls	r1, r1, #9
	while (n--) {
     162:	3801      	subs	r0, #1
     164:	d307      	bcc.n	176 <delay_cycles_ms+0x22>
	if (n > 0) {
     166:	2c00      	cmp	r4, #0
     168:	d0fb      	beq.n	162 <delay_cycles_ms+0xe>
		SysTick->LOAD = n;
     16a:	6054      	str	r4, [r2, #4]
		SysTick->VAL = 0;
     16c:	6095      	str	r5, [r2, #8]
		while (!(SysTick->CTRL & SysTick_CTRL_COUNTFLAG_Msk)) {
     16e:	6813      	ldr	r3, [r2, #0]
     170:	420b      	tst	r3, r1
     172:	d0fc      	beq.n	16e <delay_cycles_ms+0x1a>
     174:	e7f5      	b.n	162 <delay_cycles_ms+0xe>
	}
}
     176:	bd30      	pop	{r4, r5, pc}
     178:	20000000 	.word	0x20000000
     17c:	e000e010 	.word	0xe000e010

00000180 <EVSYS_Handler>:

	return STATUS_OK;
}

void EVSYS_Handler(void)
{
     180:	b510      	push	{r4, lr}
	struct events_hook *current_hook = _events_inst.hook_list;
     182:	4b0b      	ldr	r3, [pc, #44]	; (1b0 <EVSYS_Handler+0x30>)
     184:	691c      	ldr	r4, [r3, #16]
	uint32_t flag;

	/* Synch the interrupt flag buffer with the hardware register */
	flag = EVSYS->INTFLAG.reg;
     186:	490b      	ldr	r1, [pc, #44]	; (1b4 <EVSYS_Handler+0x34>)
     188:	698a      	ldr	r2, [r1, #24]
	_events_inst.interrupt_flag_buffer |= flag;
     18a:	6898      	ldr	r0, [r3, #8]
     18c:	4302      	orrs	r2, r0
     18e:	609a      	str	r2, [r3, #8]
	/* Clear all hardware interrupt flags */
	EVSYS->INTFLAG.reg = _EVENTS_INTFLAGS_MASK;
     190:	4b09      	ldr	r3, [pc, #36]	; (1b8 <EVSYS_Handler+0x38>)
     192:	618b      	str	r3, [r1, #24]

	/* Traverse the linked list */
	while (current_hook != NULL) {
     194:	2c00      	cmp	r4, #0
     196:	d005      	beq.n	1a4 <EVSYS_Handler+0x24>
		current_hook->hook_func(current_hook->resource);
     198:	6820      	ldr	r0, [r4, #0]
     19a:	6863      	ldr	r3, [r4, #4]
     19c:	4798      	blx	r3
		current_hook = current_hook->next;
     19e:	68a4      	ldr	r4, [r4, #8]
	while (current_hook != NULL) {
     1a0:	2c00      	cmp	r4, #0
     1a2:	d1f9      	bne.n	198 <EVSYS_Handler+0x18>
	}

	/* Clear acknowledged interrupt sources from the interrupt flag buffer */
	flag = _events_inst.interrupt_flag_ack_buffer;
     1a4:	4b02      	ldr	r3, [pc, #8]	; (1b0 <EVSYS_Handler+0x30>)
     1a6:	68d9      	ldr	r1, [r3, #12]
	_events_inst.interrupt_flag_buffer &= ~flag;
     1a8:	689a      	ldr	r2, [r3, #8]
     1aa:	438a      	bics	r2, r1
     1ac:	609a      	str	r2, [r3, #8]
}
     1ae:	bd10      	pop	{r4, pc}
     1b0:	20000008 	.word	0x20000008
     1b4:	42000400 	.word	0x42000400
     1b8:	0f0fffff 	.word	0x0f0fffff

000001bc <_system_events_init>:
		case SYSTEM_CLOCK_APB_APBB:
			PM->APBBMASK.reg |= mask;
			break;

		case SYSTEM_CLOCK_APB_APBC:
			PM->APBCMASK.reg |= mask;
     1bc:	4a06      	ldr	r2, [pc, #24]	; (1d8 <_system_events_init+0x1c>)
     1be:	6a13      	ldr	r3, [r2, #32]
     1c0:	2102      	movs	r1, #2
     1c2:	430b      	orrs	r3, r1
     1c4:	6213      	str	r3, [r2, #32]
{
	/* Enable EVSYS register interface */
	system_apb_clock_set_mask(SYSTEM_CLOCK_APB_APBC, PM_APBCMASK_EVSYS);

	/* Make sure the EVSYS module is properly reset */
	EVSYS->CTRL.reg = EVSYS_CTRL_SWRST;
     1c6:	2201      	movs	r2, #1
     1c8:	4b04      	ldr	r3, [pc, #16]	; (1dc <_system_events_init+0x20>)
     1ca:	701a      	strb	r2, [r3, #0]

	while (EVSYS->CTRL.reg & EVSYS_CTRL_SWRST) {
     1cc:	0019      	movs	r1, r3
     1ce:	780b      	ldrb	r3, [r1, #0]
     1d0:	4213      	tst	r3, r2
     1d2:	d1fc      	bne.n	1ce <_system_events_init+0x12>
	}
}
     1d4:	4770      	bx	lr
     1d6:	46c0      	nop			; (mov r8, r8)
     1d8:	40000400 	.word	0x40000400
     1dc:	42000400 	.word	0x42000400

000001e0 <EIC_Handler>:
	return _current_channel;
}

/** Handler for the EXTINT hardware module interrupt. */
void EIC_Handler(void)
{
     1e0:	b570      	push	{r4, r5, r6, lr}
	/* Find any triggered channels, run associated callback handlers */
	for (_current_channel = 0; _current_channel < EIC_NUMBER_OF_INTERRUPTS ; _current_channel++) {
     1e2:	2200      	movs	r2, #0
     1e4:	4b10      	ldr	r3, [pc, #64]	; (228 <EIC_Handler+0x48>)
     1e6:	701a      	strb	r2, [r3, #0]
     1e8:	2300      	movs	r3, #0

	if (eic_index < EIC_INST_NUM) {
		/* Array of available EICs */
		Eic *const eics[EIC_INST_NUM] = EIC_INSTS;

		return eics[eic_index];
     1ea:	4910      	ldr	r1, [pc, #64]	; (22c <EIC_Handler+0x4c>)
 */
static inline bool extint_chan_is_detected(
		const uint8_t channel)
{
	Eic *const eic_module = _extint_get_eic_from_channel(channel);
	uint32_t eic_mask   = (1UL << (channel % 32));
     1ec:	251f      	movs	r5, #31
		if (extint_chan_is_detected(_current_channel)) {
			/* Clear flag */
			extint_chan_clear_detected(_current_channel);
			/* Find any associated callback entries in the callback table */
			if (_extint_dev.callbacks[_current_channel] != NULL) {
     1ee:	4e10      	ldr	r6, [pc, #64]	; (230 <EIC_Handler+0x50>)
	for (_current_channel = 0; _current_channel < EIC_NUMBER_OF_INTERRUPTS ; _current_channel++) {
     1f0:	4c0d      	ldr	r4, [pc, #52]	; (228 <EIC_Handler+0x48>)
     1f2:	e00a      	b.n	20a <EIC_Handler+0x2a>
		return eics[eic_index];
     1f4:	490d      	ldr	r1, [pc, #52]	; (22c <EIC_Handler+0x4c>)
     1f6:	e008      	b.n	20a <EIC_Handler+0x2a>
     1f8:	7823      	ldrb	r3, [r4, #0]
     1fa:	3301      	adds	r3, #1
     1fc:	b2db      	uxtb	r3, r3
     1fe:	7023      	strb	r3, [r4, #0]
     200:	2b0f      	cmp	r3, #15
     202:	d810      	bhi.n	226 <EIC_Handler+0x46>
		return NULL;
     204:	2100      	movs	r1, #0
	if (eic_index < EIC_INST_NUM) {
     206:	2b1f      	cmp	r3, #31
     208:	d9f4      	bls.n	1f4 <EIC_Handler+0x14>
	uint32_t eic_mask   = (1UL << (channel % 32));
     20a:	0028      	movs	r0, r5
     20c:	4018      	ands	r0, r3
     20e:	2201      	movs	r2, #1
     210:	4082      	lsls	r2, r0

	return (eic_module->INTFLAG.reg & eic_mask);
     212:	6908      	ldr	r0, [r1, #16]
		if (extint_chan_is_detected(_current_channel)) {
     214:	4210      	tst	r0, r2
     216:	d0ef      	beq.n	1f8 <EIC_Handler+0x18>
		const uint8_t channel)
{
	Eic *const eic_module = _extint_get_eic_from_channel(channel);
	uint32_t eic_mask   = (1UL << (channel % 32));

	eic_module->INTFLAG.reg = eic_mask;
     218:	610a      	str	r2, [r1, #16]
			if (_extint_dev.callbacks[_current_channel] != NULL) {
     21a:	009b      	lsls	r3, r3, #2
     21c:	599b      	ldr	r3, [r3, r6]
     21e:	2b00      	cmp	r3, #0
     220:	d0ea      	beq.n	1f8 <EIC_Handler+0x18>
				/* Run the registered callback */
				_extint_dev.callbacks[_current_channel]();
     222:	4798      	blx	r3
     224:	e7e8      	b.n	1f8 <EIC_Handler+0x18>
			}
		}
	}
}
     226:	bd70      	pop	{r4, r5, r6, pc}
     228:	20000a10 	.word	0x20000a10
     22c:	40001800 	.word	0x40001800
     230:	20000a14 	.word	0x20000a14

00000234 <_extint_enable>:
{
	Eic *const eics[EIC_INST_NUM] = EIC_INSTS;

	/* Enable all EIC hardware modules. */
	for (uint32_t i = 0; i < EIC_INST_NUM; i++) {
		eics[i]->CTRL.reg |= EIC_CTRL_ENABLE;
     234:	4a04      	ldr	r2, [pc, #16]	; (248 <_extint_enable+0x14>)
     236:	7813      	ldrb	r3, [r2, #0]
     238:	2102      	movs	r1, #2
     23a:	430b      	orrs	r3, r1
     23c:	7013      	strb	r3, [r2, #0]
		if (eics[i]->STATUS.reg & EIC_STATUS_SYNCBUSY) {
     23e:	7853      	ldrb	r3, [r2, #1]
     240:	b25b      	sxtb	r3, r3
     242:	2b00      	cmp	r3, #0
     244:	dbfb      	blt.n	23e <_extint_enable+0xa>
	}

	while (extint_is_syncing()) {
		/* Wait for all hardware modules to complete synchronization */
	}
}
     246:	4770      	bx	lr
     248:	40001800 	.word	0x40001800

0000024c <_system_extint_init>:
{
     24c:	b500      	push	{lr}
     24e:	b083      	sub	sp, #12
			PM->APBAMASK.reg |= mask;
     250:	4a12      	ldr	r2, [pc, #72]	; (29c <_system_extint_init+0x50>)
     252:	6993      	ldr	r3, [r2, #24]
     254:	2140      	movs	r1, #64	; 0x40
     256:	430b      	orrs	r3, r1
     258:	6193      	str	r3, [r2, #24]
{
	/* Sanity check arguments */
	Assert(config);

	/* Default configuration values */
	config->source_generator = GCLK_GENERATOR_0;
     25a:	a901      	add	r1, sp, #4
     25c:	2300      	movs	r3, #0
     25e:	700b      	strb	r3, [r1, #0]
	system_gclk_chan_set_config(EIC_GCLK_ID, &gclk_chan_conf);
     260:	2005      	movs	r0, #5
     262:	4b0f      	ldr	r3, [pc, #60]	; (2a0 <_system_extint_init+0x54>)
     264:	4798      	blx	r3
	system_gclk_chan_enable(EIC_GCLK_ID);
     266:	2005      	movs	r0, #5
     268:	4b0e      	ldr	r3, [pc, #56]	; (2a4 <_system_extint_init+0x58>)
     26a:	4798      	blx	r3
		eics[i]->CTRL.reg |= EIC_CTRL_SWRST;
     26c:	4a0e      	ldr	r2, [pc, #56]	; (2a8 <_system_extint_init+0x5c>)
     26e:	7813      	ldrb	r3, [r2, #0]
     270:	2101      	movs	r1, #1
     272:	430b      	orrs	r3, r1
     274:	7013      	strb	r3, [r2, #0]
		if (eics[i]->STATUS.reg & EIC_STATUS_SYNCBUSY) {
     276:	7853      	ldrb	r3, [r2, #1]
     278:	b25b      	sxtb	r3, r3
     27a:	2b00      	cmp	r3, #0
     27c:	dbfb      	blt.n	276 <_system_extint_init+0x2a>
     27e:	4b0b      	ldr	r3, [pc, #44]	; (2ac <_system_extint_init+0x60>)
     280:	0019      	movs	r1, r3
     282:	3140      	adds	r1, #64	; 0x40
		_extint_dev.callbacks[j] = NULL;
     284:	2200      	movs	r2, #0
     286:	c304      	stmia	r3!, {r2}
	for (uint8_t j = 0; j < EIC_NUMBER_OF_INTERRUPTS; j++) {
     288:	4299      	cmp	r1, r3
     28a:	d1fc      	bne.n	286 <_system_extint_init+0x3a>
 * \param[in] vector Interrupt vector to enable
 */
static inline void system_interrupt_enable(
		const enum system_interrupt_vector vector)
{
	NVIC->ISER[0] = (uint32_t)(1 << ((uint32_t)vector & 0x0000001f));
     28c:	2210      	movs	r2, #16
     28e:	4b08      	ldr	r3, [pc, #32]	; (2b0 <_system_extint_init+0x64>)
     290:	601a      	str	r2, [r3, #0]
	_extint_enable();
     292:	4b08      	ldr	r3, [pc, #32]	; (2b4 <_system_extint_init+0x68>)
     294:	4798      	blx	r3
}
     296:	b003      	add	sp, #12
     298:	bd00      	pop	{pc}
     29a:	46c0      	nop			; (mov r8, r8)
     29c:	40000400 	.word	0x40000400
     2a0:	00002d15 	.word	0x00002d15
     2a4:	00002c89 	.word	0x00002c89
     2a8:	40001800 	.word	0x40001800
     2ac:	20000a14 	.word	0x20000a14
     2b0:	e000e100 	.word	0xe000e100
     2b4:	00000235 	.word	0x00000235

000002b8 <port_pin_set_config>:
 *  \param[in] config    Configuration settings for the pin
 */
void port_pin_set_config(
		const uint8_t gpio_pin,
		const struct port_config *const config)
{
     2b8:	b500      	push	{lr}
     2ba:	b083      	sub	sp, #12
{
	/* Sanity check arguments */
	Assert(config);

	/* Default configuration values */
	config->mux_position = SYSTEM_PINMUX_GPIO;
     2bc:	ab01      	add	r3, sp, #4
     2be:	2280      	movs	r2, #128	; 0x80
     2c0:	701a      	strb	r2, [r3, #0]

	struct system_pinmux_config pinmux_config;
	system_pinmux_get_config_defaults(&pinmux_config);

	pinmux_config.mux_position = SYSTEM_PINMUX_GPIO;
	pinmux_config.direction    = (enum system_pinmux_pin_dir)config->direction;
     2c2:	780a      	ldrb	r2, [r1, #0]
     2c4:	705a      	strb	r2, [r3, #1]
	pinmux_config.input_pull   = (enum system_pinmux_pin_pull)config->input_pull;
     2c6:	784a      	ldrb	r2, [r1, #1]
     2c8:	709a      	strb	r2, [r3, #2]
	pinmux_config.powersave    = config->powersave;
     2ca:	788a      	ldrb	r2, [r1, #2]
     2cc:	70da      	strb	r2, [r3, #3]

	system_pinmux_pin_set_config(gpio_pin, &pinmux_config);
     2ce:	0019      	movs	r1, r3
     2d0:	4b01      	ldr	r3, [pc, #4]	; (2d8 <port_pin_set_config+0x20>)
     2d2:	4798      	blx	r3
}
     2d4:	b003      	add	sp, #12
     2d6:	bd00      	pop	{pc}
     2d8:	00002e0d 	.word	0x00002e0d

000002dc <_tcc_get_inst_index>:
uint8_t _tcc_get_inst_index(
		Tcc *const hw)
{
	/* Find index for TCC instance. */
	for (uint32_t i = 0; i < TCC_INST_NUM; i++) {
		if (hw == tcc_modules[i]) {
     2dc:	4b09      	ldr	r3, [pc, #36]	; (304 <_tcc_get_inst_index+0x28>)
     2de:	4298      	cmp	r0, r3
     2e0:	d00c      	beq.n	2fc <_tcc_get_inst_index+0x20>
     2e2:	4b09      	ldr	r3, [pc, #36]	; (308 <_tcc_get_inst_index+0x2c>)
     2e4:	4298      	cmp	r0, r3
     2e6:	d007      	beq.n	2f8 <_tcc_get_inst_index+0x1c>
     2e8:	4a08      	ldr	r2, [pc, #32]	; (30c <_tcc_get_inst_index+0x30>)
		}
	}

	/* Invalid data given. */
	Assert(false);
	return 0;
     2ea:	2300      	movs	r3, #0
		if (hw == tcc_modules[i]) {
     2ec:	4290      	cmp	r0, r2
     2ee:	d001      	beq.n	2f4 <_tcc_get_inst_index+0x18>
}
     2f0:	0018      	movs	r0, r3
     2f2:	4770      	bx	lr
	for (uint32_t i = 0; i < TCC_INST_NUM; i++) {
     2f4:	3302      	adds	r3, #2
     2f6:	e002      	b.n	2fe <_tcc_get_inst_index+0x22>
     2f8:	2301      	movs	r3, #1
     2fa:	e000      	b.n	2fe <_tcc_get_inst_index+0x22>
     2fc:	2300      	movs	r3, #0
			return i;
     2fe:	b2db      	uxtb	r3, r3
     300:	e7f6      	b.n	2f0 <_tcc_get_inst_index+0x14>
     302:	46c0      	nop			; (mov r8, r8)
     304:	42002000 	.word	0x42002000
     308:	42002400 	.word	0x42002400
     30c:	42002800 	.word	0x42002800

00000310 <tcc_get_config_defaults>:
 *
 */
void tcc_get_config_defaults(
		struct tcc_config *const config,
		Tcc *const hw)
{
     310:	b510      	push	{r4, lr}
     312:	0004      	movs	r4, r0
	/* TCC instance index */
	uint8_t module_index = _tcc_get_inst_index(hw);
     314:	0008      	movs	r0, r1
     316:	4b4f      	ldr	r3, [pc, #316]	; (454 <tcc_get_config_defaults+0x144>)
     318:	4798      	blx	r3

	/* Base counter defaults */
	config->counter.count                  = 0;
     31a:	2300      	movs	r3, #0
     31c:	6023      	str	r3, [r4, #0]

	config->counter.period                 = _tcc_maxs[module_index];
     31e:	0080      	lsls	r0, r0, #2
     320:	4a4d      	ldr	r2, [pc, #308]	; (458 <tcc_get_config_defaults+0x148>)
     322:	5882      	ldr	r2, [r0, r2]
     324:	6062      	str	r2, [r4, #4]

	config->counter.clock_source           = GCLK_GENERATOR_0;
     326:	72a3      	strb	r3, [r4, #10]
	config->counter.clock_prescaler        = TCC_CLOCK_PRESCALER_DIV1;
     328:	72e3      	strb	r3, [r4, #11]
	config->counter.reload_action          = TCC_RELOAD_ACTION_GCLK;
     32a:	7323      	strb	r3, [r4, #12]

	config->counter.direction              = TCC_COUNT_DIRECTION_UP;
     32c:	7263      	strb	r3, [r4, #9]
	config->counter.oneshot                = false;
     32e:	7223      	strb	r3, [r4, #8]
#endif

	/* Match/Capture defaults */
#  define _TCC_CHANNEL_MATCH_VALUE_INIT(n, value) \
		config->compare.match[n] = value;
	MREPEAT(TCC_NUM_CHANNELS,
     330:	61e3      	str	r3, [r4, #28]
     332:	6223      	str	r3, [r4, #32]
     334:	6263      	str	r3, [r4, #36]	; 0x24
     336:	62a3      	str	r3, [r4, #40]	; 0x28
#  undef _TCC_CHANNEL_MATCH_VALUE_INIT

	/* Wave polarity defaults */
#  define _TCC_CHANNEL_WAVE_POLARITY_INIT(n, value) \
		config->compare.wave_polarity[n] = value;
	MREPEAT(TCC_NUM_CHANNELS,
     338:	7523      	strb	r3, [r4, #20]
     33a:	7563      	strb	r3, [r4, #21]
     33c:	75a3      	strb	r3, [r4, #22]
     33e:	75e3      	strb	r3, [r4, #23]
		_TCC_CHANNEL_WAVE_POLARITY_INIT, TCC_WAVE_POLARITY_0)
#  undef _TCC_CHANNEL_WAVE_POLARITY_INIT

	config->compare.wave_generation = TCC_WAVE_GENERATION_NORMAL_FREQ;
     340:	7623      	strb	r3, [r4, #24]
	config->compare.wave_ramp       = TCC_RAMP_RAMP1;
     342:	7663      	strb	r3, [r4, #25]

#  define _TCC_CHANNEL_FUNCTION_INIT(n, value) \
		config->compare.channel_function[n] = value;
	MREPEAT(TCC_NUM_CHANNELS,
     344:	7423      	strb	r3, [r4, #16]
     346:	7463      	strb	r3, [r4, #17]
     348:	74a3      	strb	r3, [r4, #18]
     34a:	74e3      	strb	r3, [r4, #19]
		config->wave_ext.recoverable_fault[n].source = TCC_FAULT_SOURCE_DISABLE;           \
		config->wave_ext.recoverable_fault[n].blanking = TCC_FAULT_BLANKING_DISABLE;       \
		config->wave_ext.recoverable_fault[n].halt_action = TCC_FAULT_HALT_ACTION_DISABLE; \
		config->wave_ext.recoverable_fault[n].capture_action = TCC_FAULT_CAPTURE_DISABLE;  \
		config->wave_ext.recoverable_fault[n].capture_channel = TCC_FAULT_CAPTURE_CHANNEL_0;
	MREPEAT(TCC_NUM_FAULTS, _TCC_FAULT_FUNCTION_INIT, 0)
     34c:	222c      	movs	r2, #44	; 0x2c
     34e:	54a3      	strb	r3, [r4, r2]
     350:	3201      	adds	r2, #1
     352:	54a3      	strb	r3, [r4, r2]
     354:	3201      	adds	r2, #1
     356:	54a3      	strb	r3, [r4, r2]
     358:	3201      	adds	r2, #1
     35a:	54a3      	strb	r3, [r4, r2]
     35c:	3201      	adds	r2, #1
     35e:	54a3      	strb	r3, [r4, r2]
     360:	3201      	adds	r2, #1
     362:	54a3      	strb	r3, [r4, r2]
     364:	3201      	adds	r2, #1
     366:	54a3      	strb	r3, [r4, r2]
     368:	3201      	adds	r2, #1
     36a:	54a3      	strb	r3, [r4, r2]
     36c:	3201      	adds	r2, #1
     36e:	54a3      	strb	r3, [r4, r2]
     370:	3201      	adds	r2, #1
     372:	54a3      	strb	r3, [r4, r2]
     374:	3201      	adds	r2, #1
     376:	54a3      	strb	r3, [r4, r2]
     378:	3201      	adds	r2, #1
     37a:	54a3      	strb	r3, [r4, r2]
     37c:	3201      	adds	r2, #1
     37e:	54a3      	strb	r3, [r4, r2]
     380:	3201      	adds	r2, #1
     382:	54a3      	strb	r3, [r4, r2]
     384:	3201      	adds	r2, #1
     386:	54a3      	strb	r3, [r4, r2]
     388:	3201      	adds	r2, #1
     38a:	54a3      	strb	r3, [r4, r2]
     38c:	3201      	adds	r2, #1
     38e:	54a3      	strb	r3, [r4, r2]
     390:	3201      	adds	r2, #1
     392:	54a3      	strb	r3, [r4, r2]
     394:	3201      	adds	r2, #1
     396:	54a3      	strb	r3, [r4, r2]
     398:	3201      	adds	r2, #1
     39a:	54a3      	strb	r3, [r4, r2]

	/* Non-recoverable fault defaults */
#  define _TCC_NRF_FUNCTION_INIT(n, dummy) \
		config->wave_ext.non_recoverable_fault[n].filter_value = 0; \
		config->wave_ext.non_recoverable_fault[n].output = TCC_FAULT_STATE_OUTPUT_OFF;
	MREPEAT(TCC_NUM_WAVE_OUTPUTS, _TCC_NRF_FUNCTION_INIT, 0)
     39c:	3201      	adds	r2, #1
     39e:	54a3      	strb	r3, [r4, r2]
     3a0:	3201      	adds	r2, #1
     3a2:	54a3      	strb	r3, [r4, r2]
     3a4:	3201      	adds	r2, #1
     3a6:	54a3      	strb	r3, [r4, r2]
     3a8:	3201      	adds	r2, #1
     3aa:	54a3      	strb	r3, [r4, r2]
     3ac:	3201      	adds	r2, #1
     3ae:	54a3      	strb	r3, [r4, r2]
     3b0:	3201      	adds	r2, #1
     3b2:	54a3      	strb	r3, [r4, r2]
     3b4:	3201      	adds	r2, #1
     3b6:	54a3      	strb	r3, [r4, r2]
     3b8:	3201      	adds	r2, #1
     3ba:	54a3      	strb	r3, [r4, r2]
     3bc:	3201      	adds	r2, #1
     3be:	54a3      	strb	r3, [r4, r2]
     3c0:	3201      	adds	r2, #1
     3c2:	54a3      	strb	r3, [r4, r2]
     3c4:	3201      	adds	r2, #1
     3c6:	54a3      	strb	r3, [r4, r2]
     3c8:	3201      	adds	r2, #1
     3ca:	54a3      	strb	r3, [r4, r2]
     3cc:	3201      	adds	r2, #1
     3ce:	54a3      	strb	r3, [r4, r2]
     3d0:	3201      	adds	r2, #1
     3d2:	54a3      	strb	r3, [r4, r2]
     3d4:	3201      	adds	r2, #1
     3d6:	54a3      	strb	r3, [r4, r2]
     3d8:	3201      	adds	r2, #1
     3da:	54a3      	strb	r3, [r4, r2]
#  undef _TCC_NRF_FUNCTION_INIT

	/* Output inversion defaults */
#  define _TCC_OUT_INVERT_INIT(n, value) \
		config->wave_ext.invert[n] = value;
	MREPEAT(TCC_NUM_WAVE_OUTPUTS, _TCC_OUT_INVERT_INIT, false)
     3dc:	3201      	adds	r2, #1
     3de:	54a3      	strb	r3, [r4, r2]
     3e0:	3201      	adds	r2, #1
     3e2:	54a3      	strb	r3, [r4, r2]
     3e4:	3201      	adds	r2, #1
     3e6:	54a3      	strb	r3, [r4, r2]
     3e8:	3201      	adds	r2, #1
     3ea:	54a3      	strb	r3, [r4, r2]
     3ec:	3201      	adds	r2, #1
     3ee:	54a3      	strb	r3, [r4, r2]
     3f0:	3201      	adds	r2, #1
     3f2:	54a3      	strb	r3, [r4, r2]
     3f4:	3201      	adds	r2, #1
     3f6:	54a3      	strb	r3, [r4, r2]
     3f8:	3201      	adds	r2, #1
     3fa:	54a3      	strb	r3, [r4, r2]

#  define _TCC_CHANNEL_OUT_PIN_INIT(n, dummy) \
		config->pins.enable_wave_out_pin[n]                = false;\
		config->pins.wave_out_pin[TCC_WAVE_OUTPUT_##n]     = 0;    \
		config->pins.wave_out_pin_mux[TCC_WAVE_OUTPUT_##n] = 0;
	MREPEAT(TCC_NUM_WAVE_OUTPUTS, _TCC_CHANNEL_OUT_PIN_INIT, 0)
     3fc:	3241      	adds	r2, #65	; 0x41
     3fe:	54a3      	strb	r3, [r4, r2]
     400:	65a3      	str	r3, [r4, #88]	; 0x58
     402:	67a3      	str	r3, [r4, #120]	; 0x78
     404:	3201      	adds	r2, #1
     406:	54a3      	strb	r3, [r4, r2]
     408:	65e3      	str	r3, [r4, #92]	; 0x5c
     40a:	67e3      	str	r3, [r4, #124]	; 0x7c
     40c:	3201      	adds	r2, #1
     40e:	54a3      	strb	r3, [r4, r2]
     410:	6623      	str	r3, [r4, #96]	; 0x60
     412:	3a1a      	subs	r2, #26
     414:	50a3      	str	r3, [r4, r2]
     416:	321b      	adds	r2, #27
     418:	54a3      	strb	r3, [r4, r2]
     41a:	6663      	str	r3, [r4, #100]	; 0x64
     41c:	3a17      	subs	r2, #23
     41e:	50a3      	str	r3, [r4, r2]
     420:	3218      	adds	r2, #24
     422:	54a3      	strb	r3, [r4, r2]
     424:	66a3      	str	r3, [r4, #104]	; 0x68
     426:	3a14      	subs	r2, #20
     428:	50a3      	str	r3, [r4, r2]
     42a:	3215      	adds	r2, #21
     42c:	54a3      	strb	r3, [r4, r2]
     42e:	66e3      	str	r3, [r4, #108]	; 0x6c
     430:	3a11      	subs	r2, #17
     432:	50a3      	str	r3, [r4, r2]
     434:	3212      	adds	r2, #18
     436:	54a3      	strb	r3, [r4, r2]
     438:	6723      	str	r3, [r4, #112]	; 0x70
     43a:	3a0e      	subs	r2, #14
     43c:	50a3      	str	r3, [r4, r2]
     43e:	320f      	adds	r2, #15
     440:	54a3      	strb	r3, [r4, r2]
     442:	6763      	str	r3, [r4, #116]	; 0x74
     444:	3a0b      	subs	r2, #11
     446:	50a3      	str	r3, [r4, r2]
#  undef _TCC_CHANNEL_OUT_PIN_INIT

	config->double_buffering_enabled  = true;
     448:	2101      	movs	r1, #1
     44a:	320c      	adds	r2, #12
     44c:	54a1      	strb	r1, [r4, r2]
	config->run_in_standby            = false;
     44e:	3201      	adds	r2, #1
     450:	54a3      	strb	r3, [r4, r2]
}
     452:	bd10      	pop	{r4, pc}
     454:	000002dd 	.word	0x000002dd
     458:	000033cc 	.word	0x000033cc

0000045c <tcc_init>:
 */
enum status_code tcc_init(
		struct tcc_module *const module_inst,
		Tcc *const hw,
		const struct tcc_config *const config)
{
     45c:	b5f0      	push	{r4, r5, r6, r7, lr}
     45e:	46de      	mov	lr, fp
     460:	4657      	mov	r7, sl
     462:	464e      	mov	r6, r9
     464:	4645      	mov	r5, r8
     466:	b5e0      	push	{r5, r6, r7, lr}
     468:	b091      	sub	sp, #68	; 0x44
     46a:	9001      	str	r0, [sp, #4]
     46c:	000c      	movs	r4, r1
     46e:	0015      	movs	r5, r2
	Assert(hw);
	Assert(module_inst);
	Assert(config);

	/* TCC instance index */
	uint8_t module_index = _tcc_get_inst_index(hw);
     470:	0008      	movs	r0, r1
     472:	4bc3      	ldr	r3, [pc, #780]	; (780 <tcc_init+0x324>)
     474:	4798      	blx	r3
     476:	0003      	movs	r3, r0

	/* Enable the user interface clock for TCC */
	system_apb_clock_set_mask(SYSTEM_CLOCK_APB_APBC,
     478:	0001      	movs	r1, r0
			PM->APBCMASK.reg |= mask;
     47a:	48c2      	ldr	r0, [pc, #776]	; (784 <tcc_init+0x328>)
     47c:	6a02      	ldr	r2, [r0, #32]
     47e:	009e      	lsls	r6, r3, #2
     480:	4fc1      	ldr	r7, [pc, #772]	; (788 <tcc_init+0x32c>)
     482:	59f7      	ldr	r7, [r6, r7]
     484:	433a      	orrs	r2, r7
     486:	6202      	str	r2, [r0, #32]
			_tcc_apbcmasks[module_index]);

	/* Check if it's enabled. */
	if (hw->CTRLA.reg & TCC_CTRLA_ENABLE) {
     488:	6822      	ldr	r2, [r4, #0]
		return STATUS_ERR_DENIED;
     48a:	201c      	movs	r0, #28
	if (hw->CTRLA.reg & TCC_CTRLA_ENABLE) {
     48c:	0792      	lsls	r2, r2, #30
     48e:	d506      	bpl.n	49e <tcc_init+0x42>
#endif
		hw->CC[i].reg = (config->compare.match[i]);
	}

	return STATUS_OK;
}
     490:	b011      	add	sp, #68	; 0x44
     492:	bc3c      	pop	{r2, r3, r4, r5}
     494:	4690      	mov	r8, r2
     496:	4699      	mov	r9, r3
     498:	46a2      	mov	sl, r4
     49a:	46ab      	mov	fp, r5
     49c:	bdf0      	pop	{r4, r5, r6, r7, pc}
	if (hw->CTRLA.reg & TCC_CTRLA_SWRST) {
     49e:	6822      	ldr	r2, [r4, #0]
     4a0:	2701      	movs	r7, #1
     4a2:	4017      	ands	r7, r2
     4a4:	d1f4      	bne.n	490 <tcc_init+0x34>
	uint32_t count_max  = _tcc_maxs[module_index];
     4a6:	48b9      	ldr	r0, [pc, #740]	; (78c <tcc_init+0x330>)
     4a8:	5832      	ldr	r2, [r6, r0]
		return STATUS_ERR_INVALID_ARG;
     4aa:	2017      	movs	r0, #23
	if ((config->counter.count > count_max)
     4ac:	682e      	ldr	r6, [r5, #0]
     4ae:	42b2      	cmp	r2, r6
     4b0:	d3ee      	bcc.n	490 <tcc_init+0x34>
		|| (config->counter.period > count_max)
     4b2:	686e      	ldr	r6, [r5, #4]
     4b4:	42b2      	cmp	r2, r6
     4b6:	d3eb      	bcc.n	490 <tcc_init+0x34>
		if ((config->compare.match[i] > count_max)
     4b8:	69e8      	ldr	r0, [r5, #28]
     4ba:	4282      	cmp	r2, r0
     4bc:	d200      	bcs.n	4c0 <tcc_init+0x64>
     4be:	e1b9      	b.n	834 <STACK_SIZE+0x34>
     4c0:	6a28      	ldr	r0, [r5, #32]
     4c2:	4282      	cmp	r2, r0
     4c4:	d200      	bcs.n	4c8 <tcc_init+0x6c>
     4c6:	e1b7      	b.n	838 <STACK_SIZE+0x38>
     4c8:	6a68      	ldr	r0, [r5, #36]	; 0x24
     4ca:	4282      	cmp	r2, r0
     4cc:	d200      	bcs.n	4d0 <tcc_init+0x74>
     4ce:	e1b5      	b.n	83c <STACK_SIZE+0x3c>
     4d0:	6aa8      	ldr	r0, [r5, #40]	; 0x28
     4d2:	4282      	cmp	r2, r0
     4d4:	d200      	bcs.n	4d8 <tcc_init+0x7c>
     4d6:	e1b3      	b.n	840 <STACK_SIZE+0x40>
     4d8:	2298      	movs	r2, #152	; 0x98
     4da:	4694      	mov	ip, r2
     4dc:	44ac      	add	ip, r5
     4de:	4662      	mov	r2, ip
     4e0:	9208      	str	r2, [sp, #32]
     4e2:	2000      	movs	r0, #0
     4e4:	e003      	b.n	4ee <tcc_init+0x92>
	for (i = 0; i < TCC_NUM_WAVE_OUTPUTS; i ++) {
     4e6:	3001      	adds	r0, #1
     4e8:	3201      	adds	r2, #1
     4ea:	2808      	cmp	r0, #8
     4ec:	d008      	beq.n	500 <tcc_init+0xa4>
		if (!config->pins.enable_wave_out_pin[i]) {
     4ee:	7816      	ldrb	r6, [r2, #0]
     4f0:	2e00      	cmp	r6, #0
     4f2:	d0f8      	beq.n	4e6 <tcc_init+0x8a>
		if (i >= _tcc_ow_nums[module_index]) {
     4f4:	4ea6      	ldr	r6, [pc, #664]	; (790 <tcc_init+0x334>)
     4f6:	5c76      	ldrb	r6, [r6, r1]
     4f8:	4286      	cmp	r6, r0
     4fa:	dcf4      	bgt.n	4e6 <tcc_init+0x8a>
			return STATUS_ERR_INVALID_ARG;
     4fc:	2017      	movs	r0, #23
     4fe:	e7c7      	b.n	490 <tcc_init+0x34>
     500:	2200      	movs	r2, #0
     502:	9202      	str	r2, [sp, #8]
			ctrla |= (TCC_CTRLA_CPTEN0 << i);
     504:	2080      	movs	r0, #128	; 0x80
     506:	0440      	lsls	r0, r0, #17
     508:	4684      	mov	ip, r0
     50a:	e002      	b.n	512 <tcc_init+0xb6>
	for (i = 0; i < TCC_NUM_CHANNELS; i ++) {
     50c:	3201      	adds	r2, #1
     50e:	2a04      	cmp	r2, #4
     510:	d00e      	beq.n	530 <tcc_init+0xd4>
		if (config->capture.channel_function[i] ==
     512:	18a8      	adds	r0, r5, r2
     514:	7c00      	ldrb	r0, [r0, #16]
     516:	2801      	cmp	r0, #1
     518:	d1f8      	bne.n	50c <tcc_init+0xb0>
			if (i > _tcc_cc_nums[module_index]) {
     51a:	489e      	ldr	r0, [pc, #632]	; (794 <tcc_init+0x338>)
     51c:	5c40      	ldrb	r0, [r0, r1]
     51e:	4290      	cmp	r0, r2
     520:	da00      	bge.n	524 <tcc_init+0xc8>
     522:	e18f      	b.n	844 <STACK_SIZE+0x44>
			ctrla |= (TCC_CTRLA_CPTEN0 << i);
     524:	4660      	mov	r0, ip
     526:	4090      	lsls	r0, r2
     528:	9e02      	ldr	r6, [sp, #8]
     52a:	4306      	orrs	r6, r0
     52c:	9602      	str	r6, [sp, #8]
     52e:	e7ed      	b.n	50c <tcc_init+0xb0>
	if (config->run_in_standby) {
     530:	329d      	adds	r2, #157	; 0x9d
     532:	5caa      	ldrb	r2, [r5, r2]
     534:	2a00      	cmp	r2, #0
     536:	d004      	beq.n	542 <tcc_init+0xe6>
		ctrla |= TCC_CTRLA_RUNSTDBY;
     538:	2280      	movs	r2, #128	; 0x80
     53a:	0112      	lsls	r2, r2, #4
     53c:	9902      	ldr	r1, [sp, #8]
     53e:	4311      	orrs	r1, r2
     540:	9102      	str	r1, [sp, #8]
	if (config->counter.oneshot) {
     542:	7a2a      	ldrb	r2, [r5, #8]
		ctrlb |= TCC_CTRLBSET_ONESHOT;
     544:	1e51      	subs	r1, r2, #1
     546:	418a      	sbcs	r2, r1
     548:	0092      	lsls	r2, r2, #2
     54a:	9206      	str	r2, [sp, #24]
	if (config->counter.direction == TCC_COUNT_DIRECTION_DOWN) {
     54c:	7a6a      	ldrb	r2, [r5, #9]
     54e:	2a01      	cmp	r2, #1
     550:	d022      	beq.n	598 <tcc_init+0x13c>
	uint8_t cc_num = _tcc_cc_nums[module_index];
     552:	4a90      	ldr	r2, [pc, #576]	; (794 <tcc_init+0x338>)
     554:	5cd2      	ldrb	r2, [r2, r3]
     556:	0011      	movs	r1, r2
     558:	9205      	str	r2, [sp, #20]
		if (cfg->capture_channel >= cc_num) {
     55a:	2235      	movs	r2, #53	; 0x35
     55c:	5caa      	ldrb	r2, [r5, r2]
     55e:	428a      	cmp	r2, r1
     560:	d300      	bcc.n	564 <tcc_init+0x108>
     562:	e179      	b.n	858 <STACK_SIZE+0x58>
		if (cfg->filter_value > 0xF) {
     564:	212c      	movs	r1, #44	; 0x2c
     566:	5c69      	ldrb	r1, [r5, r1]
     568:	290f      	cmp	r1, #15
     56a:	d900      	bls.n	56e <tcc_init+0x112>
     56c:	e174      	b.n	858 <STACK_SIZE+0x58>
	ctrla |= config->counter.reload_action << TCC_CTRLA_PRESCSYNC_Pos;
     56e:	7b28      	ldrb	r0, [r5, #12]
     570:	900a      	str	r0, [sp, #40]	; 0x28
	ctrla |= config->counter.clock_prescaler << TCC_CTRLA_PRESCALER_Pos;
     572:	7ae8      	ldrb	r0, [r5, #11]
     574:	900b      	str	r0, [sp, #44]	; 0x2c
     576:	202d      	movs	r0, #45	; 0x2d
     578:	4682      	mov	sl, r0
     57a:	44aa      	add	sl, r5
     57c:	2000      	movs	r0, #0
				| (cfg->restart ? TCC_FCTRLA_RESTART : 0)
     57e:	9704      	str	r7, [sp, #16]
		value_buffer[i] = fault;
     580:	ae0e      	add	r6, sp, #56	; 0x38
     582:	9607      	str	r6, [sp, #28]
				| TCC_FCTRLA_CHSEL(cfg->capture_channel);
     584:	26c0      	movs	r6, #192	; 0xc0
     586:	0136      	lsls	r6, r6, #4
     588:	46b1      	mov	r9, r6
     58a:	4684      	mov	ip, r0
     58c:	46a0      	mov	r8, r4
     58e:	0028      	movs	r0, r5
     590:	4655      	mov	r5, sl
     592:	9309      	str	r3, [sp, #36]	; 0x24
     594:	4682      	mov	sl, r0
     596:	e035      	b.n	604 <tcc_init+0x1a8>
		ctrlb |= TCC_CTRLBSET_DIR;
     598:	9906      	ldr	r1, [sp, #24]
     59a:	4311      	orrs	r1, r2
     59c:	9106      	str	r1, [sp, #24]
     59e:	e7d8      	b.n	552 <tcc_init+0xf6>
				| TCC_FCTRLA_CHSEL(cfg->capture_channel);
     5a0:	0292      	lsls	r2, r2, #10
     5a2:	464f      	mov	r7, r9
     5a4:	403a      	ands	r2, r7
		fault = TCC_FCTRLA_FILTERVAL(cfg->filter_value)
     5a6:	430a      	orrs	r2, r1
				| TCC_FCTRLA_SRC(cfg->source)
     5a8:	7919      	ldrb	r1, [r3, #4]
     5aa:	468b      	mov	fp, r1
     5ac:	2103      	movs	r1, #3
     5ae:	465f      	mov	r7, fp
     5b0:	4039      	ands	r1, r7
		fault = TCC_FCTRLA_FILTERVAL(cfg->filter_value)
     5b2:	430a      	orrs	r2, r1
     5b4:	4316      	orrs	r6, r2
				| TCC_FCTRLA_BLANK(cfg->blanking)
     5b6:	795a      	ldrb	r2, [r3, #5]
     5b8:	0152      	lsls	r2, r2, #5
     5ba:	2160      	movs	r1, #96	; 0x60
     5bc:	400a      	ands	r2, r1
		fault = TCC_FCTRLA_FILTERVAL(cfg->filter_value)
     5be:	4332      	orrs	r2, r6
				| TCC_FCTRLA_HALT(cfg->halt_action)
     5c0:	7999      	ldrb	r1, [r3, #6]
     5c2:	0209      	lsls	r1, r1, #8
     5c4:	26c0      	movs	r6, #192	; 0xc0
     5c6:	00b6      	lsls	r6, r6, #2
     5c8:	400e      	ands	r6, r1
		fault = TCC_FCTRLA_FILTERVAL(cfg->filter_value)
     5ca:	4316      	orrs	r6, r2
				| TCC_FCTRLA_CAPTURE(cfg->capture_action)
     5cc:	79da      	ldrb	r2, [r3, #7]
     5ce:	0312      	lsls	r2, r2, #12
     5d0:	21e0      	movs	r1, #224	; 0xe0
     5d2:	01c9      	lsls	r1, r1, #7
     5d4:	400a      	ands	r2, r1
		fault = TCC_FCTRLA_FILTERVAL(cfg->filter_value)
     5d6:	4316      	orrs	r6, r2
     5d8:	4334      	orrs	r4, r6
     5da:	9a03      	ldr	r2, [sp, #12]
     5dc:	4314      	orrs	r4, r2
     5de:	4320      	orrs	r0, r4
		value_buffer[i] = fault;
     5e0:	4662      	mov	r2, ip
     5e2:	9907      	ldr	r1, [sp, #28]
     5e4:	5050      	str	r0, [r2, r1]
	for (i = 0; i < TCC_NUM_FAULTS; i ++) {
     5e6:	2a04      	cmp	r2, #4
     5e8:	d02a      	beq.n	640 <tcc_init+0x1e4>
		if (cfg->capture_channel >= cc_num) {
     5ea:	7c9a      	ldrb	r2, [r3, #18]
     5ec:	9905      	ldr	r1, [sp, #20]
     5ee:	4291      	cmp	r1, r2
     5f0:	d800      	bhi.n	5f4 <tcc_init+0x198>
     5f2:	e131      	b.n	858 <STACK_SIZE+0x58>
		if (cfg->filter_value > 0xF) {
     5f4:	7a59      	ldrb	r1, [r3, #9]
     5f6:	350a      	adds	r5, #10
     5f8:	2304      	movs	r3, #4
     5fa:	469b      	mov	fp, r3
     5fc:	44dc      	add	ip, fp
     5fe:	290f      	cmp	r1, #15
     600:	d900      	bls.n	604 <tcc_init+0x1a8>
     602:	e129      	b.n	858 <STACK_SIZE+0x58>
		fault = TCC_FCTRLA_FILTERVAL(cfg->filter_value)
     604:	0609      	lsls	r1, r1, #24
     606:	23f0      	movs	r3, #240	; 0xf0
     608:	051b      	lsls	r3, r3, #20
     60a:	4019      	ands	r1, r3
     60c:	002b      	movs	r3, r5
				| TCC_FCTRLA_BLANKVAL(cfg->blanking_cycles)
     60e:	782e      	ldrb	r6, [r5, #0]
     610:	0436      	lsls	r6, r6, #16
     612:	20ff      	movs	r0, #255	; 0xff
     614:	0400      	lsls	r0, r0, #16
     616:	4006      	ands	r6, r0
				| (cfg->restart ? TCC_FCTRLA_RESTART : 0)
     618:	7868      	ldrb	r0, [r5, #1]
     61a:	2480      	movs	r4, #128	; 0x80
     61c:	2800      	cmp	r0, #0
     61e:	d100      	bne.n	622 <tcc_init+0x1c6>
     620:	9c04      	ldr	r4, [sp, #16]
				| (cfg->keep ? TCC_FCTRLA_KEEP : 0)
     622:	7898      	ldrb	r0, [r3, #2]
     624:	2708      	movs	r7, #8
     626:	9703      	str	r7, [sp, #12]
     628:	2800      	cmp	r0, #0
     62a:	d101      	bne.n	630 <tcc_init+0x1d4>
     62c:	9804      	ldr	r0, [sp, #16]
     62e:	9003      	str	r0, [sp, #12]
				| (cfg->qualification ? TCC_FCTRLA_QUAL : 0)
     630:	78d8      	ldrb	r0, [r3, #3]
     632:	4683      	mov	fp, r0
     634:	2010      	movs	r0, #16
     636:	465f      	mov	r7, fp
     638:	2f00      	cmp	r7, #0
     63a:	d1b1      	bne.n	5a0 <tcc_init+0x144>
     63c:	9804      	ldr	r0, [sp, #16]
     63e:	e7af      	b.n	5a0 <tcc_init+0x144>
     640:	4644      	mov	r4, r8
     642:	4655      	mov	r5, sl
     644:	9b09      	ldr	r3, [sp, #36]	; 0x24
	uint8_t ow_num = _tcc_ow_nums[module_index];
     646:	4a52      	ldr	r2, [pc, #328]	; (790 <tcc_init+0x334>)
     648:	5cd2      	ldrb	r2, [r2, r3]
     64a:	4691      	mov	r9, r2
     64c:	4651      	mov	r1, sl
     64e:	3150      	adds	r1, #80	; 0x50
     650:	4650      	mov	r0, sl
     652:	3041      	adds	r0, #65	; 0x41
	drvctrl = 0;
     654:	2700      	movs	r7, #0
	for (i = 0; i < TCC_NUM_WAVE_OUTPUTS; i ++) {
     656:	2200      	movs	r2, #0
				drvctrl |= (TCC_DRVCTRL_NRE0) << i;
     658:	2601      	movs	r6, #1
     65a:	46b2      	mov	sl, r6
				drvctrl |= (TCC_DRVCTRL_NRE0 | TCC_DRVCTRL_NRV0) << i;
     65c:	2602      	movs	r6, #2
     65e:	36ff      	adds	r6, #255	; 0xff
     660:	46b3      	mov	fp, r6
			drvctrl |= (TCC_DRVCTRL_INVEN0 << i);
     662:	2680      	movs	r6, #128	; 0x80
     664:	0276      	lsls	r6, r6, #9
     666:	46b0      	mov	r8, r6
     668:	46a4      	mov	ip, r4
     66a:	001c      	movs	r4, r3
     66c:	464b      	mov	r3, r9
     66e:	e00f      	b.n	690 <tcc_init+0x234>
		if (config->wave_ext.non_recoverable_fault[i].output !=
     670:	7806      	ldrb	r6, [r0, #0]
     672:	2e00      	cmp	r6, #0
     674:	d007      	beq.n	686 <tcc_init+0x22a>
			if (i >= ow_num) {
     676:	4293      	cmp	r3, r2
     678:	d800      	bhi.n	67c <tcc_init+0x220>
     67a:	e0e7      	b.n	84c <STACK_SIZE+0x4c>
			if (config->wave_ext.non_recoverable_fault[i].output ==
     67c:	2e02      	cmp	r6, #2
     67e:	d014      	beq.n	6aa <tcc_init+0x24e>
				drvctrl |= (TCC_DRVCTRL_NRE0) << i;
     680:	4656      	mov	r6, sl
     682:	4096      	lsls	r6, r2
     684:	4337      	orrs	r7, r6
	for (i = 0; i < TCC_NUM_WAVE_OUTPUTS; i ++) {
     686:	3201      	adds	r2, #1
     688:	3101      	adds	r1, #1
     68a:	3002      	adds	r0, #2
     68c:	2a08      	cmp	r2, #8
     68e:	d010      	beq.n	6b2 <tcc_init+0x256>
		if (config->wave_ext.invert[i]) {
     690:	780e      	ldrb	r6, [r1, #0]
     692:	2e00      	cmp	r6, #0
     694:	d0ec      	beq.n	670 <tcc_init+0x214>
			if (i >= ow_num) {
     696:	4293      	cmp	r3, r2
     698:	d800      	bhi.n	69c <tcc_init+0x240>
     69a:	e0d5      	b.n	848 <STACK_SIZE+0x48>
			drvctrl |= (TCC_DRVCTRL_INVEN0 << i);
     69c:	4646      	mov	r6, r8
     69e:	4096      	lsls	r6, r2
     6a0:	4337      	orrs	r7, r6
		if (config->wave_ext.non_recoverable_fault[i].output !=
     6a2:	7806      	ldrb	r6, [r0, #0]
     6a4:	2e00      	cmp	r6, #0
     6a6:	d1e9      	bne.n	67c <tcc_init+0x220>
     6a8:	e7ed      	b.n	686 <tcc_init+0x22a>
				drvctrl |= (TCC_DRVCTRL_NRE0 | TCC_DRVCTRL_NRV0) << i;
     6aa:	465e      	mov	r6, fp
     6ac:	4096      	lsls	r6, r2
     6ae:	4337      	orrs	r7, r6
     6b0:	e7e9      	b.n	686 <tcc_init+0x22a>
     6b2:	4699      	mov	r9, r3
     6b4:	0023      	movs	r3, r4
     6b6:	4664      	mov	r4, ip
	wave = TCC_WAVE_RAMP(wav_cfg->wave_ramp) |
     6b8:	7e6a      	ldrb	r2, [r5, #25]
     6ba:	0112      	lsls	r2, r2, #4
     6bc:	2130      	movs	r1, #48	; 0x30
     6be:	4011      	ands	r1, r2
			TCC_WAVE_WAVEGEN(wav_cfg->wave_generation);
     6c0:	7e28      	ldrb	r0, [r5, #24]
     6c2:	2207      	movs	r2, #7
     6c4:	4002      	ands	r2, r0
	wave = TCC_WAVE_RAMP(wav_cfg->wave_ramp) |
     6c6:	4311      	orrs	r1, r2
	for (n = 0; n < TCC_NUM_CHANNELS; n++) {
     6c8:	2200      	movs	r2, #0
			wave |= (TCC_WAVE_POL0 << n);
     6ca:	2080      	movs	r0, #128	; 0x80
     6cc:	0240      	lsls	r0, r0, #9
     6ce:	000e      	movs	r6, r1
     6d0:	e002      	b.n	6d8 <tcc_init+0x27c>
	for (n = 0; n < TCC_NUM_CHANNELS; n++) {
     6d2:	3201      	adds	r2, #1
     6d4:	2a04      	cmp	r2, #4
     6d6:	d00b      	beq.n	6f0 <tcc_init+0x294>
		if (wav_cfg->wave_polarity[n]) {
     6d8:	18a9      	adds	r1, r5, r2
     6da:	7d09      	ldrb	r1, [r1, #20]
     6dc:	2900      	cmp	r1, #0
     6de:	d0f8      	beq.n	6d2 <tcc_init+0x276>
			if (n >= cc_num) {
     6e0:	9905      	ldr	r1, [sp, #20]
     6e2:	4291      	cmp	r1, r2
     6e4:	dc00      	bgt.n	6e8 <tcc_init+0x28c>
     6e6:	e0b3      	b.n	850 <STACK_SIZE+0x50>
			wave |= (TCC_WAVE_POL0 << n);
     6e8:	0001      	movs	r1, r0
     6ea:	4091      	lsls	r1, r2
     6ec:	430e      	orrs	r6, r1
     6ee:	e7f0      	b.n	6d2 <tcc_init+0x276>
     6f0:	46b2      	mov	sl, r6
     6f2:	9801      	ldr	r0, [sp, #4]
     6f4:	0002      	movs	r2, r0
     6f6:	3204      	adds	r2, #4
     6f8:	3034      	adds	r0, #52	; 0x34
		module_inst->callback[i] = NULL;
     6fa:	2100      	movs	r1, #0
     6fc:	c202      	stmia	r2!, {r1}
	for (i = 0; i < TCC_CALLBACK_N; i ++) {
     6fe:	4282      	cmp	r2, r0
     700:	d1fc      	bne.n	6fc <tcc_init+0x2a0>
	module_inst->register_callback_mask = 0;
     702:	2200      	movs	r2, #0
     704:	9801      	ldr	r0, [sp, #4]
     706:	6342      	str	r2, [r0, #52]	; 0x34
	module_inst->enable_callback_mask = 0;
     708:	6382      	str	r2, [r0, #56]	; 0x38
	_tcc_instances[module_index] = module_inst;
     70a:	0099      	lsls	r1, r3, #2
     70c:	4a22      	ldr	r2, [pc, #136]	; (798 <tcc_init+0x33c>)
     70e:	5088      	str	r0, [r1, r2]
	module_inst->hw = hw;
     710:	6004      	str	r4, [r0, #0]
	module_inst->double_buffering_enabled = config->double_buffering_enabled;
     712:	22a0      	movs	r2, #160	; 0xa0
     714:	5ca9      	ldrb	r1, [r5, r2]
     716:	3a64      	subs	r2, #100	; 0x64
     718:	5481      	strb	r1, [r0, r2]
	gclk_chan_config.source_generator = config->counter.clock_source;
     71a:	a90d      	add	r1, sp, #52	; 0x34
     71c:	7aaa      	ldrb	r2, [r5, #10]
     71e:	700a      	strb	r2, [r1, #0]
	system_gclk_chan_set_config(_tcc_gclk_ids[module_index], &gclk_chan_config);
     720:	4a1e      	ldr	r2, [pc, #120]	; (79c <tcc_init+0x340>)
     722:	5cd6      	ldrb	r6, [r2, r3]
     724:	0030      	movs	r0, r6
     726:	4b1e      	ldr	r3, [pc, #120]	; (7a0 <tcc_init+0x344>)
     728:	4798      	blx	r3
	system_gclk_chan_enable(_tcc_gclk_ids[module_index]);
     72a:	0030      	movs	r0, r6
     72c:	4b1d      	ldr	r3, [pc, #116]	; (7a4 <tcc_init+0x348>)
     72e:	4798      	blx	r3
	for (i = 0; i <  _tcc_ow_nums[module_index]; i ++) {
     730:	464b      	mov	r3, r9
     732:	2b00      	cmp	r3, #0
     734:	dd3c      	ble.n	7b0 <tcc_init+0x354>
     736:	002e      	movs	r6, r5
     738:	3658      	adds	r6, #88	; 0x58
     73a:	3398      	adds	r3, #152	; 0x98
     73c:	4698      	mov	r8, r3
     73e:	44a8      	add	r8, r5
	config->direction    = SYSTEM_PINMUX_PIN_DIR_INPUT;
	config->input_pull   = SYSTEM_PINMUX_PIN_PULL_UP;
     740:	2301      	movs	r3, #1
     742:	4699      	mov	r9, r3
		system_pinmux_pin_set_config(
     744:	46ab      	mov	fp, r5
     746:	4645      	mov	r5, r8
     748:	46a0      	mov	r8, r4
     74a:	9c08      	ldr	r4, [sp, #32]
     74c:	e003      	b.n	756 <tcc_init+0x2fa>
     74e:	3401      	adds	r4, #1
     750:	3604      	adds	r6, #4
	for (i = 0; i <  _tcc_ow_nums[module_index]; i ++) {
     752:	42ac      	cmp	r4, r5
     754:	d02a      	beq.n	7ac <tcc_init+0x350>
		if (!config->pins.enable_wave_out_pin[i]) {
     756:	7823      	ldrb	r3, [r4, #0]
     758:	2b00      	cmp	r3, #0
     75a:	d0f8      	beq.n	74e <tcc_init+0x2f2>
     75c:	ab0c      	add	r3, sp, #48	; 0x30
     75e:	464a      	mov	r2, r9
     760:	709a      	strb	r2, [r3, #2]
	config->powersave    = false;
     762:	2300      	movs	r3, #0
     764:	aa0c      	add	r2, sp, #48	; 0x30
     766:	70d3      	strb	r3, [r2, #3]
		pin_config.mux_position = config->pins.wave_out_pin_mux[i];
     768:	0013      	movs	r3, r2
     76a:	2220      	movs	r2, #32
     76c:	18b2      	adds	r2, r6, r2
     76e:	7812      	ldrb	r2, [r2, #0]
     770:	701a      	strb	r2, [r3, #0]
		pin_config.direction = SYSTEM_PINMUX_PIN_DIR_OUTPUT;
     772:	464a      	mov	r2, r9
     774:	705a      	strb	r2, [r3, #1]
		system_pinmux_pin_set_config(
     776:	7830      	ldrb	r0, [r6, #0]
     778:	0019      	movs	r1, r3
     77a:	4b0b      	ldr	r3, [pc, #44]	; (7a8 <tcc_init+0x34c>)
     77c:	4798      	blx	r3
     77e:	e7e6      	b.n	74e <tcc_init+0x2f2>
     780:	000002dd 	.word	0x000002dd
     784:	40000400 	.word	0x40000400
     788:	000033b8 	.word	0x000033b8
     78c:	000033cc 	.word	0x000033cc
     790:	000033d8 	.word	0x000033d8
     794:	000033c4 	.word	0x000033c4
     798:	20000a54 	.word	0x20000a54
     79c:	000033c8 	.word	0x000033c8
     7a0:	00002d15 	.word	0x00002d15
     7a4:	00002c89 	.word	0x00002c89
     7a8:	00002e0d 	.word	0x00002e0d
     7ac:	4644      	mov	r4, r8
     7ae:	465d      	mov	r5, fp
	ctrla |= config->counter.reload_action << TCC_CTRLA_PRESCSYNC_Pos;
     7b0:	9b0a      	ldr	r3, [sp, #40]	; 0x28
     7b2:	031b      	lsls	r3, r3, #12
	ctrla |= config->counter.clock_prescaler << TCC_CTRLA_PRESCALER_Pos;
     7b4:	9a0b      	ldr	r2, [sp, #44]	; 0x2c
     7b6:	0212      	lsls	r2, r2, #8
     7b8:	4313      	orrs	r3, r2
     7ba:	9a02      	ldr	r2, [sp, #8]
     7bc:	4313      	orrs	r3, r2
	hw->CTRLA.reg = ctrla;
     7be:	6023      	str	r3, [r4, #0]
	while (hw->SYNCBUSY.reg & TCC_SYNCBUSY_CTRLB) {
     7c0:	2204      	movs	r2, #4
     7c2:	68a3      	ldr	r3, [r4, #8]
     7c4:	421a      	tst	r2, r3
     7c6:	d1fc      	bne.n	7c2 <tcc_init+0x366>
	hw->CTRLBCLR.reg = 0xFF;
     7c8:	23ff      	movs	r3, #255	; 0xff
     7ca:	7123      	strb	r3, [r4, #4]
	while (hw->SYNCBUSY.reg & TCC_SYNCBUSY_CTRLB) {
     7cc:	2204      	movs	r2, #4
     7ce:	68a3      	ldr	r3, [r4, #8]
     7d0:	421a      	tst	r2, r3
     7d2:	d1fc      	bne.n	7ce <tcc_init+0x372>
	hw->CTRLBSET.reg = ctrlb;
     7d4:	466b      	mov	r3, sp
     7d6:	7e1b      	ldrb	r3, [r3, #24]
     7d8:	7163      	strb	r3, [r4, #5]
	hw->FCTRLA.reg = faults[0];
     7da:	9b0e      	ldr	r3, [sp, #56]	; 0x38
     7dc:	60e3      	str	r3, [r4, #12]
	hw->FCTRLB.reg = faults[1];
     7de:	9b0f      	ldr	r3, [sp, #60]	; 0x3c
     7e0:	6123      	str	r3, [r4, #16]
	hw->DRVCTRL.reg = drvctrl;
     7e2:	61a7      	str	r7, [r4, #24]
	while (hw->SYNCBUSY.reg & (TCC_SYNCBUSY_WAVE | TCC_SYNCBUSY_WAVEB)) {
     7e4:	4a1d      	ldr	r2, [pc, #116]	; (85c <STACK_SIZE+0x5c>)
     7e6:	68a3      	ldr	r3, [r4, #8]
     7e8:	4213      	tst	r3, r2
     7ea:	d1fc      	bne.n	7e6 <tcc_init+0x38a>
	hw->WAVE.reg = waves[0];
     7ec:	4653      	mov	r3, sl
     7ee:	63e3      	str	r3, [r4, #60]	; 0x3c
	while (hw->SYNCBUSY.reg & TCC_SYNCBUSY_COUNT) {
     7f0:	2210      	movs	r2, #16
     7f2:	68a3      	ldr	r3, [r4, #8]
     7f4:	421a      	tst	r2, r3
     7f6:	d1fc      	bne.n	7f2 <tcc_init+0x396>
	hw->COUNT.reg = config->counter.count;
     7f8:	682b      	ldr	r3, [r5, #0]
     7fa:	6363      	str	r3, [r4, #52]	; 0x34
	while (hw->SYNCBUSY.reg & (TCC_SYNCBUSY_PER | TCC_SYNCBUSY_PERB)) {
     7fc:	4a18      	ldr	r2, [pc, #96]	; (860 <STACK_SIZE+0x60>)
     7fe:	68a3      	ldr	r3, [r4, #8]
     800:	4213      	tst	r3, r2
     802:	d1fc      	bne.n	7fe <tcc_init+0x3a2>
	hw->PER.reg = (config->counter.period);
     804:	686b      	ldr	r3, [r5, #4]
     806:	6423      	str	r3, [r4, #64]	; 0x40
	for (i = 0; i <  _tcc_cc_nums[module_index]; i ++) {
     808:	9805      	ldr	r0, [sp, #20]
     80a:	2800      	cmp	r0, #0
     80c:	dd22      	ble.n	854 <STACK_SIZE+0x54>
     80e:	351c      	adds	r5, #28
     810:	2100      	movs	r1, #0
			(TCC_SYNCBUSY_CC0 | TCC_SYNCBUSY_CCB0) << i)) {
     812:	4e14      	ldr	r6, [pc, #80]	; (864 <STACK_SIZE+0x64>)
     814:	0032      	movs	r2, r6
     816:	408a      	lsls	r2, r1
		while (hw->SYNCBUSY.reg & (
     818:	68a3      	ldr	r3, [r4, #8]
     81a:	421a      	tst	r2, r3
     81c:	d1fc      	bne.n	818 <STACK_SIZE+0x18>
		hw->CC[i].reg = (config->compare.match[i]);
     81e:	cd04      	ldmia	r5!, {r2}
     820:	000b      	movs	r3, r1
     822:	3310      	adds	r3, #16
     824:	009b      	lsls	r3, r3, #2
     826:	18e3      	adds	r3, r4, r3
     828:	605a      	str	r2, [r3, #4]
	for (i = 0; i <  _tcc_cc_nums[module_index]; i ++) {
     82a:	3101      	adds	r1, #1
     82c:	4288      	cmp	r0, r1
     82e:	dcf1      	bgt.n	814 <STACK_SIZE+0x14>
	return STATUS_OK;
     830:	2000      	movs	r0, #0
     832:	e62d      	b.n	490 <tcc_init+0x34>
			return STATUS_ERR_INVALID_ARG;
     834:	2017      	movs	r0, #23
     836:	e62b      	b.n	490 <tcc_init+0x34>
     838:	2017      	movs	r0, #23
     83a:	e629      	b.n	490 <tcc_init+0x34>
     83c:	2017      	movs	r0, #23
     83e:	e627      	b.n	490 <tcc_init+0x34>
     840:	2017      	movs	r0, #23
     842:	e625      	b.n	490 <tcc_init+0x34>
				return STATUS_ERR_INVALID_ARG;
     844:	2017      	movs	r0, #23
     846:	e623      	b.n	490 <tcc_init+0x34>
			if (i >= ow_num) {
     848:	2017      	movs	r0, #23
     84a:	e621      	b.n	490 <tcc_init+0x34>
			if (i >= ow_num) {
     84c:	2017      	movs	r0, #23
     84e:	e61f      	b.n	490 <tcc_init+0x34>
				return STATUS_ERR_INVALID_ARG;
     850:	2017      	movs	r0, #23
     852:	e61d      	b.n	490 <tcc_init+0x34>
	return STATUS_OK;
     854:	2000      	movs	r0, #0
     856:	e61b      	b.n	490 <tcc_init+0x34>
				return STATUS_ERR_INVALID_ARG;
     858:	2017      	movs	r0, #23
     85a:	e619      	b.n	490 <tcc_init+0x34>
     85c:	00020040 	.word	0x00020040
     860:	00040080 	.word	0x00040080
     864:	00080100 	.word	0x00080100

00000868 <_tcc_interrupt_handler>:
 * \param[in]  module_index  ID of the TCC instance calling the interrupt
 *                           handler
 */
void _tcc_interrupt_handler(
		uint8_t module_index)
{
     868:	b5f0      	push	{r4, r5, r6, r7, lr}
     86a:	46c6      	mov	lr, r8
     86c:	b500      	push	{lr}
	int i;

	uint32_t interrupt_and_callback_status_mask;

	struct tcc_module *module =
     86e:	0080      	lsls	r0, r0, #2
     870:	4b0e      	ldr	r3, [pc, #56]	; (8ac <_tcc_interrupt_handler+0x44>)
     872:	58c7      	ldr	r7, [r0, r3]
			(struct tcc_module *)_tcc_instances[module_index];

	interrupt_and_callback_status_mask = (module->hw->INTFLAG.reg &
     874:	683b      	ldr	r3, [r7, #0]
     876:	6ade      	ldr	r6, [r3, #44]	; 0x2c
     878:	6bbb      	ldr	r3, [r7, #56]	; 0x38
     87a:	6b7a      	ldr	r2, [r7, #52]	; 0x34
     87c:	4013      	ands	r3, r2
     87e:	401e      	ands	r6, r3
     880:	2400      	movs	r4, #0
			module->register_callback_mask &
			module->enable_callback_mask);

	/* Check if callback interrupt has occured */
	for (i = 0; i < TCC_CALLBACK_N; i ++) {
		if (interrupt_and_callback_status_mask & _tcc_intflag[i]) {
     882:	4b0b      	ldr	r3, [pc, #44]	; (8b0 <_tcc_interrupt_handler+0x48>)
     884:	4698      	mov	r8, r3
     886:	e002      	b.n	88e <_tcc_interrupt_handler+0x26>
     888:	3404      	adds	r4, #4
	for (i = 0; i < TCC_CALLBACK_N; i ++) {
     88a:	2c30      	cmp	r4, #48	; 0x30
     88c:	d00a      	beq.n	8a4 <_tcc_interrupt_handler+0x3c>
		if (interrupt_and_callback_status_mask & _tcc_intflag[i]) {
     88e:	4643      	mov	r3, r8
     890:	58e5      	ldr	r5, [r4, r3]
     892:	4235      	tst	r5, r6
     894:	d0f8      	beq.n	888 <_tcc_interrupt_handler+0x20>
			/* Invoke the registered and enabled callback function */
			(module->callback[i])(module);
     896:	193b      	adds	r3, r7, r4
     898:	685b      	ldr	r3, [r3, #4]
     89a:	0038      	movs	r0, r7
     89c:	4798      	blx	r3
			/* Clear interrupt flag */
			module->hw->INTFLAG.reg = _tcc_intflag[i];
     89e:	683b      	ldr	r3, [r7, #0]
     8a0:	62dd      	str	r5, [r3, #44]	; 0x2c
     8a2:	e7f1      	b.n	888 <_tcc_interrupt_handler+0x20>
		}
	}
}
     8a4:	bc04      	pop	{r2}
     8a6:	4690      	mov	r8, r2
     8a8:	bdf0      	pop	{r4, r5, r6, r7, pc}
     8aa:	46c0      	nop			; (mov r8, r8)
     8ac:	20000a54 	.word	0x20000a54
     8b0:	000033dc 	.word	0x000033dc

000008b4 <TCC0_Handler>:
MREPEAT(TCC_INST_NUM, _TCC_INTERRUPT_HANDLER, 0)
     8b4:	b510      	push	{r4, lr}
     8b6:	2000      	movs	r0, #0
     8b8:	4b01      	ldr	r3, [pc, #4]	; (8c0 <TCC0_Handler+0xc>)
     8ba:	4798      	blx	r3
     8bc:	bd10      	pop	{r4, pc}
     8be:	46c0      	nop			; (mov r8, r8)
     8c0:	00000869 	.word	0x00000869

000008c4 <TCC1_Handler>:
     8c4:	b510      	push	{r4, lr}
     8c6:	2001      	movs	r0, #1
     8c8:	4b01      	ldr	r3, [pc, #4]	; (8d0 <TCC1_Handler+0xc>)
     8ca:	4798      	blx	r3
     8cc:	bd10      	pop	{r4, pc}
     8ce:	46c0      	nop			; (mov r8, r8)
     8d0:	00000869 	.word	0x00000869

000008d4 <TCC2_Handler>:
     8d4:	b510      	push	{r4, lr}
     8d6:	2002      	movs	r0, #2
     8d8:	4b01      	ldr	r3, [pc, #4]	; (8e0 <TCC2_Handler+0xc>)
     8da:	4798      	blx	r3
     8dc:	bd10      	pop	{r4, pc}
     8de:	46c0      	nop			; (mov r8, r8)
     8e0:	00000869 	.word	0x00000869

000008e4 <_tc_interrupt_handler>:
 * \param[in]  instance  ID of the TC instance calling the interrupt
 *                       handler
 */
void _tc_interrupt_handler(
		uint8_t instance)
{
     8e4:	b570      	push	{r4, r5, r6, lr}
	/* Temporary variable */
	uint8_t interrupt_and_callback_status_mask;

	/* Get device instance from the look-up table */
	struct tc_module *module
     8e6:	0080      	lsls	r0, r0, #2
     8e8:	4b16      	ldr	r3, [pc, #88]	; (944 <_tc_interrupt_handler+0x60>)
     8ea:	58c4      	ldr	r4, [r0, r3]
			= (struct tc_module *)_tc_instances[instance];

	/* Read and mask interrupt flag register */
	interrupt_and_callback_status_mask = module->hw->COUNT8.INTFLAG.reg &
     8ec:	6823      	ldr	r3, [r4, #0]
     8ee:	7b9d      	ldrb	r5, [r3, #14]
     8f0:	7e22      	ldrb	r2, [r4, #24]
     8f2:	7e63      	ldrb	r3, [r4, #25]
     8f4:	4013      	ands	r3, r2
     8f6:	401d      	ands	r5, r3
			module->register_callback_mask &
			module->enable_callback_mask;

	/* Check if an Overflow interrupt has occurred */
	if (interrupt_and_callback_status_mask & TC_INTFLAG_OVF) {
     8f8:	07eb      	lsls	r3, r5, #31
     8fa:	d406      	bmi.n	90a <_tc_interrupt_handler+0x26>
		/* Clear interrupt flag */
		module->hw->COUNT8.INTFLAG.reg = TC_INTFLAG_OVF;
	}

	/* Check if an Error interrupt has occurred */
	if (interrupt_and_callback_status_mask & TC_INTFLAG_ERR) {
     8fc:	07ab      	lsls	r3, r5, #30
     8fe:	d40b      	bmi.n	918 <_tc_interrupt_handler+0x34>
		/* Clear interrupt flag */
		module->hw->COUNT8.INTFLAG.reg = TC_INTFLAG_ERR;
	}

	/* Check if an Match/Capture Channel 0 interrupt has occurred */
	if (interrupt_and_callback_status_mask & TC_INTFLAG_MC(1)) {
     900:	06eb      	lsls	r3, r5, #27
     902:	d410      	bmi.n	926 <_tc_interrupt_handler+0x42>
		/* Clear interrupt flag */
		module->hw->COUNT8.INTFLAG.reg = TC_INTFLAG_MC(1);
	}

	/* Check if an Match/Capture Channel 1 interrupt has occurred */
	if (interrupt_and_callback_status_mask & TC_INTFLAG_MC(2)) {
     904:	06ab      	lsls	r3, r5, #26
     906:	d415      	bmi.n	934 <_tc_interrupt_handler+0x50>
		/* Invoke registered and enabled callback function */
		(module->callback[TC_CALLBACK_CC_CHANNEL1])(module);
		/* Clear interrupt flag */
		module->hw->COUNT8.INTFLAG.reg = TC_INTFLAG_MC(2);
	}
}
     908:	bd70      	pop	{r4, r5, r6, pc}
		(module->callback[TC_CALLBACK_OVERFLOW])(module);
     90a:	0020      	movs	r0, r4
     90c:	68a3      	ldr	r3, [r4, #8]
     90e:	4798      	blx	r3
		module->hw->COUNT8.INTFLAG.reg = TC_INTFLAG_OVF;
     910:	2301      	movs	r3, #1
     912:	6822      	ldr	r2, [r4, #0]
     914:	7393      	strb	r3, [r2, #14]
     916:	e7f1      	b.n	8fc <_tc_interrupt_handler+0x18>
		(module->callback[TC_CALLBACK_ERROR])(module);
     918:	0020      	movs	r0, r4
     91a:	68e3      	ldr	r3, [r4, #12]
     91c:	4798      	blx	r3
		module->hw->COUNT8.INTFLAG.reg = TC_INTFLAG_ERR;
     91e:	2302      	movs	r3, #2
     920:	6822      	ldr	r2, [r4, #0]
     922:	7393      	strb	r3, [r2, #14]
     924:	e7ec      	b.n	900 <_tc_interrupt_handler+0x1c>
		(module->callback[TC_CALLBACK_CC_CHANNEL0])(module);
     926:	0020      	movs	r0, r4
     928:	6923      	ldr	r3, [r4, #16]
     92a:	4798      	blx	r3
		module->hw->COUNT8.INTFLAG.reg = TC_INTFLAG_MC(1);
     92c:	2310      	movs	r3, #16
     92e:	6822      	ldr	r2, [r4, #0]
     930:	7393      	strb	r3, [r2, #14]
     932:	e7e7      	b.n	904 <_tc_interrupt_handler+0x20>
		(module->callback[TC_CALLBACK_CC_CHANNEL1])(module);
     934:	0020      	movs	r0, r4
     936:	6963      	ldr	r3, [r4, #20]
     938:	4798      	blx	r3
		module->hw->COUNT8.INTFLAG.reg = TC_INTFLAG_MC(2);
     93a:	6823      	ldr	r3, [r4, #0]
     93c:	2220      	movs	r2, #32
     93e:	739a      	strb	r2, [r3, #14]
}
     940:	e7e2      	b.n	908 <_tc_interrupt_handler+0x24>
     942:	46c0      	nop			; (mov r8, r8)
     944:	20000a60 	.word	0x20000a60

00000948 <TC3_Handler>:
	MRECURSION(TC_INST_NUM, _TC_INTERRUPT_HANDLER, TC_INST_MAX_ID)
     948:	b510      	push	{r4, lr}
     94a:	2000      	movs	r0, #0
     94c:	4b01      	ldr	r3, [pc, #4]	; (954 <TC3_Handler+0xc>)
     94e:	4798      	blx	r3
     950:	bd10      	pop	{r4, pc}
     952:	46c0      	nop			; (mov r8, r8)
     954:	000008e5 	.word	0x000008e5

00000958 <TC4_Handler>:
     958:	b510      	push	{r4, lr}
     95a:	2001      	movs	r0, #1
     95c:	4b01      	ldr	r3, [pc, #4]	; (964 <TC4_Handler+0xc>)
     95e:	4798      	blx	r3
     960:	bd10      	pop	{r4, pc}
     962:	46c0      	nop			; (mov r8, r8)
     964:	000008e5 	.word	0x000008e5

00000968 <TC5_Handler>:
     968:	b510      	push	{r4, lr}
     96a:	2002      	movs	r0, #2
     96c:	4b01      	ldr	r3, [pc, #4]	; (974 <TC5_Handler+0xc>)
     96e:	4798      	blx	r3
     970:	bd10      	pop	{r4, pc}
     972:	46c0      	nop			; (mov r8, r8)
     974:	000008e5 	.word	0x000008e5

00000978 <USB_Handler>:

/**
 * \brief Interrupt handler for the USB module.
 */
void USB_Handler(void)
{
     978:	b5f0      	push	{r4, r5, r6, r7, lr}
     97a:	46de      	mov	lr, fp
     97c:	4657      	mov	r7, sl
     97e:	464e      	mov	r6, r9
     980:	4645      	mov	r5, r8
     982:	b5e0      	push	{r5, r6, r7, lr}
     984:	b083      	sub	sp, #12
	if (_usb_instances->hw->DEVICE.CTRLA.bit.MODE) {
     986:	4bc2      	ldr	r3, [pc, #776]	; (c90 <USB_Handler+0x318>)
     988:	681f      	ldr	r7, [r3, #0]
     98a:	683d      	ldr	r5, [r7, #0]
     98c:	782b      	ldrb	r3, [r5, #0]
     98e:	09db      	lsrs	r3, r3, #7
     990:	d114      	bne.n	9bc <USB_Handler+0x44>
	ep_inst = _usb_instances->hw->DEVICE.EPINTSMRY.reg;
     992:	8c2e      	ldrh	r6, [r5, #32]
     994:	b2b6      	uxth	r6, r6
	if (0 == ep_inst) {
     996:	2e00      	cmp	r6, #0
     998:	d000      	beq.n	99c <USB_Handler+0x24>
     99a:	e1a9      	b.n	cf0 <USB_Handler+0x378>
		flags = _usb_instances->hw->DEVICE.INTFLAG.reg;
     99c:	8bae      	ldrh	r6, [r5, #28]
     99e:	b2b6      	uxth	r6, r6
				_usb_instances->device_enabled_callback_mask &
     9a0:	23ab      	movs	r3, #171	; 0xab
     9a2:	005b      	lsls	r3, r3, #1
		flags_run = flags &
     9a4:	5afb      	ldrh	r3, [r7, r3]
     9a6:	22aa      	movs	r2, #170	; 0xaa
     9a8:	0052      	lsls	r2, r2, #1
     9aa:	5abd      	ldrh	r5, [r7, r2]
     9ac:	401d      	ands	r5, r3
     9ae:	4035      	ands	r5, r6
		for (i = 0; i < USB_DEVICE_CALLBACK_N; i ++) {
     9b0:	2400      	movs	r4, #0
			if (flags & _usb_device_irq_bits[i]) {
     9b2:	4fb8      	ldr	r7, [pc, #736]	; (c94 <USB_Handler+0x31c>)
				_usb_instances->hw->DEVICE.INTFLAG.reg =
     9b4:	4bb6      	ldr	r3, [pc, #728]	; (c90 <USB_Handler+0x318>)
     9b6:	4699      	mov	r9, r3
				(_usb_instances->device_callback[i])(_usb_instances, &device_callback_lpm_wakeup_enable);
     9b8:	4698      	mov	r8, r3
     9ba:	e184      	b.n	cc6 <USB_Handler+0x34e>
	pipe_int = ctz(_usb_instances->hw->HOST.PINTSMRY.reg);
     9bc:	8c2b      	ldrh	r3, [r5, #32]
     9be:	b29b      	uxth	r3, r3
     9c0:	2b00      	cmp	r3, #0
     9c2:	d100      	bne.n	9c6 <USB_Handler+0x4e>
     9c4:	e0de      	b.n	b84 <USB_Handler+0x20c>
     9c6:	8c28      	ldrh	r0, [r5, #32]
     9c8:	b280      	uxth	r0, r0
     9ca:	4bb3      	ldr	r3, [pc, #716]	; (c98 <USB_Handler+0x320>)
     9cc:	4798      	blx	r3
     9ce:	0004      	movs	r4, r0
	if (pipe_int < 32) {
     9d0:	281f      	cmp	r0, #31
     9d2:	d900      	bls.n	9d6 <USB_Handler+0x5e>
     9d4:	e0d6      	b.n	b84 <USB_Handler+0x20c>
		flags = _usb_instances->hw->HOST.HostPipe[pipe_int].PINTFLAG.reg;
     9d6:	0003      	movs	r3, r0
     9d8:	3308      	adds	r3, #8
     9da:	015b      	lsls	r3, r3, #5
     9dc:	18ed      	adds	r5, r5, r3
     9de:	79ed      	ldrb	r5, [r5, #7]
     9e0:	b2ed      	uxtb	r5, r5
		if (flags & USB_HOST_PINTFLAG_TRCPT_Msk) {
     9e2:	07ab      	lsls	r3, r5, #30
     9e4:	d041      	beq.n	a6a <USB_Handler+0xf2>
			host_pipe_job_busy_status &= ~(1 << pipe_int);
     9e6:	4aad      	ldr	r2, [pc, #692]	; (c9c <USB_Handler+0x324>)
     9e8:	2301      	movs	r3, #1
     9ea:	4083      	lsls	r3, r0
     9ec:	6811      	ldr	r1, [r2, #0]
     9ee:	4399      	bics	r1, r3
     9f0:	6011      	str	r1, [r2, #0]
			_usb_instances->hw->HOST.HostPipe[pipe_int].PINTFLAG.reg =
     9f2:	0003      	movs	r3, r0
     9f4:	3308      	adds	r3, #8
     9f6:	015b      	lsls	r3, r3, #5
     9f8:	683a      	ldr	r2, [r7, #0]
     9fa:	4694      	mov	ip, r2
     9fc:	4463      	add	r3, ip
     9fe:	2203      	movs	r2, #3
     a00:	71da      	strb	r2, [r3, #7]
			if(_usb_instances->host_pipe_enabled_callback_mask[pipe_int] &
     a02:	183b      	adds	r3, r7, r0
     a04:	33ae      	adds	r3, #174	; 0xae
     a06:	781b      	ldrb	r3, [r3, #0]
     a08:	07db      	lsls	r3, r3, #31
     a0a:	d52e      	bpl.n	a6a <USB_Handler+0xf2>
				pipe_callback_para.pipe_num = pipe_int;
     a0c:	4ba4      	ldr	r3, [pc, #656]	; (ca0 <USB_Handler+0x328>)
     a0e:	7018      	strb	r0, [r3, #0]
				if (_usb_instances->hw->HOST.HostPipe[pipe_int].PCFG.bit.PTOKEN ==
     a10:	683a      	ldr	r2, [r7, #0]
     a12:	0003      	movs	r3, r0
     a14:	3308      	adds	r3, #8
     a16:	015b      	lsls	r3, r3, #5
     a18:	5c9b      	ldrb	r3, [r3, r2]
     a1a:	079b      	lsls	r3, r3, #30
     a1c:	0f9b      	lsrs	r3, r3, #30
     a1e:	2b01      	cmp	r3, #1
     a20:	d100      	bne.n	a24 <USB_Handler+0xac>
     a22:	e081      	b.n	b28 <USB_Handler+0x1b0>
					pipe_callback_para.transfered_size = usb_descriptor_table.usb_pipe_table[pipe_int].HostDescBank[0].PCKSIZE.bit.MULTI_PACKET_SIZE;
     a24:	0142      	lsls	r2, r0, #5
     a26:	4b9f      	ldr	r3, [pc, #636]	; (ca4 <USB_Handler+0x32c>)
     a28:	189b      	adds	r3, r3, r2
     a2a:	685a      	ldr	r2, [r3, #4]
     a2c:	0112      	lsls	r2, r2, #4
     a2e:	0c92      	lsrs	r2, r2, #18
     a30:	b290      	uxth	r0, r2
     a32:	499b      	ldr	r1, [pc, #620]	; (ca0 <USB_Handler+0x328>)
     a34:	804a      	strh	r2, [r1, #2]
					pipe_callback_para.required_size = usb_descriptor_table.usb_pipe_table[pipe_int].HostDescBank[0].PCKSIZE.bit.BYTE_COUNT;
     a36:	685a      	ldr	r2, [r3, #4]
     a38:	0492      	lsls	r2, r2, #18
     a3a:	0c92      	lsrs	r2, r2, #18
     a3c:	808a      	strh	r2, [r1, #4]
					usb_descriptor_table.usb_pipe_table[pipe_int].HostDescBank[0].PCKSIZE.bit.MULTI_PACKET_SIZE = 0;
     a3e:	685a      	ldr	r2, [r3, #4]
     a40:	4999      	ldr	r1, [pc, #612]	; (ca8 <USB_Handler+0x330>)
     a42:	400a      	ands	r2, r1
     a44:	605a      	str	r2, [r3, #4]
					if (0 == pipe_callback_para.transfered_size) {
     a46:	2800      	cmp	r0, #0
     a48:	d107      	bne.n	a5a <USB_Handler+0xe2>
						pipe_callback_para.transfered_size = usb_descriptor_table.usb_pipe_table[pipe_int].HostDescBank[0].PCKSIZE.bit.BYTE_COUNT;
     a4a:	0162      	lsls	r2, r4, #5
     a4c:	4b95      	ldr	r3, [pc, #596]	; (ca4 <USB_Handler+0x32c>)
     a4e:	189b      	adds	r3, r3, r2
     a50:	685b      	ldr	r3, [r3, #4]
     a52:	049b      	lsls	r3, r3, #18
     a54:	0c9b      	lsrs	r3, r3, #18
     a56:	4a92      	ldr	r2, [pc, #584]	; (ca0 <USB_Handler+0x328>)
     a58:	8053      	strh	r3, [r2, #2]
				(_usb_instances->host_pipe_callback[pipe_int]
     a5a:	4b8d      	ldr	r3, [pc, #564]	; (c90 <USB_Handler+0x318>)
     a5c:	6818      	ldr	r0, [r3, #0]
						[USB_HOST_PIPE_CALLBACK_TRANSFER_COMPLETE])(_usb_instances, &pipe_callback_para);
     a5e:	1ca3      	adds	r3, r4, #2
     a60:	011b      	lsls	r3, r3, #4
     a62:	18c3      	adds	r3, r0, r3
     a64:	685b      	ldr	r3, [r3, #4]
     a66:	498e      	ldr	r1, [pc, #568]	; (ca0 <USB_Handler+0x328>)
     a68:	4798      	blx	r3
		if (flags & USB_HOST_PINTFLAG_TRFAIL) {
     a6a:	076b      	lsls	r3, r5, #29
     a6c:	d50e      	bpl.n	a8c <USB_Handler+0x114>
			host_pipe_job_busy_status &= ~(1 << pipe_int);
     a6e:	4a8b      	ldr	r2, [pc, #556]	; (c9c <USB_Handler+0x324>)
     a70:	2301      	movs	r3, #1
     a72:	40a3      	lsls	r3, r4
     a74:	6811      	ldr	r1, [r2, #0]
     a76:	4399      	bics	r1, r3
     a78:	6011      	str	r1, [r2, #0]
			_usb_instances->hw->HOST.HostPipe[pipe_int].PINTFLAG.reg =
     a7a:	4b85      	ldr	r3, [pc, #532]	; (c90 <USB_Handler+0x318>)
     a7c:	681b      	ldr	r3, [r3, #0]
     a7e:	681b      	ldr	r3, [r3, #0]
     a80:	0022      	movs	r2, r4
     a82:	3208      	adds	r2, #8
     a84:	0152      	lsls	r2, r2, #5
     a86:	189b      	adds	r3, r3, r2
     a88:	2204      	movs	r2, #4
     a8a:	71da      	strb	r2, [r3, #7]
		if (flags & USB_HOST_PINTFLAG_PERR) {
     a8c:	072b      	lsls	r3, r5, #28
     a8e:	d514      	bpl.n	aba <USB_Handler+0x142>
			host_pipe_job_busy_status &= ~(1 << pipe_int);
     a90:	4a82      	ldr	r2, [pc, #520]	; (c9c <USB_Handler+0x324>)
     a92:	2301      	movs	r3, #1
     a94:	40a3      	lsls	r3, r4
     a96:	6811      	ldr	r1, [r2, #0]
     a98:	4399      	bics	r1, r3
     a9a:	6011      	str	r1, [r2, #0]
			_usb_instances->hw->HOST.HostPipe[pipe_int].PINTFLAG.reg =
     a9c:	4b7c      	ldr	r3, [pc, #496]	; (c90 <USB_Handler+0x318>)
     a9e:	6818      	ldr	r0, [r3, #0]
     aa0:	0023      	movs	r3, r4
     aa2:	3308      	adds	r3, #8
     aa4:	015b      	lsls	r3, r3, #5
     aa6:	6802      	ldr	r2, [r0, #0]
     aa8:	4694      	mov	ip, r2
     aaa:	4463      	add	r3, ip
     aac:	2208      	movs	r2, #8
     aae:	71da      	strb	r2, [r3, #7]
			if(_usb_instances->host_pipe_enabled_callback_mask[pipe_int] &
     ab0:	1903      	adds	r3, r0, r4
     ab2:	33ae      	adds	r3, #174	; 0xae
     ab4:	781b      	ldrb	r3, [r3, #0]
     ab6:	079b      	lsls	r3, r3, #30
     ab8:	d447      	bmi.n	b4a <USB_Handler+0x1d2>
		if (flags & USB_HOST_PINTFLAG_TXSTP) {
     aba:	06eb      	lsls	r3, r5, #27
     abc:	d514      	bpl.n	ae8 <USB_Handler+0x170>
			host_pipe_job_busy_status &= ~(1 << pipe_int);
     abe:	4a77      	ldr	r2, [pc, #476]	; (c9c <USB_Handler+0x324>)
     ac0:	2301      	movs	r3, #1
     ac2:	40a3      	lsls	r3, r4
     ac4:	6811      	ldr	r1, [r2, #0]
     ac6:	4399      	bics	r1, r3
     ac8:	6011      	str	r1, [r2, #0]
			_usb_instances->hw->HOST.HostPipe[pipe_int].PINTFLAG.reg =
     aca:	4b71      	ldr	r3, [pc, #452]	; (c90 <USB_Handler+0x318>)
     acc:	6818      	ldr	r0, [r3, #0]
     ace:	0023      	movs	r3, r4
     ad0:	3308      	adds	r3, #8
     ad2:	015b      	lsls	r3, r3, #5
     ad4:	6802      	ldr	r2, [r0, #0]
     ad6:	4694      	mov	ip, r2
     ad8:	4463      	add	r3, ip
     ada:	2210      	movs	r2, #16
     adc:	71da      	strb	r2, [r3, #7]
			if(_usb_instances->host_pipe_enabled_callback_mask[pipe_int] &
     ade:	1903      	adds	r3, r0, r4
     ae0:	33ae      	adds	r3, #174	; 0xae
     ae2:	781b      	ldrb	r3, [r3, #0]
     ae4:	075b      	lsls	r3, r3, #29
     ae6:	d43e      	bmi.n	b66 <USB_Handler+0x1ee>
		if (flags & USB_HOST_PINTFLAG_STALL) {
     ae8:	06ab      	lsls	r3, r5, #26
     aea:	d400      	bmi.n	aee <USB_Handler+0x176>
     aec:	e0b0      	b.n	c50 <USB_Handler+0x2d8>
			host_pipe_job_busy_status &= ~(1 << pipe_int);
     aee:	4a6b      	ldr	r2, [pc, #428]	; (c9c <USB_Handler+0x324>)
     af0:	2301      	movs	r3, #1
     af2:	40a3      	lsls	r3, r4
     af4:	6811      	ldr	r1, [r2, #0]
     af6:	4399      	bics	r1, r3
     af8:	6011      	str	r1, [r2, #0]
			_usb_instances->hw->HOST.HostPipe[pipe_int].PINTFLAG.reg =
     afa:	4b65      	ldr	r3, [pc, #404]	; (c90 <USB_Handler+0x318>)
     afc:	6818      	ldr	r0, [r3, #0]
     afe:	0023      	movs	r3, r4
     b00:	3308      	adds	r3, #8
     b02:	015b      	lsls	r3, r3, #5
     b04:	6802      	ldr	r2, [r0, #0]
     b06:	4694      	mov	ip, r2
     b08:	4463      	add	r3, ip
     b0a:	2220      	movs	r2, #32
     b0c:	71da      	strb	r2, [r3, #7]
			if(_usb_instances->host_pipe_enabled_callback_mask[pipe_int] &
     b0e:	1903      	adds	r3, r0, r4
     b10:	33ae      	adds	r3, #174	; 0xae
     b12:	781b      	ldrb	r3, [r3, #0]
     b14:	071b      	lsls	r3, r3, #28
     b16:	d400      	bmi.n	b1a <USB_Handler+0x1a2>
     b18:	e09a      	b.n	c50 <USB_Handler+0x2d8>
				pipe_callback_para.pipe_num = pipe_int;
     b1a:	4961      	ldr	r1, [pc, #388]	; (ca0 <USB_Handler+0x328>)
     b1c:	700c      	strb	r4, [r1, #0]
						[USB_HOST_PIPE_CALLBACK_STALL])(_usb_instances, &pipe_callback_para);
     b1e:	0124      	lsls	r4, r4, #4
     b20:	1904      	adds	r4, r0, r4
     b22:	6b23      	ldr	r3, [r4, #48]	; 0x30
     b24:	4798      	blx	r3
     b26:	e093      	b.n	c50 <USB_Handler+0x2d8>
					pipe_callback_para.transfered_size = usb_descriptor_table.usb_pipe_table[pipe_int].HostDescBank[0].PCKSIZE.bit.BYTE_COUNT;
     b28:	0142      	lsls	r2, r0, #5
     b2a:	4b5e      	ldr	r3, [pc, #376]	; (ca4 <USB_Handler+0x32c>)
     b2c:	189b      	adds	r3, r3, r2
     b2e:	685a      	ldr	r2, [r3, #4]
     b30:	0492      	lsls	r2, r2, #18
     b32:	0c92      	lsrs	r2, r2, #18
     b34:	495a      	ldr	r1, [pc, #360]	; (ca0 <USB_Handler+0x328>)
     b36:	804a      	strh	r2, [r1, #2]
					pipe_callback_para.required_size = usb_descriptor_table.usb_pipe_table[pipe_int].HostDescBank[0].PCKSIZE.bit.MULTI_PACKET_SIZE;
     b38:	685a      	ldr	r2, [r3, #4]
     b3a:	0112      	lsls	r2, r2, #4
     b3c:	0c92      	lsrs	r2, r2, #18
     b3e:	808a      	strh	r2, [r1, #4]
					usb_descriptor_table.usb_pipe_table[pipe_int].HostDescBank[0].PCKSIZE.bit.BYTE_COUNT = 0;
     b40:	685a      	ldr	r2, [r3, #4]
     b42:	0b92      	lsrs	r2, r2, #14
     b44:	0392      	lsls	r2, r2, #14
     b46:	605a      	str	r2, [r3, #4]
     b48:	e787      	b.n	a5a <USB_Handler+0xe2>
				pipe_callback_para.pipe_num = pipe_int;
     b4a:	4955      	ldr	r1, [pc, #340]	; (ca0 <USB_Handler+0x328>)
     b4c:	700c      	strb	r4, [r1, #0]
						usb_descriptor_table.usb_pipe_table[pipe_int].HostDescBank[0].STATUS_PIPE.reg & 0x1F;
     b4e:	0162      	lsls	r2, r4, #5
     b50:	4b54      	ldr	r3, [pc, #336]	; (ca4 <USB_Handler+0x32c>)
     b52:	189b      	adds	r3, r3, r2
     b54:	89db      	ldrh	r3, [r3, #14]
     b56:	221f      	movs	r2, #31
     b58:	4013      	ands	r3, r2
				pipe_callback_para.pipe_error_status =
     b5a:	704b      	strb	r3, [r1, #1]
						[USB_HOST_PIPE_CALLBACK_ERROR])(_usb_instances, &pipe_callback_para);
     b5c:	0123      	lsls	r3, r4, #4
     b5e:	18c3      	adds	r3, r0, r3
     b60:	6a9b      	ldr	r3, [r3, #40]	; 0x28
     b62:	4798      	blx	r3
     b64:	e7a9      	b.n	aba <USB_Handler+0x142>
				pipe_callback_para.pipe_num = pipe_int;
     b66:	494e      	ldr	r1, [pc, #312]	; (ca0 <USB_Handler+0x328>)
     b68:	700c      	strb	r4, [r1, #0]
				pipe_callback_para.transfered_size = usb_descriptor_table.usb_pipe_table[pipe_int].HostDescBank[0].PCKSIZE.bit.MULTI_PACKET_SIZE;
     b6a:	0162      	lsls	r2, r4, #5
     b6c:	4b4d      	ldr	r3, [pc, #308]	; (ca4 <USB_Handler+0x32c>)
     b6e:	189b      	adds	r3, r3, r2
     b70:	685b      	ldr	r3, [r3, #4]
     b72:	011b      	lsls	r3, r3, #4
     b74:	0c9b      	lsrs	r3, r3, #18
     b76:	804b      	strh	r3, [r1, #2]
						[USB_HOST_PIPE_CALLBACK_SETUP])(_usb_instances, NULL);
     b78:	0123      	lsls	r3, r4, #4
     b7a:	18c3      	adds	r3, r0, r3
     b7c:	6adb      	ldr	r3, [r3, #44]	; 0x2c
     b7e:	2100      	movs	r1, #0
     b80:	4798      	blx	r3
     b82:	e7b1      	b.n	ae8 <USB_Handler+0x170>
		flags = _usb_instances->hw->HOST.INTFLAG.reg;
     b84:	8bac      	ldrh	r4, [r5, #28]
     b86:	b2a4      	uxth	r4, r4
		if (flags & USB_HOST_INTFLAG_HSOF) {
     b88:	0763      	lsls	r3, r4, #29
     b8a:	d505      	bpl.n	b98 <USB_Handler+0x220>
			_usb_instances->hw->HOST.INTFLAG.reg = USB_HOST_INTFLAG_HSOF;
     b8c:	2304      	movs	r3, #4
     b8e:	83ab      	strh	r3, [r5, #28]
			if(_usb_instances->host_enabled_callback_mask & (1 << USB_HOST_CALLBACK_SOF)) {
     b90:	33a1      	adds	r3, #161	; 0xa1
     b92:	5cfb      	ldrb	r3, [r7, r3]
     b94:	07db      	lsls	r3, r3, #31
     b96:	d462      	bmi.n	c5e <USB_Handler+0x2e6>
		if (flags & USB_HOST_INTFLAG_RST) {
     b98:	0723      	lsls	r3, r4, #28
     b9a:	d50b      	bpl.n	bb4 <USB_Handler+0x23c>
			host_pipe_job_busy_status = 0;
     b9c:	2200      	movs	r2, #0
     b9e:	4b3f      	ldr	r3, [pc, #252]	; (c9c <USB_Handler+0x324>)
     ba0:	601a      	str	r2, [r3, #0]
			_usb_instances->hw->HOST.INTFLAG.reg = USB_HOST_INTFLAG_RST;
     ba2:	4b3b      	ldr	r3, [pc, #236]	; (c90 <USB_Handler+0x318>)
     ba4:	6818      	ldr	r0, [r3, #0]
     ba6:	2308      	movs	r3, #8
     ba8:	6802      	ldr	r2, [r0, #0]
     baa:	8393      	strh	r3, [r2, #28]
			if(_usb_instances->host_enabled_callback_mask & (1 << USB_HOST_CALLBACK_RESET)) {
     bac:	339d      	adds	r3, #157	; 0x9d
     bae:	5cc3      	ldrb	r3, [r0, r3]
     bb0:	079b      	lsls	r3, r3, #30
     bb2:	d458      	bmi.n	c66 <USB_Handler+0x2ee>
		if (flags & USB_HOST_INTFLAG_UPRSM) {
     bb4:	0663      	lsls	r3, r4, #25
     bb6:	d508      	bpl.n	bca <USB_Handler+0x252>
			_usb_instances->hw->HOST.INTFLAG.reg = USB_HOST_INTFLAG_UPRSM;
     bb8:	4b35      	ldr	r3, [pc, #212]	; (c90 <USB_Handler+0x318>)
     bba:	6818      	ldr	r0, [r3, #0]
     bbc:	2340      	movs	r3, #64	; 0x40
     bbe:	6802      	ldr	r2, [r0, #0]
     bc0:	8393      	strh	r3, [r2, #28]
			if(_usb_instances->host_enabled_callback_mask & (1 << USB_HOST_CALLBACK_UPRSM)) {
     bc2:	3365      	adds	r3, #101	; 0x65
     bc4:	5cc3      	ldrb	r3, [r0, r3]
     bc6:	06db      	lsls	r3, r3, #27
     bc8:	d450      	bmi.n	c6c <USB_Handler+0x2f4>
		if (flags & USB_HOST_INTFLAG_DNRSM) {
     bca:	06a3      	lsls	r3, r4, #26
     bcc:	d508      	bpl.n	be0 <USB_Handler+0x268>
			_usb_instances->hw->HOST.INTFLAG.reg = USB_HOST_INTFLAG_DNRSM;
     bce:	4b30      	ldr	r3, [pc, #192]	; (c90 <USB_Handler+0x318>)
     bd0:	6818      	ldr	r0, [r3, #0]
     bd2:	2320      	movs	r3, #32
     bd4:	6802      	ldr	r2, [r0, #0]
     bd6:	8393      	strh	r3, [r2, #28]
			if(_usb_instances->host_enabled_callback_mask & (1 << USB_HOST_CALLBACK_DNRSM)) {
     bd8:	3385      	adds	r3, #133	; 0x85
     bda:	5cc3      	ldrb	r3, [r0, r3]
     bdc:	071b      	lsls	r3, r3, #28
     bde:	d448      	bmi.n	c72 <USB_Handler+0x2fa>
		if (flags & USB_HOST_INTFLAG_WAKEUP) {
     be0:	06e3      	lsls	r3, r4, #27
     be2:	d508      	bpl.n	bf6 <USB_Handler+0x27e>
			_usb_instances->hw->HOST.INTFLAG.reg = USB_HOST_INTFLAG_WAKEUP;
     be4:	4b2a      	ldr	r3, [pc, #168]	; (c90 <USB_Handler+0x318>)
     be6:	6818      	ldr	r0, [r3, #0]
     be8:	2310      	movs	r3, #16
     bea:	6802      	ldr	r2, [r0, #0]
     bec:	8393      	strh	r3, [r2, #28]
			if(_usb_instances->host_enabled_callback_mask & (1 << USB_HOST_CALLBACK_WAKEUP)) {
     bee:	3395      	adds	r3, #149	; 0x95
     bf0:	5cc3      	ldrb	r3, [r0, r3]
     bf2:	075b      	lsls	r3, r3, #29
     bf4:	d440      	bmi.n	c78 <USB_Handler+0x300>
		if (flags & USB_HOST_INTFLAG_RAMACER) {
     bf6:	0623      	lsls	r3, r4, #24
     bf8:	d50b      	bpl.n	c12 <USB_Handler+0x29a>
			host_pipe_job_busy_status = 0;
     bfa:	2200      	movs	r2, #0
     bfc:	4b27      	ldr	r3, [pc, #156]	; (c9c <USB_Handler+0x324>)
     bfe:	601a      	str	r2, [r3, #0]
			_usb_instances->hw->HOST.INTFLAG.reg = USB_HOST_INTFLAG_RAMACER;
     c00:	4b23      	ldr	r3, [pc, #140]	; (c90 <USB_Handler+0x318>)
     c02:	6818      	ldr	r0, [r3, #0]
     c04:	2380      	movs	r3, #128	; 0x80
     c06:	6802      	ldr	r2, [r0, #0]
     c08:	8393      	strh	r3, [r2, #28]
			if(_usb_instances->host_enabled_callback_mask & (1 << USB_HOST_CALLBACK_RAMACER)) {
     c0a:	3325      	adds	r3, #37	; 0x25
     c0c:	5cc3      	ldrb	r3, [r0, r3]
     c0e:	069b      	lsls	r3, r3, #26
     c10:	d435      	bmi.n	c7e <USB_Handler+0x306>
		if (flags & USB_HOST_INTFLAG_DCONN) {
     c12:	05e3      	lsls	r3, r4, #23
     c14:	d50c      	bpl.n	c30 <USB_Handler+0x2b8>
			host_pipe_job_busy_status = 0;
     c16:	2200      	movs	r2, #0
     c18:	4b20      	ldr	r3, [pc, #128]	; (c9c <USB_Handler+0x324>)
     c1a:	601a      	str	r2, [r3, #0]
			_usb_instances->hw->HOST.INTFLAG.reg = USB_HOST_INTFLAG_DCONN;
     c1c:	4b1c      	ldr	r3, [pc, #112]	; (c90 <USB_Handler+0x318>)
     c1e:	6818      	ldr	r0, [r3, #0]
     c20:	2380      	movs	r3, #128	; 0x80
     c22:	005b      	lsls	r3, r3, #1
     c24:	6802      	ldr	r2, [r0, #0]
     c26:	8393      	strh	r3, [r2, #28]
			if(_usb_instances->host_enabled_callback_mask & (1 << USB_HOST_CALLBACK_CONNECT)) {
     c28:	3b5b      	subs	r3, #91	; 0x5b
     c2a:	5cc3      	ldrb	r3, [r0, r3]
     c2c:	065b      	lsls	r3, r3, #25
     c2e:	d429      	bmi.n	c84 <USB_Handler+0x30c>
		if (flags & USB_HOST_INTFLAG_DDISC) {
     c30:	05a3      	lsls	r3, r4, #22
     c32:	d50d      	bpl.n	c50 <USB_Handler+0x2d8>
			host_pipe_job_busy_status = 0;
     c34:	2200      	movs	r2, #0
     c36:	4b19      	ldr	r3, [pc, #100]	; (c9c <USB_Handler+0x324>)
     c38:	601a      	str	r2, [r3, #0]
			_usb_instances->hw->HOST.INTFLAG.reg = USB_HOST_INTFLAG_DDISC;
     c3a:	4b15      	ldr	r3, [pc, #84]	; (c90 <USB_Handler+0x318>)
     c3c:	6818      	ldr	r0, [r3, #0]
     c3e:	2380      	movs	r3, #128	; 0x80
     c40:	009b      	lsls	r3, r3, #2
     c42:	6802      	ldr	r2, [r0, #0]
     c44:	8393      	strh	r3, [r2, #28]
			if(_usb_instances->host_enabled_callback_mask & (1 << USB_HOST_CALLBACK_DISCONNECT)) {
     c46:	3b5c      	subs	r3, #92	; 0x5c
     c48:	3bff      	subs	r3, #255	; 0xff
     c4a:	5cc3      	ldrb	r3, [r0, r3]
     c4c:	2b7f      	cmp	r3, #127	; 0x7f
     c4e:	d81c      	bhi.n	c8a <USB_Handler+0x312>
#endif
	} else {
		/*device mode ISR */
		_usb_device_interrupt_handler();
	}
}
     c50:	b003      	add	sp, #12
     c52:	bc3c      	pop	{r2, r3, r4, r5}
     c54:	4690      	mov	r8, r2
     c56:	4699      	mov	r9, r3
     c58:	46a2      	mov	sl, r4
     c5a:	46ab      	mov	fp, r5
     c5c:	bdf0      	pop	{r4, r5, r6, r7, pc}
				(_usb_instances->host_callback[USB_HOST_CALLBACK_SOF])(_usb_instances);
     c5e:	687b      	ldr	r3, [r7, #4]
     c60:	0038      	movs	r0, r7
     c62:	4798      	blx	r3
     c64:	e798      	b.n	b98 <USB_Handler+0x220>
				(_usb_instances->host_callback[USB_HOST_CALLBACK_RESET])(_usb_instances);
     c66:	6883      	ldr	r3, [r0, #8]
     c68:	4798      	blx	r3
     c6a:	e7a3      	b.n	bb4 <USB_Handler+0x23c>
				(_usb_instances->host_callback[USB_HOST_CALLBACK_UPRSM])(_usb_instances);
     c6c:	6943      	ldr	r3, [r0, #20]
     c6e:	4798      	blx	r3
     c70:	e7ab      	b.n	bca <USB_Handler+0x252>
				(_usb_instances->host_callback[USB_HOST_CALLBACK_DNRSM])(_usb_instances);
     c72:	6903      	ldr	r3, [r0, #16]
     c74:	4798      	blx	r3
     c76:	e7b3      	b.n	be0 <USB_Handler+0x268>
				(_usb_instances->host_callback[USB_HOST_CALLBACK_WAKEUP])(_usb_instances);
     c78:	68c3      	ldr	r3, [r0, #12]
     c7a:	4798      	blx	r3
     c7c:	e7bb      	b.n	bf6 <USB_Handler+0x27e>
				(_usb_instances->host_callback[USB_HOST_CALLBACK_RAMACER])(_usb_instances);
     c7e:	6983      	ldr	r3, [r0, #24]
     c80:	4798      	blx	r3
     c82:	e7c6      	b.n	c12 <USB_Handler+0x29a>
				(_usb_instances->host_callback[USB_HOST_CALLBACK_CONNECT])(_usb_instances);
     c84:	69c3      	ldr	r3, [r0, #28]
     c86:	4798      	blx	r3
     c88:	e7d2      	b.n	c30 <USB_Handler+0x2b8>
				(_usb_instances->host_callback[USB_HOST_CALLBACK_DISCONNECT])(_usb_instances);
     c8a:	6a03      	ldr	r3, [r0, #32]
     c8c:	4798      	blx	r3
     c8e:	e7df      	b.n	c50 <USB_Handler+0x2d8>
     c90:	200000b8 	.word	0x200000b8
     c94:	0000340c 	.word	0x0000340c
     c98:	000032e5 	.word	0x000032e5
     c9c:	200000c8 	.word	0x200000c8
     ca0:	200000cc 	.word	0x200000cc
     ca4:	20000a6c 	.word	0x20000a6c
     ca8:	f0003fff 	.word	0xf0003fff
				(_usb_instances->device_callback[i])(_usb_instances, &device_callback_lpm_wakeup_enable);
     cac:	0023      	movs	r3, r4
     cae:	332e      	adds	r3, #46	; 0x2e
     cb0:	009b      	lsls	r3, r3, #2
     cb2:	4642      	mov	r2, r8
     cb4:	6812      	ldr	r2, [r2, #0]
     cb6:	589b      	ldr	r3, [r3, r2]
     cb8:	499e      	ldr	r1, [pc, #632]	; (f34 <USB_Handler+0x5bc>)
     cba:	4642      	mov	r2, r8
     cbc:	6810      	ldr	r0, [r2, #0]
     cbe:	4798      	blx	r3
		for (i = 0; i < USB_DEVICE_CALLBACK_N; i ++) {
     cc0:	3401      	adds	r4, #1
     cc2:	2c07      	cmp	r4, #7
     cc4:	d0c4      	beq.n	c50 <USB_Handler+0x2d8>
			if (flags & _usb_device_irq_bits[i]) {
     cc6:	0063      	lsls	r3, r4, #1
     cc8:	5bdb      	ldrh	r3, [r3, r7]
     cca:	4233      	tst	r3, r6
     ccc:	d003      	beq.n	cd6 <USB_Handler+0x35e>
				_usb_instances->hw->DEVICE.INTFLAG.reg =
     cce:	464a      	mov	r2, r9
     cd0:	6812      	ldr	r2, [r2, #0]
     cd2:	6812      	ldr	r2, [r2, #0]
     cd4:	8393      	strh	r3, [r2, #28]
			if (flags_run & _usb_device_irq_bits[i]) {
     cd6:	422b      	tst	r3, r5
     cd8:	d0f2      	beq.n	cc0 <USB_Handler+0x348>
				if (i == USB_DEVICE_CALLBACK_LPMSUSP) {
     cda:	2c06      	cmp	r4, #6
     cdc:	d1e6      	bne.n	cac <USB_Handler+0x334>
							usb_descriptor_table.usb_endpoint_table[0].DeviceDescBank[0].EXTREG.bit.VARIABLE
     cde:	4b96      	ldr	r3, [pc, #600]	; (f38 <USB_Handler+0x5c0>)
     ce0:	891b      	ldrh	r3, [r3, #8]
     ce2:	091b      	lsrs	r3, r3, #4
							& USB_LPM_ATTRIBUT_REMOTEWAKE_MASK;
     ce4:	2280      	movs	r2, #128	; 0x80
     ce6:	0052      	lsls	r2, r2, #1
     ce8:	4013      	ands	r3, r2
     cea:	4a92      	ldr	r2, [pc, #584]	; (f34 <USB_Handler+0x5bc>)
     cec:	6013      	str	r3, [r2, #0]
     cee:	e7dd      	b.n	cac <USB_Handler+0x334>
     cf0:	003c      	movs	r4, r7
     cf2:	3459      	adds	r4, #89	; 0x59
     cf4:	34ff      	adds	r4, #255	; 0xff
	if (0 == ep_inst) {
     cf6:	2300      	movs	r3, #0
			if (ep_inst & (1 << i)) {
     cf8:	2201      	movs	r2, #1
     cfa:	4694      	mov	ip, r2
				if (flags & USB_DEVICE_EPINTFLAG_STALL_Msk) {
     cfc:	325f      	adds	r2, #95	; 0x5f
     cfe:	4691      	mov	r9, r2
				if (flags & USB_DEVICE_EPINTFLAG_RXSTP) {
     d00:	3a50      	subs	r2, #80	; 0x50
     d02:	4692      	mov	sl, r2
				if (flags & USB_DEVICE_EPINTFLAG_TRCPT_Msk) {
     d04:	3a0d      	subs	r2, #13
     d06:	4693      	mov	fp, r2
				if (flags & USB_DEVICE_EPINTFLAG_TRFAIL_Msk) {
     d08:	46b8      	mov	r8, r7
     d0a:	002f      	movs	r7, r5
     d0c:	e0b9      	b.n	e82 <USB_Handler+0x50a>
     d0e:	002a      	movs	r2, r5
     d10:	003d      	movs	r5, r7
     d12:	4647      	mov	r7, r8
     d14:	4690      	mov	r8, r2
     d16:	015b      	lsls	r3, r3, #5
     d18:	18ed      	adds	r5, r5, r3
					if (_usb_instances->hw->DEVICE.DeviceEndpoint[i].EPINTFLAG.reg & USB_DEVICE_EPINTFLAG_STALL1) {
     d1a:	2308      	movs	r3, #8
     d1c:	33ff      	adds	r3, #255	; 0xff
     d1e:	5ceb      	ldrb	r3, [r5, r3]
     d20:	065b      	lsls	r3, r3, #25
     d22:	d516      	bpl.n	d52 <USB_Handler+0x3da>
						_usb_instances->hw->DEVICE.DeviceEndpoint[i].EPINTFLAG.reg = USB_DEVICE_EPINTFLAG_STALL1;
     d24:	2240      	movs	r2, #64	; 0x40
     d26:	2308      	movs	r3, #8
     d28:	33ff      	adds	r3, #255	; 0xff
     d2a:	54ea      	strb	r2, [r5, r3]
						ep_callback_para.endpoint_address = USB_EP_DIR_IN | i;
     d2c:	3b88      	subs	r3, #136	; 0x88
     d2e:	3bff      	subs	r3, #255	; 0xff
     d30:	4642      	mov	r2, r8
     d32:	4313      	orrs	r3, r2
     d34:	4a81      	ldr	r2, [pc, #516]	; (f3c <USB_Handler+0x5c4>)
     d36:	7193      	strb	r3, [r2, #6]
					if (flags_run & USB_DEVICE_EPINTFLAG_STALL_Msk) {
     d38:	2360      	movs	r3, #96	; 0x60
     d3a:	420b      	tst	r3, r1
     d3c:	d100      	bne.n	d40 <USB_Handler+0x3c8>
     d3e:	e787      	b.n	c50 <USB_Handler+0x2d8>
						(_usb_instances->device_endpoint_callback[i][USB_DEVICE_ENDPOINT_CALLBACK_STALL])(_usb_instances,&ep_callback_para);
     d40:	9b01      	ldr	r3, [sp, #4]
     d42:	011b      	lsls	r3, r3, #4
     d44:	18fb      	adds	r3, r7, r3
     d46:	33e0      	adds	r3, #224	; 0xe0
     d48:	681b      	ldr	r3, [r3, #0]
     d4a:	497c      	ldr	r1, [pc, #496]	; (f3c <USB_Handler+0x5c4>)
     d4c:	0038      	movs	r0, r7
     d4e:	4798      	blx	r3
     d50:	e77e      	b.n	c50 <USB_Handler+0x2d8>
					} else if (_usb_instances->hw->DEVICE.DeviceEndpoint[i].EPINTFLAG.reg & USB_DEVICE_EPINTFLAG_STALL0) {
     d52:	2308      	movs	r3, #8
     d54:	33ff      	adds	r3, #255	; 0xff
     d56:	5ceb      	ldrb	r3, [r5, r3]
     d58:	069b      	lsls	r3, r3, #26
     d5a:	d5ed      	bpl.n	d38 <USB_Handler+0x3c0>
						_usb_instances->hw->DEVICE.DeviceEndpoint[i].EPINTFLAG.reg = USB_DEVICE_EPINTFLAG_STALL0;
     d5c:	2220      	movs	r2, #32
     d5e:	2308      	movs	r3, #8
     d60:	33ff      	adds	r3, #255	; 0xff
     d62:	54ea      	strb	r2, [r5, r3]
						ep_callback_para.endpoint_address = USB_EP_DIR_OUT | i;
     d64:	4b75      	ldr	r3, [pc, #468]	; (f3c <USB_Handler+0x5c4>)
     d66:	4642      	mov	r2, r8
     d68:	719a      	strb	r2, [r3, #6]
     d6a:	e7e5      	b.n	d38 <USB_Handler+0x3c0>
     d6c:	003d      	movs	r5, r7
     d6e:	4647      	mov	r7, r8
					_usb_instances->hw->DEVICE.DeviceEndpoint[i].EPINTFLAG.reg = USB_DEVICE_EPINTFLAG_RXSTP;
     d70:	9a01      	ldr	r2, [sp, #4]
     d72:	0013      	movs	r3, r2
     d74:	3308      	adds	r3, #8
     d76:	015b      	lsls	r3, r3, #5
     d78:	18ed      	adds	r5, r5, r3
     d7a:	2310      	movs	r3, #16
     d7c:	71eb      	strb	r3, [r5, #7]
					if(_usb_instances->device_endpoint_enabled_callback_mask[i] & _usb_endpoint_irq_bits[USB_DEVICE_ENDPOINT_CALLBACK_RXSTP]) {
     d7e:	18bb      	adds	r3, r7, r2
     d80:	3361      	adds	r3, #97	; 0x61
     d82:	33ff      	adds	r3, #255	; 0xff
     d84:	781b      	ldrb	r3, [r3, #0]
     d86:	06db      	lsls	r3, r3, #27
     d88:	d400      	bmi.n	d8c <USB_Handler+0x414>
     d8a:	e761      	b.n	c50 <USB_Handler+0x2d8>
						ep_callback_para.received_bytes = (uint16_t)(usb_descriptor_table.usb_endpoint_table[i].DeviceDescBank[0].PCKSIZE.bit.BYTE_COUNT);
     d8c:	0010      	movs	r0, r2
     d8e:	0152      	lsls	r2, r2, #5
     d90:	4b69      	ldr	r3, [pc, #420]	; (f38 <USB_Handler+0x5c0>)
     d92:	189b      	adds	r3, r3, r2
     d94:	685b      	ldr	r3, [r3, #4]
     d96:	049b      	lsls	r3, r3, #18
     d98:	0c9b      	lsrs	r3, r3, #18
     d9a:	4968      	ldr	r1, [pc, #416]	; (f3c <USB_Handler+0x5c4>)
     d9c:	800b      	strh	r3, [r1, #0]
						(_usb_instances->device_endpoint_callback[i][USB_DEVICE_ENDPOINT_CALLBACK_RXSTP])(_usb_instances,&ep_callback_para);
     d9e:	0103      	lsls	r3, r0, #4
     da0:	18fb      	adds	r3, r7, r3
     da2:	33dc      	adds	r3, #220	; 0xdc
     da4:	681b      	ldr	r3, [r3, #0]
     da6:	4640      	mov	r0, r8
     da8:	4798      	blx	r3
     daa:	e751      	b.n	c50 <USB_Handler+0x2d8>
     dac:	002a      	movs	r2, r5
     dae:	003d      	movs	r5, r7
     db0:	4647      	mov	r7, r8
     db2:	4690      	mov	r8, r2
     db4:	015b      	lsls	r3, r3, #5
     db6:	18ed      	adds	r5, r5, r3
					if (_usb_instances->hw->DEVICE.DeviceEndpoint[i].EPINTFLAG.reg & USB_DEVICE_EPINTFLAG_TRCPT1) {
     db8:	2308      	movs	r3, #8
     dba:	33ff      	adds	r3, #255	; 0xff
     dbc:	5ceb      	ldrb	r3, [r5, r3]
     dbe:	079b      	lsls	r3, r3, #30
     dc0:	d51e      	bpl.n	e00 <USB_Handler+0x488>
						_usb_instances->hw->DEVICE.DeviceEndpoint[i].EPINTFLAG.reg = USB_DEVICE_EPINTFLAG_TRCPT1;
     dc2:	2202      	movs	r2, #2
     dc4:	2308      	movs	r3, #8
     dc6:	33ff      	adds	r3, #255	; 0xff
     dc8:	54ea      	strb	r2, [r5, r3]
						ep_callback_para.endpoint_address = USB_EP_DIR_IN | i;
     dca:	485c      	ldr	r0, [pc, #368]	; (f3c <USB_Handler+0x5c4>)
     dcc:	3b88      	subs	r3, #136	; 0x88
     dce:	3bff      	subs	r3, #255	; 0xff
     dd0:	4642      	mov	r2, r8
     dd2:	4313      	orrs	r3, r2
     dd4:	7183      	strb	r3, [r0, #6]
						ep_callback_para.sent_bytes = (uint16_t)(usb_descriptor_table.usb_endpoint_table[i].DeviceDescBank[1].PCKSIZE.bit.BYTE_COUNT);
     dd6:	9b01      	ldr	r3, [sp, #4]
     dd8:	015a      	lsls	r2, r3, #5
     dda:	4b57      	ldr	r3, [pc, #348]	; (f38 <USB_Handler+0x5c0>)
     ddc:	189b      	adds	r3, r3, r2
     dde:	3310      	adds	r3, #16
     de0:	685b      	ldr	r3, [r3, #4]
     de2:	049b      	lsls	r3, r3, #18
     de4:	0c9b      	lsrs	r3, r3, #18
     de6:	8043      	strh	r3, [r0, #2]
					if(flags_run & USB_DEVICE_EPINTFLAG_TRCPT_Msk) {
     de8:	078b      	lsls	r3, r1, #30
     dea:	d100      	bne.n	dee <USB_Handler+0x476>
     dec:	e730      	b.n	c50 <USB_Handler+0x2d8>
						(_usb_instances->device_endpoint_callback[i][USB_DEVICE_ENDPOINT_CALLBACK_TRCPT])(_usb_instances,&ep_callback_para);
     dee:	9b01      	ldr	r3, [sp, #4]
     df0:	330d      	adds	r3, #13
     df2:	011b      	lsls	r3, r3, #4
     df4:	18fb      	adds	r3, r7, r3
     df6:	685b      	ldr	r3, [r3, #4]
     df8:	4950      	ldr	r1, [pc, #320]	; (f3c <USB_Handler+0x5c4>)
     dfa:	0038      	movs	r0, r7
     dfc:	4798      	blx	r3
     dfe:	e727      	b.n	c50 <USB_Handler+0x2d8>
					} else if (_usb_instances->hw->DEVICE.DeviceEndpoint[i].EPINTFLAG.reg & USB_DEVICE_EPINTFLAG_TRCPT0) {
     e00:	2308      	movs	r3, #8
     e02:	33ff      	adds	r3, #255	; 0xff
     e04:	5ceb      	ldrb	r3, [r5, r3]
     e06:	07db      	lsls	r3, r3, #31
     e08:	d5ee      	bpl.n	de8 <USB_Handler+0x470>
						_usb_instances->hw->DEVICE.DeviceEndpoint[i].EPINTFLAG.reg = USB_DEVICE_EPINTFLAG_TRCPT0;
     e0a:	2201      	movs	r2, #1
     e0c:	2308      	movs	r3, #8
     e0e:	33ff      	adds	r3, #255	; 0xff
     e10:	54ea      	strb	r2, [r5, r3]
						ep_callback_para.endpoint_address = USB_EP_DIR_OUT | i;
     e12:	484a      	ldr	r0, [pc, #296]	; (f3c <USB_Handler+0x5c4>)
     e14:	4643      	mov	r3, r8
     e16:	7183      	strb	r3, [r0, #6]
						ep_callback_para.received_bytes = (uint16_t)(usb_descriptor_table.usb_endpoint_table[i].DeviceDescBank[0].PCKSIZE.bit.BYTE_COUNT);
     e18:	9b01      	ldr	r3, [sp, #4]
     e1a:	015b      	lsls	r3, r3, #5
     e1c:	4a46      	ldr	r2, [pc, #280]	; (f38 <USB_Handler+0x5c0>)
     e1e:	18d2      	adds	r2, r2, r3
     e20:	6853      	ldr	r3, [r2, #4]
     e22:	049b      	lsls	r3, r3, #18
     e24:	0c9b      	lsrs	r3, r3, #18
     e26:	8003      	strh	r3, [r0, #0]
						ep_callback_para.out_buffer_size = (uint16_t)(usb_descriptor_table.usb_endpoint_table[i].DeviceDescBank[0].PCKSIZE.bit.MULTI_PACKET_SIZE);
     e28:	6853      	ldr	r3, [r2, #4]
     e2a:	011b      	lsls	r3, r3, #4
     e2c:	0c9b      	lsrs	r3, r3, #18
     e2e:	8083      	strh	r3, [r0, #4]
     e30:	e7da      	b.n	de8 <USB_Handler+0x470>
					} else if(_usb_instances->hw->DEVICE.DeviceEndpoint[i].EPINTFLAG.reg & USB_DEVICE_EPINTFLAG_TRFAIL0) {
     e32:	2208      	movs	r2, #8
     e34:	32ff      	adds	r2, #255	; 0xff
     e36:	5c9a      	ldrb	r2, [r3, r2]
     e38:	0752      	lsls	r2, r2, #29
     e3a:	d56e      	bpl.n	f1a <USB_Handler+0x5a2>
						_usb_instances->hw->DEVICE.DeviceEndpoint[i].EPINTFLAG.reg = USB_DEVICE_EPINTFLAG_TRFAIL0;
     e3c:	2004      	movs	r0, #4
     e3e:	2208      	movs	r2, #8
     e40:	32ff      	adds	r2, #255	; 0xff
     e42:	5498      	strb	r0, [r3, r2]
						if (usb_descriptor_table.usb_endpoint_table[i].DeviceDescBank[0].STATUS_BK.reg & USB_DEVICE_STATUS_BK_ERRORFLOW) {
     e44:	9801      	ldr	r0, [sp, #4]
     e46:	0142      	lsls	r2, r0, #5
     e48:	4b3b      	ldr	r3, [pc, #236]	; (f38 <USB_Handler+0x5c0>)
     e4a:	189b      	adds	r3, r3, r2
     e4c:	7a9b      	ldrb	r3, [r3, #10]
     e4e:	079b      	lsls	r3, r3, #30
     e50:	d505      	bpl.n	e5e <USB_Handler+0x4e6>
							usb_descriptor_table.usb_endpoint_table[i].DeviceDescBank[0].STATUS_BK.reg &= ~USB_DEVICE_STATUS_BK_ERRORFLOW;
     e52:	4b39      	ldr	r3, [pc, #228]	; (f38 <USB_Handler+0x5c0>)
     e54:	189b      	adds	r3, r3, r2
     e56:	7a9a      	ldrb	r2, [r3, #10]
     e58:	2002      	movs	r0, #2
     e5a:	4382      	bics	r2, r0
     e5c:	729a      	strb	r2, [r3, #10]
						ep_callback_para.endpoint_address = USB_EP_DIR_OUT | i;
     e5e:	4b37      	ldr	r3, [pc, #220]	; (f3c <USB_Handler+0x5c4>)
     e60:	4642      	mov	r2, r8
     e62:	719a      	strb	r2, [r3, #6]
						if (_usb_instances->hw->DEVICE.DeviceEndpoint[i].EPINTFLAG.reg & USB_DEVICE_EPINTFLAG_TRCPT0) {
     e64:	9b01      	ldr	r3, [sp, #4]
     e66:	3308      	adds	r3, #8
     e68:	015b      	lsls	r3, r3, #5
     e6a:	683a      	ldr	r2, [r7, #0]
     e6c:	4694      	mov	ip, r2
     e6e:	4463      	add	r3, ip
     e70:	79db      	ldrb	r3, [r3, #7]
     e72:	07db      	lsls	r3, r3, #31
     e74:	d551      	bpl.n	f1a <USB_Handler+0x5a2>
     e76:	e6eb      	b.n	c50 <USB_Handler+0x2d8>
     e78:	3301      	adds	r3, #1
     e7a:	3401      	adds	r4, #1
		for (uint8_t i = 0; i < USB_EPT_NUM; i++) {
     e7c:	2b08      	cmp	r3, #8
     e7e:	d100      	bne.n	e82 <USB_Handler+0x50a>
     e80:	e6e6      	b.n	c50 <USB_Handler+0x2d8>
     e82:	b2dd      	uxtb	r5, r3
			if (ep_inst & (1 << i)) {
     e84:	9301      	str	r3, [sp, #4]
     e86:	0032      	movs	r2, r6
     e88:	411a      	asrs	r2, r3
     e8a:	4661      	mov	r1, ip
     e8c:	4211      	tst	r1, r2
     e8e:	d0f3      	beq.n	e78 <USB_Handler+0x500>
				flags = _usb_instances->hw->DEVICE.DeviceEndpoint[i].EPINTFLAG.reg;
     e90:	001a      	movs	r2, r3
     e92:	3208      	adds	r2, #8
     e94:	0152      	lsls	r2, r2, #5
     e96:	18ba      	adds	r2, r7, r2
     e98:	79d2      	ldrb	r2, [r2, #7]
     e9a:	b2d2      	uxtb	r2, r2
     e9c:	7a21      	ldrb	r1, [r4, #8]
     e9e:	4011      	ands	r1, r2
     ea0:	7820      	ldrb	r0, [r4, #0]
     ea2:	4001      	ands	r1, r0
				if (flags & USB_DEVICE_EPINTFLAG_STALL_Msk) {
     ea4:	4648      	mov	r0, r9
     ea6:	4210      	tst	r0, r2
     ea8:	d000      	beq.n	eac <USB_Handler+0x534>
     eaa:	e730      	b.n	d0e <USB_Handler+0x396>
				if (flags & USB_DEVICE_EPINTFLAG_RXSTP) {
     eac:	4650      	mov	r0, sl
     eae:	4210      	tst	r0, r2
     eb0:	d000      	beq.n	eb4 <USB_Handler+0x53c>
     eb2:	e75b      	b.n	d6c <USB_Handler+0x3f4>
				if (flags & USB_DEVICE_EPINTFLAG_TRCPT_Msk) {
     eb4:	4658      	mov	r0, fp
     eb6:	4210      	tst	r0, r2
     eb8:	d000      	beq.n	ebc <USB_Handler+0x544>
     eba:	e777      	b.n	dac <USB_Handler+0x434>
				if (flags & USB_DEVICE_EPINTFLAG_TRFAIL_Msk) {
     ebc:	200c      	movs	r0, #12
     ebe:	4210      	tst	r0, r2
     ec0:	d0da      	beq.n	e78 <USB_Handler+0x500>
     ec2:	002a      	movs	r2, r5
     ec4:	003d      	movs	r5, r7
     ec6:	4647      	mov	r7, r8
     ec8:	4690      	mov	r8, r2
     eca:	015b      	lsls	r3, r3, #5
     ecc:	18eb      	adds	r3, r5, r3
					if (_usb_instances->hw->DEVICE.DeviceEndpoint[i].EPINTFLAG.reg & USB_DEVICE_EPINTFLAG_TRFAIL1) {
     ece:	2208      	movs	r2, #8
     ed0:	32ff      	adds	r2, #255	; 0xff
     ed2:	5c9a      	ldrb	r2, [r3, r2]
     ed4:	0712      	lsls	r2, r2, #28
     ed6:	d5ac      	bpl.n	e32 <USB_Handler+0x4ba>
						_usb_instances->hw->DEVICE.DeviceEndpoint[i].EPINTFLAG.reg = USB_DEVICE_EPINTFLAG_TRFAIL1;
     ed8:	3804      	subs	r0, #4
     eda:	2208      	movs	r2, #8
     edc:	32ff      	adds	r2, #255	; 0xff
     ede:	5498      	strb	r0, [r3, r2]
						if (usb_descriptor_table.usb_endpoint_table[i].DeviceDescBank[1].STATUS_BK.reg & USB_DEVICE_STATUS_BK_ERRORFLOW) {
     ee0:	9801      	ldr	r0, [sp, #4]
     ee2:	0142      	lsls	r2, r0, #5
     ee4:	4b14      	ldr	r3, [pc, #80]	; (f38 <USB_Handler+0x5c0>)
     ee6:	189b      	adds	r3, r3, r2
     ee8:	7e9b      	ldrb	r3, [r3, #26]
     eea:	079b      	lsls	r3, r3, #30
     eec:	d505      	bpl.n	efa <USB_Handler+0x582>
							usb_descriptor_table.usb_endpoint_table[i].DeviceDescBank[1].STATUS_BK.reg &= ~USB_DEVICE_STATUS_BK_ERRORFLOW;
     eee:	4b12      	ldr	r3, [pc, #72]	; (f38 <USB_Handler+0x5c0>)
     ef0:	189b      	adds	r3, r3, r2
     ef2:	7e9a      	ldrb	r2, [r3, #26]
     ef4:	2002      	movs	r0, #2
     ef6:	4382      	bics	r2, r0
     ef8:	769a      	strb	r2, [r3, #26]
						ep_callback_para.endpoint_address = USB_EP_DIR_IN | i;
     efa:	2380      	movs	r3, #128	; 0x80
     efc:	425b      	negs	r3, r3
     efe:	4642      	mov	r2, r8
     f00:	4313      	orrs	r3, r2
     f02:	4a0e      	ldr	r2, [pc, #56]	; (f3c <USB_Handler+0x5c4>)
     f04:	7193      	strb	r3, [r2, #6]
						if (_usb_instances->hw->DEVICE.DeviceEndpoint[i].EPINTFLAG.reg & USB_DEVICE_EPINTFLAG_TRCPT1) {
     f06:	9b01      	ldr	r3, [sp, #4]
     f08:	3308      	adds	r3, #8
     f0a:	015b      	lsls	r3, r3, #5
     f0c:	683a      	ldr	r2, [r7, #0]
     f0e:	4694      	mov	ip, r2
     f10:	4463      	add	r3, ip
     f12:	79db      	ldrb	r3, [r3, #7]
     f14:	079b      	lsls	r3, r3, #30
     f16:	d500      	bpl.n	f1a <USB_Handler+0x5a2>
     f18:	e69a      	b.n	c50 <USB_Handler+0x2d8>
					if(flags_run & USB_DEVICE_EPINTFLAG_TRFAIL_Msk) {
     f1a:	230c      	movs	r3, #12
     f1c:	420b      	tst	r3, r1
     f1e:	d100      	bne.n	f22 <USB_Handler+0x5aa>
     f20:	e696      	b.n	c50 <USB_Handler+0x2d8>
						(_usb_instances->device_endpoint_callback[i][USB_DEVICE_ENDPOINT_CALLBACK_TRFAIL])(_usb_instances,&ep_callback_para);
     f22:	9b01      	ldr	r3, [sp, #4]
     f24:	011b      	lsls	r3, r3, #4
     f26:	18fb      	adds	r3, r7, r3
     f28:	33d8      	adds	r3, #216	; 0xd8
     f2a:	681b      	ldr	r3, [r3, #0]
     f2c:	4903      	ldr	r1, [pc, #12]	; (f3c <USB_Handler+0x5c4>)
     f2e:	0038      	movs	r0, r7
     f30:	4798      	blx	r3
     f32:	e68d      	b.n	c50 <USB_Handler+0x2d8>
     f34:	200000bc 	.word	0x200000bc
     f38:	20000a6c 	.word	0x20000a6c
     f3c:	200000c0 	.word	0x200000c0

00000f40 <vPortStartFirstTask>:
void vPortStartFirstTask( void )
{
	/* The MSP stack is not reset as, unlike on M3/4 parts, there is no vector
	table offset register that can be used to locate the initial stack value.
	Not all M0 parts have the application vector table at address 0. */
	__asm volatile(
     f40:	4a06      	ldr	r2, [pc, #24]	; (f5c <pxCurrentTCBConst3>)
     f42:	6813      	ldr	r3, [r2, #0]
     f44:	6818      	ldr	r0, [r3, #0]
     f46:	3020      	adds	r0, #32
     f48:	f380 8809 	msr	PSP, r0
     f4c:	2002      	movs	r0, #2
     f4e:	f380 8814 	msr	CONTROL, r0
     f52:	bc3f      	pop	{r0, r1, r2, r3, r4, r5}
     f54:	46ae      	mov	lr, r5
     f56:	b662      	cpsie	i
     f58:	bd00      	pop	{pc}
     f5a:	46c0      	nop			; (mov r8, r8)

00000f5c <pxCurrentTCBConst3>:
     f5c:	200008b8 	.word	0x200008b8

00000f60 <pxPortInitialiseStack>:
{
     f60:	b510      	push	{r4, lr}
	*pxTopOfStack = portINITIAL_XPSR;	/* xPSR */
     f62:	1f03      	subs	r3, r0, #4
     f64:	2480      	movs	r4, #128	; 0x80
     f66:	0464      	lsls	r4, r4, #17
     f68:	601c      	str	r4, [r3, #0]
	*pxTopOfStack = ( portSTACK_TYPE ) pxCode;	/* PC */
     f6a:	3b04      	subs	r3, #4
     f6c:	6019      	str	r1, [r3, #0]
	*pxTopOfStack = ( portSTACK_TYPE ) pvParameters;	/* R0 */
     f6e:	3b18      	subs	r3, #24
     f70:	601a      	str	r2, [r3, #0]
	pxTopOfStack -= 8; /* R11..R4. */
     f72:	3840      	subs	r0, #64	; 0x40
}
     f74:	bd10      	pop	{r4, pc}
	...

00000f78 <SVC_Handler>:
	__asm volatile (
     f78:	4b08      	ldr	r3, [pc, #32]	; (f9c <pxCurrentTCBConst2>)
     f7a:	6819      	ldr	r1, [r3, #0]
     f7c:	6808      	ldr	r0, [r1, #0]
     f7e:	3010      	adds	r0, #16
     f80:	c8f0      	ldmia	r0!, {r4, r5, r6, r7}
     f82:	46a0      	mov	r8, r4
     f84:	46a9      	mov	r9, r5
     f86:	46b2      	mov	sl, r6
     f88:	46bb      	mov	fp, r7
     f8a:	f380 8809 	msr	PSP, r0
     f8e:	3820      	subs	r0, #32
     f90:	c8f0      	ldmia	r0!, {r4, r5, r6, r7}
     f92:	4671      	mov	r1, lr
     f94:	200d      	movs	r0, #13
     f96:	4301      	orrs	r1, r0
     f98:	4708      	bx	r1
     f9a:	46c0      	nop			; (mov r8, r8)

00000f9c <pxCurrentTCBConst2>:
     f9c:	200008b8 	.word	0x200008b8

00000fa0 <vPortYield>:
/*-----------------------------------------------------------*/

void vPortYield( void )
{
	/* Set a PendSV to request a context switch. */
	*( portNVIC_INT_CTRL ) = portNVIC_PENDSVSET;
     fa0:	2280      	movs	r2, #128	; 0x80
     fa2:	0552      	lsls	r2, r2, #21
     fa4:	4b03      	ldr	r3, [pc, #12]	; (fb4 <vPortYield+0x14>)
     fa6:	601a      	str	r2, [r3, #0]

	/* Barriers are normally not required but do ensure the code is completely
	within the specified behaviour for the architecture. */
	__asm volatile( "dsb" );
     fa8:	f3bf 8f4f 	dsb	sy
	__asm volatile( "isb" );
     fac:	f3bf 8f6f 	isb	sy
}
     fb0:	4770      	bx	lr
     fb2:	46c0      	nop			; (mov r8, r8)
     fb4:	e000ed04 	.word	0xe000ed04

00000fb8 <vPortEnterCritical>:
/*-----------------------------------------------------------*/

void vPortEnterCritical( void )
{
    portDISABLE_INTERRUPTS();
     fb8:	b672      	cpsid	i
    uxCriticalNesting++;
     fba:	4a04      	ldr	r2, [pc, #16]	; (fcc <vPortEnterCritical+0x14>)
     fbc:	6813      	ldr	r3, [r2, #0]
     fbe:	3301      	adds	r3, #1
     fc0:	6013      	str	r3, [r2, #0]
	__asm volatile( "dsb" );
     fc2:	f3bf 8f4f 	dsb	sy
	__asm volatile( "isb" );
     fc6:	f3bf 8f6f 	isb	sy
}
     fca:	4770      	bx	lr
     fcc:	2000001c 	.word	0x2000001c

00000fd0 <vPortExitCritical>:
/*-----------------------------------------------------------*/

void vPortExitCritical( void )
{
    uxCriticalNesting--;
     fd0:	4a03      	ldr	r2, [pc, #12]	; (fe0 <vPortExitCritical+0x10>)
     fd2:	6813      	ldr	r3, [r2, #0]
     fd4:	3b01      	subs	r3, #1
     fd6:	6013      	str	r3, [r2, #0]
    if( uxCriticalNesting == 0 )
     fd8:	2b00      	cmp	r3, #0
     fda:	d100      	bne.n	fde <vPortExitCritical+0xe>
    {
        portENABLE_INTERRUPTS();
     fdc:	b662      	cpsie	i
    }
}
     fde:	4770      	bx	lr
     fe0:	2000001c 	.word	0x2000001c

00000fe4 <PendSV_Handler>:

void xPortPendSVHandler( void )
{
	/* This is a naked function. */

	__asm volatile
     fe4:	f3ef 8009 	mrs	r0, PSP
     fe8:	4b0e      	ldr	r3, [pc, #56]	; (1024 <pxCurrentTCBConst>)
     fea:	681a      	ldr	r2, [r3, #0]
     fec:	3820      	subs	r0, #32
     fee:	6010      	str	r0, [r2, #0]
     ff0:	c0f0      	stmia	r0!, {r4, r5, r6, r7}
     ff2:	4644      	mov	r4, r8
     ff4:	464d      	mov	r5, r9
     ff6:	4656      	mov	r6, sl
     ff8:	465f      	mov	r7, fp
     ffa:	c0f0      	stmia	r0!, {r4, r5, r6, r7}
     ffc:	b508      	push	{r3, lr}
     ffe:	b672      	cpsid	i
    1000:	f000 ff32 	bl	1e68 <vTaskSwitchContext>
    1004:	b662      	cpsie	i
    1006:	bc0c      	pop	{r2, r3}
    1008:	6811      	ldr	r1, [r2, #0]
    100a:	6808      	ldr	r0, [r1, #0]
    100c:	3010      	adds	r0, #16
    100e:	c8f0      	ldmia	r0!, {r4, r5, r6, r7}
    1010:	46a0      	mov	r8, r4
    1012:	46a9      	mov	r9, r5
    1014:	46b2      	mov	sl, r6
    1016:	46bb      	mov	fp, r7
    1018:	f380 8809 	msr	PSP, r0
    101c:	3820      	subs	r0, #32
    101e:	c8f0      	ldmia	r0!, {r4, r5, r6, r7}
    1020:	4718      	bx	r3
    1022:	46c0      	nop			; (mov r8, r8)

00001024 <pxCurrentTCBConst>:
    1024:	200008b8 	.word	0x200008b8

00001028 <SysTick_Handler>:
	);
}
/*-----------------------------------------------------------*/

void xPortSysTickHandler( void )
{
    1028:	b510      	push	{r4, lr}
unsigned long ulDummy;

	/* If using preemption, also force a context switch. */
	#if configUSE_PREEMPTION == 1
		*(portNVIC_INT_CTRL) = portNVIC_PENDSVSET;
    102a:	2280      	movs	r2, #128	; 0x80
    102c:	0552      	lsls	r2, r2, #21
    102e:	4b03      	ldr	r3, [pc, #12]	; (103c <SysTick_Handler+0x14>)
    1030:	601a      	str	r2, [r3, #0]
	#endif

	ulDummy = portSET_INTERRUPT_MASK_FROM_ISR();
    1032:	b672      	cpsid	i
	{
		vTaskIncrementTick();
    1034:	4b02      	ldr	r3, [pc, #8]	; (1040 <SysTick_Handler+0x18>)
    1036:	4798      	blx	r3
	}
	portCLEAR_INTERRUPT_MASK_FROM_ISR( ulDummy );
    1038:	b662      	cpsie	i
}
    103a:	bd10      	pop	{r4, pc}
    103c:	e000ed04 	.word	0xe000ed04
    1040:	00001b45 	.word	0x00001b45

00001044 <vPortSetupTimerInterrupt>:
 * frequency.
 */
__attribute__(( weak )) void vPortSetupTimerInterrupt( void )
{
	/* Configure SysTick to interrupt at the requested rate. */
	*(portNVIC_SYSTICK_VAL)  = 0; /* Load the SysTick Counter Value */
    1044:	2200      	movs	r2, #0
    1046:	4b04      	ldr	r3, [pc, #16]	; (1058 <vPortSetupTimerInterrupt+0x14>)
    1048:	601a      	str	r2, [r3, #0]
	*(portNVIC_SYSTICK_LOAD) = ( configCPU_CLOCK_HZ / configTICK_RATE_HZ ) - 1UL;
    104a:	4a04      	ldr	r2, [pc, #16]	; (105c <vPortSetupTimerInterrupt+0x18>)
    104c:	4b04      	ldr	r3, [pc, #16]	; (1060 <vPortSetupTimerInterrupt+0x1c>)
    104e:	601a      	str	r2, [r3, #0]
	*(portNVIC_SYSTICK_CTRL) = portNVIC_SYSTICK_CLK | portNVIC_SYSTICK_INT | portNVIC_SYSTICK_ENABLE;
    1050:	2207      	movs	r2, #7
    1052:	4b04      	ldr	r3, [pc, #16]	; (1064 <vPortSetupTimerInterrupt+0x20>)
    1054:	601a      	str	r2, [r3, #0]
}
    1056:	4770      	bx	lr
    1058:	e000e018 	.word	0xe000e018
    105c:	00001f3f 	.word	0x00001f3f
    1060:	e000e014 	.word	0xe000e014
    1064:	e000e010 	.word	0xe000e010

00001068 <xPortStartScheduler>:
{
    1068:	b510      	push	{r4, lr}
	*(portNVIC_SYSPRI2) |= portNVIC_PENDSV_PRI;
    106a:	4b0a      	ldr	r3, [pc, #40]	; (1094 <xPortStartScheduler+0x2c>)
    106c:	6819      	ldr	r1, [r3, #0]
    106e:	22ff      	movs	r2, #255	; 0xff
    1070:	0412      	lsls	r2, r2, #16
    1072:	430a      	orrs	r2, r1
    1074:	601a      	str	r2, [r3, #0]
	*(portNVIC_SYSPRI2) |= portNVIC_SYSTICK_PRI;
    1076:	6819      	ldr	r1, [r3, #0]
    1078:	22ff      	movs	r2, #255	; 0xff
    107a:	0612      	lsls	r2, r2, #24
    107c:	430a      	orrs	r2, r1
    107e:	601a      	str	r2, [r3, #0]
	vPortSetupTimerInterrupt();
    1080:	4b05      	ldr	r3, [pc, #20]	; (1098 <xPortStartScheduler+0x30>)
    1082:	4798      	blx	r3
	uxCriticalNesting = 0;
    1084:	2200      	movs	r2, #0
    1086:	4b05      	ldr	r3, [pc, #20]	; (109c <xPortStartScheduler+0x34>)
    1088:	601a      	str	r2, [r3, #0]
	vPortStartFirstTask();
    108a:	4b05      	ldr	r3, [pc, #20]	; (10a0 <xPortStartScheduler+0x38>)
    108c:	4798      	blx	r3
}
    108e:	2000      	movs	r0, #0
    1090:	bd10      	pop	{r4, pc}
    1092:	46c0      	nop			; (mov r8, r8)
    1094:	e000ed20 	.word	0xe000ed20
    1098:	00001045 	.word	0x00001045
    109c:	2000001c 	.word	0x2000001c
    10a0:	00000f41 	.word	0x00000f41

000010a4 <pvPortMalloc>:
	pxIterator->pxNextFreeBlock = pxBlockToInsert;									\
}
/*-----------------------------------------------------------*/

void *pvPortMalloc( size_t xWantedSize )
{
    10a4:	b570      	push	{r4, r5, r6, lr}
    10a6:	0004      	movs	r4, r0
xBlockLink *pxBlock, *pxPreviousBlock, *pxNewBlockLink;
static portBASE_TYPE xHeapHasBeenInitialised = pdFALSE;
void *pvReturn = NULL;

	vTaskSuspendAll();
    10a8:	4b2a      	ldr	r3, [pc, #168]	; (1154 <pvPortMalloc+0xb0>)
    10aa:	4798      	blx	r3
	{
		/* If this is the first call to malloc then the heap will require
		initialisation to setup the list of free blocks. */
		if( xHeapHasBeenInitialised == pdFALSE )
    10ac:	4b2a      	ldr	r3, [pc, #168]	; (1158 <pvPortMalloc+0xb4>)
    10ae:	681b      	ldr	r3, [r3, #0]
    10b0:	2b00      	cmp	r3, #0
    10b2:	d011      	beq.n	10d8 <pvPortMalloc+0x34>
void *pvReturn = NULL;
    10b4:	2500      	movs	r5, #0
			xHeapHasBeenInitialised = pdTRUE;
		}

		/* The wanted size is increased so it can contain a xBlockLink
		structure in addition to the requested amount of bytes. */
		if( xWantedSize > 0 )
    10b6:	2c00      	cmp	r4, #0
    10b8:	d046      	beq.n	1148 <pvPortMalloc+0xa4>
		{
			xWantedSize += heapSTRUCT_SIZE;
    10ba:	0020      	movs	r0, r4
    10bc:	3010      	adds	r0, #16

			/* Ensure that blocks are always aligned to the required number of bytes. */
			if( xWantedSize & portBYTE_ALIGNMENT_MASK )
    10be:	0743      	lsls	r3, r0, #29
    10c0:	d002      	beq.n	10c8 <pvPortMalloc+0x24>
			{
				/* Byte alignment required. */
				xWantedSize += ( portBYTE_ALIGNMENT - ( xWantedSize & portBYTE_ALIGNMENT_MASK ) );
    10c2:	2307      	movs	r3, #7
    10c4:	4398      	bics	r0, r3
    10c6:	3008      	adds	r0, #8
			}
		}

		if( ( xWantedSize > 0 ) && ( xWantedSize < configADJUSTED_HEAP_SIZE ) )
    10c8:	1e43      	subs	r3, r0, #1
    10ca:	4a24      	ldr	r2, [pc, #144]	; (115c <pvPortMalloc+0xb8>)
void *pvReturn = NULL;
    10cc:	2500      	movs	r5, #0
		if( ( xWantedSize > 0 ) && ( xWantedSize < configADJUSTED_HEAP_SIZE ) )
    10ce:	4293      	cmp	r3, r2
    10d0:	d83a      	bhi.n	1148 <pvPortMalloc+0xa4>
		{
			/* Blocks are stored in byte order - traverse the list from the start
			(smallest) block until one of adequate size is found. */
			pxPreviousBlock = &xStart;
			pxBlock = xStart.pxNextFreeBlock;
    10d2:	4923      	ldr	r1, [pc, #140]	; (1160 <pvPortMalloc+0xbc>)
    10d4:	680b      	ldr	r3, [r1, #0]
			while( ( pxBlock->xBlockSize < xWantedSize ) && ( pxBlock->pxNextFreeBlock != NULL ) )
    10d6:	e014      	b.n	1102 <pvPortMalloc+0x5e>
{
xBlockLink *pxFirstFreeBlock;
unsigned char *pucAlignedHeap;

	/* Ensure the heap starts on a correctly aligned boundary. */
	pucAlignedHeap = ( unsigned char * ) ( ( ( portPOINTER_SIZE_TYPE ) &ucHeap[ portBYTE_ALIGNMENT ] ) & ( ( portPOINTER_SIZE_TYPE ) ~portBYTE_ALIGNMENT_MASK ) );
    10d8:	2207      	movs	r2, #7
    10da:	4b22      	ldr	r3, [pc, #136]	; (1164 <pvPortMalloc+0xc0>)
    10dc:	3308      	adds	r3, #8
    10de:	4393      	bics	r3, r2

	/* xStart is used to hold a pointer to the first item in the list of free
	blocks.  The void cast is used to prevent compiler warnings. */
	xStart.pxNextFreeBlock = ( void * ) pucAlignedHeap;
    10e0:	4a1f      	ldr	r2, [pc, #124]	; (1160 <pvPortMalloc+0xbc>)
    10e2:	6013      	str	r3, [r2, #0]
	xStart.xBlockSize = ( size_t ) 0;
    10e4:	2000      	movs	r0, #0
    10e6:	6050      	str	r0, [r2, #4]

	/* xEnd is used to mark the end of the list of free blocks. */
	xEnd.xBlockSize = configADJUSTED_HEAP_SIZE;
    10e8:	4a1f      	ldr	r2, [pc, #124]	; (1168 <pvPortMalloc+0xc4>)
    10ea:	21f9      	movs	r1, #249	; 0xf9
    10ec:	00c9      	lsls	r1, r1, #3
    10ee:	6051      	str	r1, [r2, #4]
	xEnd.pxNextFreeBlock = NULL;
    10f0:	6010      	str	r0, [r2, #0]

	/* To start with there is a single free block that is sized to take up the
	entire heap space. */
	pxFirstFreeBlock = ( void * ) pucAlignedHeap;
	pxFirstFreeBlock->xBlockSize = configADJUSTED_HEAP_SIZE;
    10f2:	6059      	str	r1, [r3, #4]
	pxFirstFreeBlock->pxNextFreeBlock = &xEnd;
    10f4:	601a      	str	r2, [r3, #0]
			xHeapHasBeenInitialised = pdTRUE;
    10f6:	2201      	movs	r2, #1
    10f8:	4b17      	ldr	r3, [pc, #92]	; (1158 <pvPortMalloc+0xb4>)
    10fa:	601a      	str	r2, [r3, #0]
    10fc:	e7da      	b.n	10b4 <pvPortMalloc+0x10>
    10fe:	0019      	movs	r1, r3
				pxBlock = pxBlock->pxNextFreeBlock;
    1100:	0013      	movs	r3, r2
			while( ( pxBlock->xBlockSize < xWantedSize ) && ( pxBlock->pxNextFreeBlock != NULL ) )
    1102:	685a      	ldr	r2, [r3, #4]
    1104:	4290      	cmp	r0, r2
    1106:	d902      	bls.n	110e <pvPortMalloc+0x6a>
    1108:	681a      	ldr	r2, [r3, #0]
    110a:	2a00      	cmp	r2, #0
    110c:	d1f7      	bne.n	10fe <pvPortMalloc+0x5a>
			if( pxBlock != &xEnd )
    110e:	4a16      	ldr	r2, [pc, #88]	; (1168 <pvPortMalloc+0xc4>)
    1110:	4293      	cmp	r3, r2
    1112:	d01d      	beq.n	1150 <pvPortMalloc+0xac>
				pvReturn = ( void * ) ( ( ( unsigned char * ) pxPreviousBlock->pxNextFreeBlock ) + heapSTRUCT_SIZE );
    1114:	680d      	ldr	r5, [r1, #0]
    1116:	3510      	adds	r5, #16
				pxPreviousBlock->pxNextFreeBlock = pxBlock->pxNextFreeBlock;
    1118:	681a      	ldr	r2, [r3, #0]
    111a:	600a      	str	r2, [r1, #0]
				if( ( pxBlock->xBlockSize - xWantedSize ) > heapMINIMUM_BLOCK_SIZE )
    111c:	685a      	ldr	r2, [r3, #4]
    111e:	1a12      	subs	r2, r2, r0
    1120:	2a20      	cmp	r2, #32
    1122:	d90c      	bls.n	113e <pvPortMalloc+0x9a>
					pxNewBlockLink = ( void * ) ( ( ( unsigned char * ) pxBlock ) + xWantedSize );
    1124:	181c      	adds	r4, r3, r0
					pxNewBlockLink->xBlockSize = pxBlock->xBlockSize - xWantedSize;
    1126:	6062      	str	r2, [r4, #4]
					pxBlock->xBlockSize = xWantedSize;
    1128:	6058      	str	r0, [r3, #4]
					prvInsertBlockIntoFreeList( ( pxNewBlockLink ) );
    112a:	6860      	ldr	r0, [r4, #4]
    112c:	490c      	ldr	r1, [pc, #48]	; (1160 <pvPortMalloc+0xbc>)
    112e:	e000      	b.n	1132 <pvPortMalloc+0x8e>
    1130:	0011      	movs	r1, r2
    1132:	680a      	ldr	r2, [r1, #0]
    1134:	6856      	ldr	r6, [r2, #4]
    1136:	42b0      	cmp	r0, r6
    1138:	d8fa      	bhi.n	1130 <pvPortMalloc+0x8c>
    113a:	6022      	str	r2, [r4, #0]
    113c:	600c      	str	r4, [r1, #0]
				xFreeBytesRemaining -= pxBlock->xBlockSize;
    113e:	4a0b      	ldr	r2, [pc, #44]	; (116c <pvPortMalloc+0xc8>)
    1140:	685b      	ldr	r3, [r3, #4]
    1142:	6811      	ldr	r1, [r2, #0]
    1144:	1acb      	subs	r3, r1, r3
    1146:	6013      	str	r3, [r2, #0]
	xTaskResumeAll();
    1148:	4b09      	ldr	r3, [pc, #36]	; (1170 <pvPortMalloc+0xcc>)
    114a:	4798      	blx	r3
}
    114c:	0028      	movs	r0, r5
    114e:	bd70      	pop	{r4, r5, r6, pc}
void *pvReturn = NULL;
    1150:	2500      	movs	r5, #0
    1152:	e7f9      	b.n	1148 <pvPortMalloc+0xa4>
    1154:	00001b15 	.word	0x00001b15
    1158:	200008ac 	.word	0x200008ac
    115c:	000007c6 	.word	0x000007c6
    1160:	200008b0 	.word	0x200008b0
    1164:	200000d4 	.word	0x200000d4
    1168:	200008a4 	.word	0x200008a4
    116c:	20000020 	.word	0x20000020
    1170:	00001c61 	.word	0x00001c61

00001174 <vPortFree>:
{
    1174:	b570      	push	{r4, r5, r6, lr}
    1176:	1e04      	subs	r4, r0, #0
	if( pv != NULL )
    1178:	d016      	beq.n	11a8 <vPortFree+0x34>
		puc -= heapSTRUCT_SIZE;
    117a:	0005      	movs	r5, r0
    117c:	3d10      	subs	r5, #16
		vTaskSuspendAll();
    117e:	4b0b      	ldr	r3, [pc, #44]	; (11ac <vPortFree+0x38>)
    1180:	4798      	blx	r3
			prvInsertBlockIntoFreeList( ( ( xBlockLink * ) pxLink ) );
    1182:	6869      	ldr	r1, [r5, #4]
    1184:	4a0a      	ldr	r2, [pc, #40]	; (11b0 <vPortFree+0x3c>)
    1186:	e000      	b.n	118a <vPortFree+0x16>
    1188:	001a      	movs	r2, r3
    118a:	6813      	ldr	r3, [r2, #0]
    118c:	6858      	ldr	r0, [r3, #4]
    118e:	4281      	cmp	r1, r0
    1190:	d8fa      	bhi.n	1188 <vPortFree+0x14>
    1192:	3c10      	subs	r4, #16
    1194:	6023      	str	r3, [r4, #0]
    1196:	6015      	str	r5, [r2, #0]
			xFreeBytesRemaining += pxLink->xBlockSize;
    1198:	4a06      	ldr	r2, [pc, #24]	; (11b4 <vPortFree+0x40>)
    119a:	6863      	ldr	r3, [r4, #4]
    119c:	6811      	ldr	r1, [r2, #0]
    119e:	468c      	mov	ip, r1
    11a0:	4463      	add	r3, ip
    11a2:	6013      	str	r3, [r2, #0]
		xTaskResumeAll();
    11a4:	4b04      	ldr	r3, [pc, #16]	; (11b8 <vPortFree+0x44>)
    11a6:	4798      	blx	r3
}
    11a8:	bd70      	pop	{r4, r5, r6, pc}
    11aa:	46c0      	nop			; (mov r8, r8)
    11ac:	00001b15 	.word	0x00001b15
    11b0:	200008b0 	.word	0x200008b0
    11b4:	20000020 	.word	0x20000020
    11b8:	00001c61 	.word	0x00001c61

000011bc <vListInitialise>:
void vListInitialise( xList *pxList )
{
	/* The list structure contains a list item which is used to mark the
	end of the list.  To initialise the list the list end is inserted
	as the only list entry. */
	pxList->pxIndex = ( xListItem * ) &( pxList->xListEnd );
    11bc:	0003      	movs	r3, r0
    11be:	3308      	adds	r3, #8
    11c0:	6043      	str	r3, [r0, #4]

	/* The list end value is the highest possible value in the list to
	ensure it remains at the end of the list. */
	pxList->xListEnd.xItemValue = portMAX_DELAY;
    11c2:	2201      	movs	r2, #1
    11c4:	4252      	negs	r2, r2
    11c6:	6082      	str	r2, [r0, #8]

	/* The list end next and previous pointers point to itself so we know
	when the list is empty. */
	pxList->xListEnd.pxNext = ( xListItem * ) &( pxList->xListEnd );
    11c8:	60c3      	str	r3, [r0, #12]
	pxList->xListEnd.pxPrevious = ( xListItem * ) &( pxList->xListEnd );
    11ca:	6103      	str	r3, [r0, #16]

	pxList->uxNumberOfItems = ( unsigned portBASE_TYPE ) 0U;
    11cc:	2300      	movs	r3, #0
    11ce:	6003      	str	r3, [r0, #0]
}
    11d0:	4770      	bx	lr

000011d2 <vListInitialiseItem>:
/*-----------------------------------------------------------*/

void vListInitialiseItem( xListItem *pxItem )
{
	/* Make sure the list item is not recorded as being on a list. */
	pxItem->pvContainer = NULL;
    11d2:	2300      	movs	r3, #0
    11d4:	6103      	str	r3, [r0, #16]
}
    11d6:	4770      	bx	lr

000011d8 <vListInsertEnd>:

	/* Insert a new list item into pxList, but rather than sort the list,
	makes the new list item the last item to be removed by a call to
	pvListGetOwnerOfNextEntry.  This means it has to be the item pointed to by
	the pxIndex member. */
	pxIndex = pxList->pxIndex;
    11d8:	6843      	ldr	r3, [r0, #4]

	pxNewListItem->pxNext = pxIndex->pxNext;
    11da:	685a      	ldr	r2, [r3, #4]
    11dc:	604a      	str	r2, [r1, #4]
	pxNewListItem->pxPrevious = pxList->pxIndex;
    11de:	6842      	ldr	r2, [r0, #4]
    11e0:	608a      	str	r2, [r1, #8]
	pxIndex->pxNext->pxPrevious = ( volatile xListItem * ) pxNewListItem;
    11e2:	685a      	ldr	r2, [r3, #4]
    11e4:	6091      	str	r1, [r2, #8]
	pxIndex->pxNext = ( volatile xListItem * ) pxNewListItem;
    11e6:	6059      	str	r1, [r3, #4]
	pxList->pxIndex = ( volatile xListItem * ) pxNewListItem;
    11e8:	6041      	str	r1, [r0, #4]

	/* Remember which list the item is in. */
	pxNewListItem->pvContainer = ( void * ) pxList;
    11ea:	6108      	str	r0, [r1, #16]

	( pxList->uxNumberOfItems )++;
    11ec:	6803      	ldr	r3, [r0, #0]
    11ee:	3301      	adds	r3, #1
    11f0:	6003      	str	r3, [r0, #0]
}
    11f2:	4770      	bx	lr

000011f4 <vListInsert>:
/*-----------------------------------------------------------*/

void vListInsert( xList *pxList, xListItem *pxNewListItem )
{
    11f4:	b510      	push	{r4, lr}
volatile xListItem *pxIterator;
portTickType xValueOfInsertion;

	/* Insert the new list item into the list, sorted in ulListItem order. */
	xValueOfInsertion = pxNewListItem->xItemValue;
    11f6:	680c      	ldr	r4, [r1, #0]
	are stored in ready lists (all of which have the same ulListItem value)
	get an equal share of the CPU.  However, if the xItemValue is the same as
	the back marker the iteration loop below will not end.  This means we need
	to guard against this by checking the value first and modifying the
	algorithm slightly if necessary. */
	if( xValueOfInsertion == portMAX_DELAY )
    11f8:	1c63      	adds	r3, r4, #1
    11fa:	d014      	beq.n	1226 <vListInsert+0x32>
			   before the scheduler has been started (are interrupts firing
			   before vTaskStartScheduler() has been called?).
		See http://www.freertos.org/FAQHelp.html for more tips.
		**********************************************************************/

		for( pxIterator = ( xListItem * ) &( pxList->xListEnd ); pxIterator->pxNext->xItemValue <= xValueOfInsertion; pxIterator = pxIterator->pxNext )
    11fc:	0003      	movs	r3, r0
    11fe:	3308      	adds	r3, #8
    1200:	68c2      	ldr	r2, [r0, #12]
    1202:	6812      	ldr	r2, [r2, #0]
    1204:	4294      	cmp	r4, r2
    1206:	d304      	bcc.n	1212 <vListInsert+0x1e>
    1208:	685b      	ldr	r3, [r3, #4]
    120a:	685a      	ldr	r2, [r3, #4]
    120c:	6812      	ldr	r2, [r2, #0]
    120e:	4294      	cmp	r4, r2
    1210:	d2fa      	bcs.n	1208 <vListInsert+0x14>
			/* There is nothing to do here, we are just iterating to the
			wanted insertion position. */
		}
	}

	pxNewListItem->pxNext = pxIterator->pxNext;
    1212:	685a      	ldr	r2, [r3, #4]
    1214:	604a      	str	r2, [r1, #4]
	pxNewListItem->pxNext->pxPrevious = ( volatile xListItem * ) pxNewListItem;
    1216:	6091      	str	r1, [r2, #8]
	pxNewListItem->pxPrevious = pxIterator;
    1218:	608b      	str	r3, [r1, #8]
	pxIterator->pxNext = ( volatile xListItem * ) pxNewListItem;
    121a:	6059      	str	r1, [r3, #4]

	/* Remember which list the item is in.  This allows fast removal of the
	item later. */
	pxNewListItem->pvContainer = ( void * ) pxList;
    121c:	6108      	str	r0, [r1, #16]

	( pxList->uxNumberOfItems )++;
    121e:	6803      	ldr	r3, [r0, #0]
    1220:	3301      	adds	r3, #1
    1222:	6003      	str	r3, [r0, #0]
}
    1224:	bd10      	pop	{r4, pc}
		pxIterator = pxList->xListEnd.pxPrevious;
    1226:	6903      	ldr	r3, [r0, #16]
    1228:	e7f3      	b.n	1212 <vListInsert+0x1e>

0000122a <uxListRemove>:

unsigned portBASE_TYPE uxListRemove( xListItem *pxItemToRemove )
{
xList * pxList;

	pxItemToRemove->pxNext->pxPrevious = pxItemToRemove->pxPrevious;
    122a:	6843      	ldr	r3, [r0, #4]
    122c:	6882      	ldr	r2, [r0, #8]
    122e:	609a      	str	r2, [r3, #8]
	pxItemToRemove->pxPrevious->pxNext = pxItemToRemove->pxNext;
    1230:	6883      	ldr	r3, [r0, #8]
    1232:	6842      	ldr	r2, [r0, #4]
    1234:	605a      	str	r2, [r3, #4]

	/* The list item knows which list it is in.  Obtain the list from the list
	item. */
	pxList = ( xList * ) pxItemToRemove->pvContainer;
    1236:	6903      	ldr	r3, [r0, #16]

	/* Make sure the index is left pointing to a valid item. */
	if( pxList->pxIndex == pxItemToRemove )
    1238:	685a      	ldr	r2, [r3, #4]
    123a:	4290      	cmp	r0, r2
    123c:	d006      	beq.n	124c <uxListRemove+0x22>
	{
		pxList->pxIndex = pxItemToRemove->pxPrevious;
	}

	pxItemToRemove->pvContainer = NULL;
    123e:	2200      	movs	r2, #0
    1240:	6102      	str	r2, [r0, #16]
	( pxList->uxNumberOfItems )--;
    1242:	681a      	ldr	r2, [r3, #0]
    1244:	3a01      	subs	r2, #1
    1246:	601a      	str	r2, [r3, #0]

	return pxList->uxNumberOfItems;
    1248:	6818      	ldr	r0, [r3, #0]
}
    124a:	4770      	bx	lr
		pxList->pxIndex = pxItemToRemove->pxPrevious;
    124c:	6882      	ldr	r2, [r0, #8]
    124e:	605a      	str	r2, [r3, #4]
    1250:	e7f5      	b.n	123e <uxListRemove+0x14>
	...

00001254 <prvCopyDataToQueue>:

#endif /* configUSE_TRACE_FACILITY */
/*-----------------------------------------------------------*/

static void prvCopyDataToQueue( xQUEUE *pxQueue, const void *pvItemToQueue, portBASE_TYPE xPosition )
{
    1254:	b510      	push	{r4, lr}
    1256:	0004      	movs	r4, r0
    1258:	0013      	movs	r3, r2
	if( pxQueue->uxItemSize == ( unsigned portBASE_TYPE ) 0 )
    125a:	6c02      	ldr	r2, [r0, #64]	; 0x40
    125c:	2a00      	cmp	r2, #0
    125e:	d10b      	bne.n	1278 <prvCopyDataToQueue+0x24>
	{
		#if ( configUSE_MUTEXES == 1 )
		{
			if( pxQueue->uxQueueType == queueQUEUE_IS_MUTEX )
    1260:	6803      	ldr	r3, [r0, #0]
    1262:	2b00      	cmp	r3, #0
    1264:	d104      	bne.n	1270 <prvCopyDataToQueue+0x1c>
			{
				/* The mutex is no longer being held. */
				vTaskPriorityDisinherit( ( void * ) pxQueue->pxMutexHolder );
    1266:	6840      	ldr	r0, [r0, #4]
    1268:	4b13      	ldr	r3, [pc, #76]	; (12b8 <prvCopyDataToQueue+0x64>)
    126a:	4798      	blx	r3
				pxQueue->pxMutexHolder = NULL;
    126c:	2300      	movs	r3, #0
    126e:	6063      	str	r3, [r4, #4]
		{
			pxQueue->pcReadFrom = ( pxQueue->pcTail - pxQueue->uxItemSize );
		}
	}

	++( pxQueue->uxMessagesWaiting );
    1270:	6ba3      	ldr	r3, [r4, #56]	; 0x38
    1272:	3301      	adds	r3, #1
    1274:	63a3      	str	r3, [r4, #56]	; 0x38
}
    1276:	bd10      	pop	{r4, pc}
	else if( xPosition == queueSEND_TO_BACK )
    1278:	2b00      	cmp	r3, #0
    127a:	d10d      	bne.n	1298 <prvCopyDataToQueue+0x44>
		memcpy( ( void * ) pxQueue->pcWriteTo, pvItemToQueue, ( size_t ) pxQueue->uxItemSize );
    127c:	6880      	ldr	r0, [r0, #8]
    127e:	4b0f      	ldr	r3, [pc, #60]	; (12bc <prvCopyDataToQueue+0x68>)
    1280:	4798      	blx	r3
		pxQueue->pcWriteTo += pxQueue->uxItemSize;
    1282:	68a3      	ldr	r3, [r4, #8]
    1284:	6c22      	ldr	r2, [r4, #64]	; 0x40
    1286:	4694      	mov	ip, r2
    1288:	4463      	add	r3, ip
    128a:	60a3      	str	r3, [r4, #8]
		if( pxQueue->pcWriteTo >= pxQueue->pcTail )
    128c:	6862      	ldr	r2, [r4, #4]
    128e:	4293      	cmp	r3, r2
    1290:	d3ee      	bcc.n	1270 <prvCopyDataToQueue+0x1c>
			pxQueue->pcWriteTo = pxQueue->pcHead;
    1292:	6823      	ldr	r3, [r4, #0]
    1294:	60a3      	str	r3, [r4, #8]
    1296:	e7eb      	b.n	1270 <prvCopyDataToQueue+0x1c>
		memcpy( ( void * ) pxQueue->pcReadFrom, pvItemToQueue, ( size_t ) pxQueue->uxItemSize );
    1298:	68c0      	ldr	r0, [r0, #12]
    129a:	4b08      	ldr	r3, [pc, #32]	; (12bc <prvCopyDataToQueue+0x68>)
    129c:	4798      	blx	r3
		pxQueue->pcReadFrom -= pxQueue->uxItemSize;
    129e:	6c23      	ldr	r3, [r4, #64]	; 0x40
    12a0:	425b      	negs	r3, r3
    12a2:	68e2      	ldr	r2, [r4, #12]
    12a4:	18d2      	adds	r2, r2, r3
    12a6:	60e2      	str	r2, [r4, #12]
		if( pxQueue->pcReadFrom < pxQueue->pcHead )
    12a8:	6821      	ldr	r1, [r4, #0]
    12aa:	428a      	cmp	r2, r1
    12ac:	d2e0      	bcs.n	1270 <prvCopyDataToQueue+0x1c>
			pxQueue->pcReadFrom = ( pxQueue->pcTail - pxQueue->uxItemSize );
    12ae:	6862      	ldr	r2, [r4, #4]
    12b0:	4694      	mov	ip, r2
    12b2:	4463      	add	r3, ip
    12b4:	60e3      	str	r3, [r4, #12]
    12b6:	e7db      	b.n	1270 <prvCopyDataToQueue+0x1c>
    12b8:	00002171 	.word	0x00002171
    12bc:	0000336d 	.word	0x0000336d

000012c0 <prvNotifyQueueSetContainer>:
/*-----------------------------------------------------------*/

#if ( configUSE_QUEUE_SETS == 1 )

	static portBASE_TYPE prvNotifyQueueSetContainer( xQUEUE *pxQueue, portBASE_TYPE xCopyPosition )
	{
    12c0:	b510      	push	{r4, lr}
    12c2:	b082      	sub	sp, #8
    12c4:	9001      	str	r0, [sp, #4]
    12c6:	000a      	movs	r2, r1
	xQUEUE *pxQueueSetContainer = pxQueue->pxQueueSetContainer;
    12c8:	6cc4      	ldr	r4, [r0, #76]	; 0x4c
	portBASE_TYPE xReturn = pdFALSE;

		configASSERT( pxQueueSetContainer );
    12ca:	2c00      	cmp	r4, #0
    12cc:	d005      	beq.n	12da <prvNotifyQueueSetContainer+0x1a>
		configASSERT( pxQueueSetContainer->uxMessagesWaiting < pxQueueSetContainer->uxLength );
    12ce:	6ba1      	ldr	r1, [r4, #56]	; 0x38
    12d0:	6be3      	ldr	r3, [r4, #60]	; 0x3c
    12d2:	4299      	cmp	r1, r3
    12d4:	d303      	bcc.n	12de <prvNotifyQueueSetContainer+0x1e>
    12d6:	b672      	cpsid	i
    12d8:	e7fe      	b.n	12d8 <prvNotifyQueueSetContainer+0x18>
		configASSERT( pxQueueSetContainer );
    12da:	b672      	cpsid	i
    12dc:	e7fe      	b.n	12dc <prvNotifyQueueSetContainer+0x1c>

		if( pxQueueSetContainer->uxMessagesWaiting < pxQueueSetContainer->uxLength )
    12de:	6ba1      	ldr	r1, [r4, #56]	; 0x38
	portBASE_TYPE xReturn = pdFALSE;
    12e0:	2000      	movs	r0, #0
		if( pxQueueSetContainer->uxMessagesWaiting < pxQueueSetContainer->uxLength )
    12e2:	428b      	cmp	r3, r1
    12e4:	d801      	bhi.n	12ea <prvNotifyQueueSetContainer+0x2a>
				}
			}
		}

		return xReturn;
	}
    12e6:	b002      	add	sp, #8
    12e8:	bd10      	pop	{r4, pc}
			prvCopyDataToQueue( pxQueueSetContainer, &pxQueue, xCopyPosition );
    12ea:	a901      	add	r1, sp, #4
    12ec:	0020      	movs	r0, r4
    12ee:	4b06      	ldr	r3, [pc, #24]	; (1308 <prvNotifyQueueSetContainer+0x48>)
    12f0:	4798      	blx	r3
			if( listLIST_IS_EMPTY( &( pxQueueSetContainer->xTasksWaitingToReceive ) ) == pdFALSE )
    12f2:	6a63      	ldr	r3, [r4, #36]	; 0x24
	portBASE_TYPE xReturn = pdFALSE;
    12f4:	2000      	movs	r0, #0
			if( listLIST_IS_EMPTY( &( pxQueueSetContainer->xTasksWaitingToReceive ) ) == pdFALSE )
    12f6:	2b00      	cmp	r3, #0
    12f8:	d0f5      	beq.n	12e6 <prvNotifyQueueSetContainer+0x26>
				if( xTaskRemoveFromEventList( &( pxQueueSetContainer->xTasksWaitingToReceive ) ) != pdFALSE )
    12fa:	0020      	movs	r0, r4
    12fc:	3024      	adds	r0, #36	; 0x24
    12fe:	4b03      	ldr	r3, [pc, #12]	; (130c <prvNotifyQueueSetContainer+0x4c>)
    1300:	4798      	blx	r3
	portBASE_TYPE xReturn = pdFALSE;
    1302:	1e43      	subs	r3, r0, #1
    1304:	4198      	sbcs	r0, r3
    1306:	e7ee      	b.n	12e6 <prvNotifyQueueSetContainer+0x26>
    1308:	00001255 	.word	0x00001255
    130c:	00001fa9 	.word	0x00001fa9

00001310 <prvCopyDataFromQueue>:
{
    1310:	b570      	push	{r4, r5, r6, lr}
    1312:	000c      	movs	r4, r1
	if( pxQueue->uxQueueType != queueQUEUE_IS_MUTEX )
    1314:	6801      	ldr	r1, [r0, #0]
    1316:	2900      	cmp	r1, #0
    1318:	d00b      	beq.n	1332 <prvCopyDataFromQueue+0x22>
		pxQueue->pcReadFrom += pxQueue->uxItemSize;
    131a:	6c02      	ldr	r2, [r0, #64]	; 0x40
    131c:	68c3      	ldr	r3, [r0, #12]
    131e:	189b      	adds	r3, r3, r2
    1320:	60c3      	str	r3, [r0, #12]
		if( pxQueue->pcReadFrom >= pxQueue->pcTail )
    1322:	6845      	ldr	r5, [r0, #4]
    1324:	42ab      	cmp	r3, r5
    1326:	d300      	bcc.n	132a <prvCopyDataFromQueue+0x1a>
			pxQueue->pcReadFrom = pxQueue->pcHead;
    1328:	60c1      	str	r1, [r0, #12]
		memcpy( ( void * ) pvBuffer, ( void * ) pxQueue->pcReadFrom, ( size_t ) pxQueue->uxItemSize );
    132a:	68c1      	ldr	r1, [r0, #12]
    132c:	0020      	movs	r0, r4
    132e:	4b01      	ldr	r3, [pc, #4]	; (1334 <prvCopyDataFromQueue+0x24>)
    1330:	4798      	blx	r3
}
    1332:	bd70      	pop	{r4, r5, r6, pc}
    1334:	0000336d 	.word	0x0000336d

00001338 <prvUnlockQueue>:
{
    1338:	b5f8      	push	{r3, r4, r5, r6, r7, lr}
    133a:	0004      	movs	r4, r0
	taskENTER_CRITICAL();
    133c:	4b25      	ldr	r3, [pc, #148]	; (13d4 <prvUnlockQueue+0x9c>)
    133e:	4798      	blx	r3
		while( pxQueue->xTxLock > queueLOCKED_UNMODIFIED )
    1340:	6ca3      	ldr	r3, [r4, #72]	; 0x48
    1342:	2b00      	cmp	r3, #0
    1344:	dd1e      	ble.n	1384 <prvUnlockQueue+0x4c>
					if( prvNotifyQueueSetContainer( pxQueue, queueSEND_TO_BACK ) == pdTRUE )
    1346:	4d24      	ldr	r5, [pc, #144]	; (13d8 <prvUnlockQueue+0xa0>)
						if( xTaskRemoveFromEventList( &( pxQueue->xTasksWaitingToReceive ) ) != pdFALSE )
    1348:	4e24      	ldr	r6, [pc, #144]	; (13dc <prvUnlockQueue+0xa4>)
    134a:	e00d      	b.n	1368 <prvUnlockQueue+0x30>
					if( listLIST_IS_EMPTY( &( pxQueue->xTasksWaitingToReceive ) ) == pdFALSE )
    134c:	6a63      	ldr	r3, [r4, #36]	; 0x24
    134e:	2b00      	cmp	r3, #0
    1350:	d018      	beq.n	1384 <prvUnlockQueue+0x4c>
						if( xTaskRemoveFromEventList( &( pxQueue->xTasksWaitingToReceive ) ) != pdFALSE )
    1352:	0020      	movs	r0, r4
    1354:	3024      	adds	r0, #36	; 0x24
    1356:	47b0      	blx	r6
    1358:	2800      	cmp	r0, #0
    135a:	d110      	bne.n	137e <prvUnlockQueue+0x46>
			--( pxQueue->xTxLock );
    135c:	6ca3      	ldr	r3, [r4, #72]	; 0x48
    135e:	3b01      	subs	r3, #1
    1360:	64a3      	str	r3, [r4, #72]	; 0x48
		while( pxQueue->xTxLock > queueLOCKED_UNMODIFIED )
    1362:	6ca3      	ldr	r3, [r4, #72]	; 0x48
    1364:	2b00      	cmp	r3, #0
    1366:	dd0d      	ble.n	1384 <prvUnlockQueue+0x4c>
				if( pxQueue->pxQueueSetContainer != NULL )
    1368:	6ce3      	ldr	r3, [r4, #76]	; 0x4c
    136a:	2b00      	cmp	r3, #0
    136c:	d0ee      	beq.n	134c <prvUnlockQueue+0x14>
					if( prvNotifyQueueSetContainer( pxQueue, queueSEND_TO_BACK ) == pdTRUE )
    136e:	2100      	movs	r1, #0
    1370:	0020      	movs	r0, r4
    1372:	47a8      	blx	r5
    1374:	2801      	cmp	r0, #1
    1376:	d1f1      	bne.n	135c <prvUnlockQueue+0x24>
						vTaskMissedYield();
    1378:	4b19      	ldr	r3, [pc, #100]	; (13e0 <prvUnlockQueue+0xa8>)
    137a:	4798      	blx	r3
    137c:	e7ee      	b.n	135c <prvUnlockQueue+0x24>
							vTaskMissedYield();
    137e:	4b18      	ldr	r3, [pc, #96]	; (13e0 <prvUnlockQueue+0xa8>)
    1380:	4798      	blx	r3
    1382:	e7eb      	b.n	135c <prvUnlockQueue+0x24>
		pxQueue->xTxLock = queueUNLOCKED;
    1384:	2301      	movs	r3, #1
    1386:	425b      	negs	r3, r3
    1388:	64a3      	str	r3, [r4, #72]	; 0x48
	taskEXIT_CRITICAL();
    138a:	4b16      	ldr	r3, [pc, #88]	; (13e4 <prvUnlockQueue+0xac>)
    138c:	4798      	blx	r3
	taskENTER_CRITICAL();
    138e:	4b11      	ldr	r3, [pc, #68]	; (13d4 <prvUnlockQueue+0x9c>)
    1390:	4798      	blx	r3
		while( pxQueue->xRxLock > queueLOCKED_UNMODIFIED )
    1392:	6c63      	ldr	r3, [r4, #68]	; 0x44
    1394:	2b00      	cmp	r3, #0
    1396:	dd16      	ble.n	13c6 <prvUnlockQueue+0x8e>
			if( listLIST_IS_EMPTY( &( pxQueue->xTasksWaitingToSend ) ) == pdFALSE )
    1398:	6923      	ldr	r3, [r4, #16]
    139a:	2b00      	cmp	r3, #0
    139c:	d013      	beq.n	13c6 <prvUnlockQueue+0x8e>
				if( xTaskRemoveFromEventList( &( pxQueue->xTasksWaitingToSend ) ) != pdFALSE )
    139e:	0025      	movs	r5, r4
    13a0:	3510      	adds	r5, #16
    13a2:	4f0e      	ldr	r7, [pc, #56]	; (13dc <prvUnlockQueue+0xa4>)
					vTaskMissedYield();
    13a4:	4e0e      	ldr	r6, [pc, #56]	; (13e0 <prvUnlockQueue+0xa8>)
    13a6:	e008      	b.n	13ba <prvUnlockQueue+0x82>
				--( pxQueue->xRxLock );
    13a8:	6c63      	ldr	r3, [r4, #68]	; 0x44
    13aa:	3b01      	subs	r3, #1
    13ac:	6463      	str	r3, [r4, #68]	; 0x44
		while( pxQueue->xRxLock > queueLOCKED_UNMODIFIED )
    13ae:	6c63      	ldr	r3, [r4, #68]	; 0x44
    13b0:	2b00      	cmp	r3, #0
    13b2:	dd08      	ble.n	13c6 <prvUnlockQueue+0x8e>
			if( listLIST_IS_EMPTY( &( pxQueue->xTasksWaitingToSend ) ) == pdFALSE )
    13b4:	6923      	ldr	r3, [r4, #16]
    13b6:	2b00      	cmp	r3, #0
    13b8:	d005      	beq.n	13c6 <prvUnlockQueue+0x8e>
				if( xTaskRemoveFromEventList( &( pxQueue->xTasksWaitingToSend ) ) != pdFALSE )
    13ba:	0028      	movs	r0, r5
    13bc:	47b8      	blx	r7
    13be:	2800      	cmp	r0, #0
    13c0:	d0f2      	beq.n	13a8 <prvUnlockQueue+0x70>
					vTaskMissedYield();
    13c2:	47b0      	blx	r6
    13c4:	e7f0      	b.n	13a8 <prvUnlockQueue+0x70>
		pxQueue->xRxLock = queueUNLOCKED;
    13c6:	2301      	movs	r3, #1
    13c8:	425b      	negs	r3, r3
    13ca:	6463      	str	r3, [r4, #68]	; 0x44
	taskEXIT_CRITICAL();
    13cc:	4b05      	ldr	r3, [pc, #20]	; (13e4 <prvUnlockQueue+0xac>)
    13ce:	4798      	blx	r3
}
    13d0:	bdf8      	pop	{r3, r4, r5, r6, r7, pc}
    13d2:	46c0      	nop			; (mov r8, r8)
    13d4:	00000fb9 	.word	0x00000fb9
    13d8:	000012c1 	.word	0x000012c1
    13dc:	00001fa9 	.word	0x00001fa9
    13e0:	000020bd 	.word	0x000020bd
    13e4:	00000fd1 	.word	0x00000fd1

000013e8 <xQueueGenericReset>:
{
    13e8:	b570      	push	{r4, r5, r6, lr}
    13ea:	0004      	movs	r4, r0
    13ec:	000d      	movs	r5, r1
	configASSERT( pxQueue );
    13ee:	2800      	cmp	r0, #0
    13f0:	d020      	beq.n	1434 <xQueueGenericReset+0x4c>
	taskENTER_CRITICAL();
    13f2:	4b17      	ldr	r3, [pc, #92]	; (1450 <xQueueGenericReset+0x68>)
    13f4:	4798      	blx	r3
		pxQueue->pcTail = pxQueue->pcHead + ( pxQueue->uxLength * pxQueue->uxItemSize );
    13f6:	6822      	ldr	r2, [r4, #0]
    13f8:	6c21      	ldr	r1, [r4, #64]	; 0x40
    13fa:	6be3      	ldr	r3, [r4, #60]	; 0x3c
    13fc:	434b      	muls	r3, r1
    13fe:	18d0      	adds	r0, r2, r3
    1400:	6060      	str	r0, [r4, #4]
		pxQueue->uxMessagesWaiting = ( unsigned portBASE_TYPE ) 0U;
    1402:	2000      	movs	r0, #0
    1404:	63a0      	str	r0, [r4, #56]	; 0x38
		pxQueue->pcWriteTo = pxQueue->pcHead;
    1406:	60a2      	str	r2, [r4, #8]
		pxQueue->pcReadFrom = pxQueue->pcHead + ( ( pxQueue->uxLength - ( unsigned portBASE_TYPE ) 1U ) * pxQueue->uxItemSize );
    1408:	1a5b      	subs	r3, r3, r1
    140a:	18d3      	adds	r3, r2, r3
    140c:	60e3      	str	r3, [r4, #12]
		pxQueue->xRxLock = queueUNLOCKED;
    140e:	2301      	movs	r3, #1
    1410:	425b      	negs	r3, r3
    1412:	6463      	str	r3, [r4, #68]	; 0x44
		pxQueue->xTxLock = queueUNLOCKED;
    1414:	64a3      	str	r3, [r4, #72]	; 0x48
		if( xNewQueue == pdFALSE )
    1416:	2d00      	cmp	r5, #0
    1418:	d111      	bne.n	143e <xQueueGenericReset+0x56>
			if( listLIST_IS_EMPTY( &( pxQueue->xTasksWaitingToSend ) ) == pdFALSE )
    141a:	6923      	ldr	r3, [r4, #16]
    141c:	2b00      	cmp	r3, #0
    141e:	d005      	beq.n	142c <xQueueGenericReset+0x44>
				if( xTaskRemoveFromEventList( &( pxQueue->xTasksWaitingToSend ) ) == pdTRUE )
    1420:	0020      	movs	r0, r4
    1422:	3010      	adds	r0, #16
    1424:	4b0b      	ldr	r3, [pc, #44]	; (1454 <xQueueGenericReset+0x6c>)
    1426:	4798      	blx	r3
    1428:	2801      	cmp	r0, #1
    142a:	d005      	beq.n	1438 <xQueueGenericReset+0x50>
	taskEXIT_CRITICAL();
    142c:	4b0a      	ldr	r3, [pc, #40]	; (1458 <xQueueGenericReset+0x70>)
    142e:	4798      	blx	r3
}
    1430:	2001      	movs	r0, #1
    1432:	bd70      	pop	{r4, r5, r6, pc}
	configASSERT( pxQueue );
    1434:	b672      	cpsid	i
    1436:	e7fe      	b.n	1436 <xQueueGenericReset+0x4e>
					portYIELD_WITHIN_API();
    1438:	4b08      	ldr	r3, [pc, #32]	; (145c <xQueueGenericReset+0x74>)
    143a:	4798      	blx	r3
    143c:	e7f6      	b.n	142c <xQueueGenericReset+0x44>
			vListInitialise( &( pxQueue->xTasksWaitingToSend ) );
    143e:	0020      	movs	r0, r4
    1440:	3010      	adds	r0, #16
    1442:	4d07      	ldr	r5, [pc, #28]	; (1460 <xQueueGenericReset+0x78>)
    1444:	47a8      	blx	r5
			vListInitialise( &( pxQueue->xTasksWaitingToReceive ) );
    1446:	0020      	movs	r0, r4
    1448:	3024      	adds	r0, #36	; 0x24
    144a:	47a8      	blx	r5
    144c:	e7ee      	b.n	142c <xQueueGenericReset+0x44>
    144e:	46c0      	nop			; (mov r8, r8)
    1450:	00000fb9 	.word	0x00000fb9
    1454:	00001fa9 	.word	0x00001fa9
    1458:	00000fd1 	.word	0x00000fd1
    145c:	00000fa1 	.word	0x00000fa1
    1460:	000011bd 	.word	0x000011bd

00001464 <xQueueGenericCreate>:
{
    1464:	b570      	push	{r4, r5, r6, lr}
    1466:	0005      	movs	r5, r0
    1468:	000e      	movs	r6, r1
	if( uxQueueLength > ( unsigned portBASE_TYPE ) 0 )
    146a:	2800      	cmp	r0, #0
    146c:	d019      	beq.n	14a2 <xQueueGenericCreate+0x3e>
		pxNewQueue = ( xQUEUE * ) pvPortMalloc( sizeof( xQUEUE ) );
    146e:	2050      	movs	r0, #80	; 0x50
    1470:	4b0d      	ldr	r3, [pc, #52]	; (14a8 <xQueueGenericCreate+0x44>)
    1472:	4798      	blx	r3
    1474:	1e04      	subs	r4, r0, #0
		if( pxNewQueue != NULL )
    1476:	d014      	beq.n	14a2 <xQueueGenericCreate+0x3e>
			xQueueSizeInBytes = ( size_t ) ( uxQueueLength * uxItemSize ) + ( size_t ) 1;
    1478:	0030      	movs	r0, r6
    147a:	4368      	muls	r0, r5
    147c:	3001      	adds	r0, #1
			pxNewQueue->pcHead = ( signed char * ) pvPortMalloc( xQueueSizeInBytes );
    147e:	4b0a      	ldr	r3, [pc, #40]	; (14a8 <xQueueGenericCreate+0x44>)
    1480:	4798      	blx	r3
    1482:	6020      	str	r0, [r4, #0]
			if( pxNewQueue->pcHead != NULL )
    1484:	2800      	cmp	r0, #0
    1486:	d009      	beq.n	149c <xQueueGenericCreate+0x38>
				pxNewQueue->uxLength = uxQueueLength;
    1488:	63e5      	str	r5, [r4, #60]	; 0x3c
				pxNewQueue->uxItemSize = uxItemSize;
    148a:	6426      	str	r6, [r4, #64]	; 0x40
				xQueueGenericReset( pxNewQueue, pdTRUE );
    148c:	2101      	movs	r1, #1
    148e:	0020      	movs	r0, r4
    1490:	4b06      	ldr	r3, [pc, #24]	; (14ac <xQueueGenericCreate+0x48>)
    1492:	4798      	blx	r3
					pxNewQueue->pxQueueSetContainer = NULL;
    1494:	2300      	movs	r3, #0
    1496:	64e3      	str	r3, [r4, #76]	; 0x4c
}
    1498:	0020      	movs	r0, r4
    149a:	bd70      	pop	{r4, r5, r6, pc}
				vPortFree( pxNewQueue );
    149c:	0020      	movs	r0, r4
    149e:	4b04      	ldr	r3, [pc, #16]	; (14b0 <xQueueGenericCreate+0x4c>)
    14a0:	4798      	blx	r3
	configASSERT( xReturn );
    14a2:	b672      	cpsid	i
    14a4:	e7fe      	b.n	14a4 <xQueueGenericCreate+0x40>
    14a6:	46c0      	nop			; (mov r8, r8)
    14a8:	000010a5 	.word	0x000010a5
    14ac:	000013e9 	.word	0x000013e9
    14b0:	00001175 	.word	0x00001175

000014b4 <xQueueGenericSend>:
{
    14b4:	b5f0      	push	{r4, r5, r6, r7, lr}
    14b6:	46ce      	mov	lr, r9
    14b8:	b500      	push	{lr}
    14ba:	b084      	sub	sp, #16
    14bc:	0004      	movs	r4, r0
    14be:	000f      	movs	r7, r1
    14c0:	9201      	str	r2, [sp, #4]
    14c2:	9300      	str	r3, [sp, #0]
	configASSERT( pxQueue );
    14c4:	2800      	cmp	r0, #0
    14c6:	d004      	beq.n	14d2 <xQueueGenericSend+0x1e>
    14c8:	2500      	movs	r5, #0
	configASSERT( !( ( pvItemToQueue == NULL ) && ( pxQueue->uxItemSize != ( unsigned portBASE_TYPE ) 0U ) ) );
    14ca:	2900      	cmp	r1, #0
    14cc:	d003      	beq.n	14d6 <xQueueGenericSend+0x22>
		taskENTER_CRITICAL();
    14ce:	4e40      	ldr	r6, [pc, #256]	; (15d0 <xQueueGenericSend+0x11c>)
    14d0:	e040      	b.n	1554 <xQueueGenericSend+0xa0>
	configASSERT( pxQueue );
    14d2:	b672      	cpsid	i
    14d4:	e7fe      	b.n	14d4 <xQueueGenericSend+0x20>
	configASSERT( !( ( pvItemToQueue == NULL ) && ( pxQueue->uxItemSize != ( unsigned portBASE_TYPE ) 0U ) ) );
    14d6:	6c03      	ldr	r3, [r0, #64]	; 0x40
    14d8:	2b00      	cmp	r3, #0
    14da:	d001      	beq.n	14e0 <xQueueGenericSend+0x2c>
    14dc:	b672      	cpsid	i
    14de:	e7fe      	b.n	14de <xQueueGenericSend+0x2a>
    14e0:	2500      	movs	r5, #0
    14e2:	e7f4      	b.n	14ce <xQueueGenericSend+0x1a>
				prvCopyDataToQueue( pxQueue, pvItemToQueue, xCopyPosition );
    14e4:	9d00      	ldr	r5, [sp, #0]
    14e6:	002a      	movs	r2, r5
    14e8:	0039      	movs	r1, r7
    14ea:	0020      	movs	r0, r4
    14ec:	4b39      	ldr	r3, [pc, #228]	; (15d4 <xQueueGenericSend+0x120>)
    14ee:	4798      	blx	r3
					if( pxQueue->pxQueueSetContainer != NULL )
    14f0:	6ce3      	ldr	r3, [r4, #76]	; 0x4c
    14f2:	2b00      	cmp	r3, #0
    14f4:	d00e      	beq.n	1514 <xQueueGenericSend+0x60>
						if( prvNotifyQueueSetContainer( pxQueue, xCopyPosition ) == pdTRUE )
    14f6:	0029      	movs	r1, r5
    14f8:	0020      	movs	r0, r4
    14fa:	4b37      	ldr	r3, [pc, #220]	; (15d8 <xQueueGenericSend+0x124>)
    14fc:	4798      	blx	r3
    14fe:	2801      	cmp	r0, #1
    1500:	d101      	bne.n	1506 <xQueueGenericSend+0x52>
							portYIELD_WITHIN_API();
    1502:	4b36      	ldr	r3, [pc, #216]	; (15dc <xQueueGenericSend+0x128>)
    1504:	4798      	blx	r3
				taskEXIT_CRITICAL();
    1506:	4b36      	ldr	r3, [pc, #216]	; (15e0 <xQueueGenericSend+0x12c>)
    1508:	4798      	blx	r3
				return pdPASS;
    150a:	2001      	movs	r0, #1
}
    150c:	b004      	add	sp, #16
    150e:	bc04      	pop	{r2}
    1510:	4691      	mov	r9, r2
    1512:	bdf0      	pop	{r4, r5, r6, r7, pc}
						if( listLIST_IS_EMPTY( &( pxQueue->xTasksWaitingToReceive ) ) == pdFALSE )
    1514:	6a63      	ldr	r3, [r4, #36]	; 0x24
    1516:	2b00      	cmp	r3, #0
    1518:	d0f5      	beq.n	1506 <xQueueGenericSend+0x52>
							if( xTaskRemoveFromEventList( &( pxQueue->xTasksWaitingToReceive ) ) == pdTRUE )
    151a:	0020      	movs	r0, r4
    151c:	3024      	adds	r0, #36	; 0x24
    151e:	4b31      	ldr	r3, [pc, #196]	; (15e4 <xQueueGenericSend+0x130>)
    1520:	4798      	blx	r3
    1522:	2801      	cmp	r0, #1
    1524:	d1ef      	bne.n	1506 <xQueueGenericSend+0x52>
								portYIELD_WITHIN_API();
    1526:	4b2d      	ldr	r3, [pc, #180]	; (15dc <xQueueGenericSend+0x128>)
    1528:	4798      	blx	r3
    152a:	e7ec      	b.n	1506 <xQueueGenericSend+0x52>
					taskEXIT_CRITICAL();
    152c:	4b2c      	ldr	r3, [pc, #176]	; (15e0 <xQueueGenericSend+0x12c>)
    152e:	4798      	blx	r3
					return errQUEUE_FULL;
    1530:	2000      	movs	r0, #0
    1532:	e7eb      	b.n	150c <xQueueGenericSend+0x58>
					vTaskSetTimeOutState( &xTimeOut );
    1534:	a802      	add	r0, sp, #8
    1536:	4b2c      	ldr	r3, [pc, #176]	; (15e8 <xQueueGenericSend+0x134>)
    1538:	4798      	blx	r3
    153a:	e015      	b.n	1568 <xQueueGenericSend+0xb4>
		prvLockQueue( pxQueue );
    153c:	2300      	movs	r3, #0
    153e:	6463      	str	r3, [r4, #68]	; 0x44
    1540:	e01b      	b.n	157a <xQueueGenericSend+0xc6>
    1542:	2300      	movs	r3, #0
    1544:	64a3      	str	r3, [r4, #72]	; 0x48
    1546:	e01b      	b.n	1580 <xQueueGenericSend+0xcc>
				prvUnlockQueue( pxQueue );
    1548:	0020      	movs	r0, r4
    154a:	4b28      	ldr	r3, [pc, #160]	; (15ec <xQueueGenericSend+0x138>)
    154c:	4798      	blx	r3
				( void ) xTaskResumeAll();
    154e:	4b28      	ldr	r3, [pc, #160]	; (15f0 <xQueueGenericSend+0x13c>)
    1550:	4798      	blx	r3
    1552:	2501      	movs	r5, #1
		taskENTER_CRITICAL();
    1554:	47b0      	blx	r6
			if( pxQueue->uxMessagesWaiting < pxQueue->uxLength )
    1556:	6ba3      	ldr	r3, [r4, #56]	; 0x38
    1558:	6be2      	ldr	r2, [r4, #60]	; 0x3c
    155a:	4293      	cmp	r3, r2
    155c:	d3c2      	bcc.n	14e4 <xQueueGenericSend+0x30>
				if( xTicksToWait == ( portTickType ) 0 )
    155e:	9b01      	ldr	r3, [sp, #4]
    1560:	2b00      	cmp	r3, #0
    1562:	d0e3      	beq.n	152c <xQueueGenericSend+0x78>
				else if( xEntryTimeSet == pdFALSE )
    1564:	2d00      	cmp	r5, #0
    1566:	d0e5      	beq.n	1534 <xQueueGenericSend+0x80>
		taskEXIT_CRITICAL();
    1568:	4b1d      	ldr	r3, [pc, #116]	; (15e0 <xQueueGenericSend+0x12c>)
    156a:	4798      	blx	r3
		vTaskSuspendAll();
    156c:	4b21      	ldr	r3, [pc, #132]	; (15f4 <xQueueGenericSend+0x140>)
    156e:	4798      	blx	r3
		prvLockQueue( pxQueue );
    1570:	4b17      	ldr	r3, [pc, #92]	; (15d0 <xQueueGenericSend+0x11c>)
    1572:	4798      	blx	r3
    1574:	6c63      	ldr	r3, [r4, #68]	; 0x44
    1576:	3301      	adds	r3, #1
    1578:	d0e0      	beq.n	153c <xQueueGenericSend+0x88>
    157a:	6ca3      	ldr	r3, [r4, #72]	; 0x48
    157c:	3301      	adds	r3, #1
    157e:	d0e0      	beq.n	1542 <xQueueGenericSend+0x8e>
    1580:	4b17      	ldr	r3, [pc, #92]	; (15e0 <xQueueGenericSend+0x12c>)
    1582:	4798      	blx	r3
		if( xTaskCheckForTimeOut( &xTimeOut, &xTicksToWait ) == pdFALSE )
    1584:	a901      	add	r1, sp, #4
    1586:	a802      	add	r0, sp, #8
    1588:	4b1b      	ldr	r3, [pc, #108]	; (15f8 <xQueueGenericSend+0x144>)
    158a:	4798      	blx	r3
    158c:	2800      	cmp	r0, #0
    158e:	d117      	bne.n	15c0 <xQueueGenericSend+0x10c>
	taskENTER_CRITICAL();
    1590:	4b0f      	ldr	r3, [pc, #60]	; (15d0 <xQueueGenericSend+0x11c>)
    1592:	4798      	blx	r3
		if( pxQueue->uxMessagesWaiting == pxQueue->uxLength )
    1594:	6ba3      	ldr	r3, [r4, #56]	; 0x38
    1596:	4699      	mov	r9, r3
    1598:	6be5      	ldr	r5, [r4, #60]	; 0x3c
	taskEXIT_CRITICAL();
    159a:	4b11      	ldr	r3, [pc, #68]	; (15e0 <xQueueGenericSend+0x12c>)
    159c:	4798      	blx	r3
			if( prvIsQueueFull( pxQueue ) != pdFALSE )
    159e:	45a9      	cmp	r9, r5
    15a0:	d1d2      	bne.n	1548 <xQueueGenericSend+0x94>
				vTaskPlaceOnEventList( &( pxQueue->xTasksWaitingToSend ), xTicksToWait );
    15a2:	0020      	movs	r0, r4
    15a4:	3010      	adds	r0, #16
    15a6:	9901      	ldr	r1, [sp, #4]
    15a8:	4b14      	ldr	r3, [pc, #80]	; (15fc <xQueueGenericSend+0x148>)
    15aa:	4798      	blx	r3
				prvUnlockQueue( pxQueue );
    15ac:	0020      	movs	r0, r4
    15ae:	4b0f      	ldr	r3, [pc, #60]	; (15ec <xQueueGenericSend+0x138>)
    15b0:	4798      	blx	r3
				if( xTaskResumeAll() == pdFALSE )
    15b2:	4b0f      	ldr	r3, [pc, #60]	; (15f0 <xQueueGenericSend+0x13c>)
    15b4:	4798      	blx	r3
    15b6:	2800      	cmp	r0, #0
    15b8:	d1cb      	bne.n	1552 <xQueueGenericSend+0x9e>
					portYIELD_WITHIN_API();
    15ba:	4b08      	ldr	r3, [pc, #32]	; (15dc <xQueueGenericSend+0x128>)
    15bc:	4798      	blx	r3
    15be:	e7c8      	b.n	1552 <xQueueGenericSend+0x9e>
			prvUnlockQueue( pxQueue );
    15c0:	0020      	movs	r0, r4
    15c2:	4b0a      	ldr	r3, [pc, #40]	; (15ec <xQueueGenericSend+0x138>)
    15c4:	4798      	blx	r3
			( void ) xTaskResumeAll();
    15c6:	4b0a      	ldr	r3, [pc, #40]	; (15f0 <xQueueGenericSend+0x13c>)
    15c8:	4798      	blx	r3
			return errQUEUE_FULL;
    15ca:	2000      	movs	r0, #0
    15cc:	e79e      	b.n	150c <xQueueGenericSend+0x58>
    15ce:	46c0      	nop			; (mov r8, r8)
    15d0:	00000fb9 	.word	0x00000fb9
    15d4:	00001255 	.word	0x00001255
    15d8:	000012c1 	.word	0x000012c1
    15dc:	00000fa1 	.word	0x00000fa1
    15e0:	00000fd1 	.word	0x00000fd1
    15e4:	00001fa9 	.word	0x00001fa9
    15e8:	00002025 	.word	0x00002025
    15ec:	00001339 	.word	0x00001339
    15f0:	00001c61 	.word	0x00001c61
    15f4:	00001b15 	.word	0x00001b15
    15f8:	00002045 	.word	0x00002045
    15fc:	00001f11 	.word	0x00001f11

00001600 <xQueueGenericSendFromISR>:
{
    1600:	b570      	push	{r4, r5, r6, lr}
    1602:	0004      	movs	r4, r0
    1604:	0015      	movs	r5, r2
    1606:	001e      	movs	r6, r3
	configASSERT( pxQueue );
    1608:	2800      	cmp	r0, #0
    160a:	d009      	beq.n	1620 <xQueueGenericSendFromISR+0x20>
	configASSERT( !( ( pvItemToQueue == NULL ) && ( pxQueue->uxItemSize != ( unsigned portBASE_TYPE ) 0U ) ) );
    160c:	2900      	cmp	r1, #0
    160e:	d009      	beq.n	1624 <xQueueGenericSendFromISR+0x24>
	uxSavedInterruptStatus = portSET_INTERRUPT_MASK_FROM_ISR();
    1610:	b672      	cpsid	i
		if( pxQueue->uxMessagesWaiting < pxQueue->uxLength )
    1612:	6ba3      	ldr	r3, [r4, #56]	; 0x38
			xReturn = errQUEUE_FULL;
    1614:	2000      	movs	r0, #0
		if( pxQueue->uxMessagesWaiting < pxQueue->uxLength )
    1616:	6be2      	ldr	r2, [r4, #60]	; 0x3c
    1618:	4293      	cmp	r3, r2
    161a:	d308      	bcc.n	162e <xQueueGenericSendFromISR+0x2e>
	portCLEAR_INTERRUPT_MASK_FROM_ISR( uxSavedInterruptStatus );
    161c:	b662      	cpsie	i
}
    161e:	bd70      	pop	{r4, r5, r6, pc}
	configASSERT( pxQueue );
    1620:	b672      	cpsid	i
    1622:	e7fe      	b.n	1622 <xQueueGenericSendFromISR+0x22>
	configASSERT( !( ( pvItemToQueue == NULL ) && ( pxQueue->uxItemSize != ( unsigned portBASE_TYPE ) 0U ) ) );
    1624:	6c03      	ldr	r3, [r0, #64]	; 0x40
    1626:	2b00      	cmp	r3, #0
    1628:	d0f2      	beq.n	1610 <xQueueGenericSendFromISR+0x10>
    162a:	b672      	cpsid	i
    162c:	e7fe      	b.n	162c <xQueueGenericSendFromISR+0x2c>
			prvCopyDataToQueue( pxQueue, pvItemToQueue, xCopyPosition );
    162e:	0032      	movs	r2, r6
    1630:	0020      	movs	r0, r4
    1632:	4b16      	ldr	r3, [pc, #88]	; (168c <xQueueGenericSendFromISR+0x8c>)
    1634:	4798      	blx	r3
			if( pxQueue->xTxLock == queueUNLOCKED )
    1636:	6ca3      	ldr	r3, [r4, #72]	; 0x48
    1638:	3301      	adds	r3, #1
    163a:	d11e      	bne.n	167a <xQueueGenericSendFromISR+0x7a>
					if( pxQueue->pxQueueSetContainer != NULL )
    163c:	6ce3      	ldr	r3, [r4, #76]	; 0x4c
    163e:	2b00      	cmp	r3, #0
    1640:	d00a      	beq.n	1658 <xQueueGenericSendFromISR+0x58>
						if( prvNotifyQueueSetContainer( pxQueue, xCopyPosition ) == pdTRUE )
    1642:	0031      	movs	r1, r6
    1644:	0020      	movs	r0, r4
    1646:	4b12      	ldr	r3, [pc, #72]	; (1690 <xQueueGenericSendFromISR+0x90>)
    1648:	4798      	blx	r3
    164a:	2801      	cmp	r0, #1
    164c:	d11a      	bne.n	1684 <xQueueGenericSendFromISR+0x84>
							if( pxHigherPriorityTaskWoken != NULL )
    164e:	2d00      	cmp	r5, #0
    1650:	d0e4      	beq.n	161c <xQueueGenericSendFromISR+0x1c>
								*pxHigherPriorityTaskWoken = pdTRUE;
    1652:	2301      	movs	r3, #1
    1654:	602b      	str	r3, [r5, #0]
    1656:	e7e1      	b.n	161c <xQueueGenericSendFromISR+0x1c>
						if( listLIST_IS_EMPTY( &( pxQueue->xTasksWaitingToReceive ) ) == pdFALSE )
    1658:	6a63      	ldr	r3, [r4, #36]	; 0x24
			xReturn = pdPASS;
    165a:	2001      	movs	r0, #1
						if( listLIST_IS_EMPTY( &( pxQueue->xTasksWaitingToReceive ) ) == pdFALSE )
    165c:	2b00      	cmp	r3, #0
    165e:	d0dd      	beq.n	161c <xQueueGenericSendFromISR+0x1c>
							if( xTaskRemoveFromEventList( &( pxQueue->xTasksWaitingToReceive ) ) != pdFALSE )
    1660:	0020      	movs	r0, r4
    1662:	3024      	adds	r0, #36	; 0x24
    1664:	4b0b      	ldr	r3, [pc, #44]	; (1694 <xQueueGenericSendFromISR+0x94>)
    1666:	4798      	blx	r3
    1668:	0003      	movs	r3, r0
			xReturn = pdPASS;
    166a:	2001      	movs	r0, #1
							if( xTaskRemoveFromEventList( &( pxQueue->xTasksWaitingToReceive ) ) != pdFALSE )
    166c:	2b00      	cmp	r3, #0
    166e:	d0d5      	beq.n	161c <xQueueGenericSendFromISR+0x1c>
								if( pxHigherPriorityTaskWoken != NULL )
    1670:	2d00      	cmp	r5, #0
    1672:	d009      	beq.n	1688 <xQueueGenericSendFromISR+0x88>
									*pxHigherPriorityTaskWoken = pdTRUE;
    1674:	2301      	movs	r3, #1
    1676:	602b      	str	r3, [r5, #0]
    1678:	e7d0      	b.n	161c <xQueueGenericSendFromISR+0x1c>
				++( pxQueue->xTxLock );
    167a:	6ca3      	ldr	r3, [r4, #72]	; 0x48
    167c:	3301      	adds	r3, #1
    167e:	64a3      	str	r3, [r4, #72]	; 0x48
			xReturn = pdPASS;
    1680:	2001      	movs	r0, #1
    1682:	e7cb      	b.n	161c <xQueueGenericSendFromISR+0x1c>
    1684:	2001      	movs	r0, #1
    1686:	e7c9      	b.n	161c <xQueueGenericSendFromISR+0x1c>
    1688:	2001      	movs	r0, #1
    168a:	e7c7      	b.n	161c <xQueueGenericSendFromISR+0x1c>
    168c:	00001255 	.word	0x00001255
    1690:	000012c1 	.word	0x000012c1
    1694:	00001fa9 	.word	0x00001fa9

00001698 <xQueueGenericReceive>:
{
    1698:	b5f0      	push	{r4, r5, r6, r7, lr}
    169a:	46c6      	mov	lr, r8
    169c:	b500      	push	{lr}
    169e:	b084      	sub	sp, #16
    16a0:	0004      	movs	r4, r0
    16a2:	000e      	movs	r6, r1
    16a4:	9201      	str	r2, [sp, #4]
    16a6:	001f      	movs	r7, r3
	configASSERT( pxQueue );
    16a8:	2800      	cmp	r0, #0
    16aa:	d005      	beq.n	16b8 <xQueueGenericReceive+0x20>
    16ac:	2500      	movs	r5, #0
	configASSERT( !( ( pvBuffer == NULL ) && ( pxQueue->uxItemSize != ( unsigned portBASE_TYPE ) 0U ) ) );
    16ae:	2900      	cmp	r1, #0
    16b0:	d004      	beq.n	16bc <xQueueGenericReceive+0x24>
		taskENTER_CRITICAL();
    16b2:	4b4a      	ldr	r3, [pc, #296]	; (17dc <xQueueGenericReceive+0x144>)
    16b4:	4698      	mov	r8, r3
    16b6:	e053      	b.n	1760 <xQueueGenericReceive+0xc8>
	configASSERT( pxQueue );
    16b8:	b672      	cpsid	i
    16ba:	e7fe      	b.n	16ba <xQueueGenericReceive+0x22>
	configASSERT( !( ( pvBuffer == NULL ) && ( pxQueue->uxItemSize != ( unsigned portBASE_TYPE ) 0U ) ) );
    16bc:	6c03      	ldr	r3, [r0, #64]	; 0x40
    16be:	2b00      	cmp	r3, #0
    16c0:	d001      	beq.n	16c6 <xQueueGenericReceive+0x2e>
    16c2:	b672      	cpsid	i
    16c4:	e7fe      	b.n	16c4 <xQueueGenericReceive+0x2c>
    16c6:	2500      	movs	r5, #0
    16c8:	e7f3      	b.n	16b2 <xQueueGenericReceive+0x1a>
				pcOriginalReadPosition = pxQueue->pcReadFrom;
    16ca:	68e5      	ldr	r5, [r4, #12]
				prvCopyDataFromQueue( pxQueue, pvBuffer );
    16cc:	0031      	movs	r1, r6
    16ce:	0020      	movs	r0, r4
    16d0:	4b43      	ldr	r3, [pc, #268]	; (17e0 <xQueueGenericReceive+0x148>)
    16d2:	4798      	blx	r3
				if( xJustPeeking == pdFALSE )
    16d4:	2f00      	cmp	r7, #0
    16d6:	d11a      	bne.n	170e <xQueueGenericReceive+0x76>
					--( pxQueue->uxMessagesWaiting );
    16d8:	6ba3      	ldr	r3, [r4, #56]	; 0x38
    16da:	3b01      	subs	r3, #1
    16dc:	63a3      	str	r3, [r4, #56]	; 0x38
						if( pxQueue->uxQueueType == queueQUEUE_IS_MUTEX )
    16de:	6823      	ldr	r3, [r4, #0]
    16e0:	2b00      	cmp	r3, #0
    16e2:	d102      	bne.n	16ea <xQueueGenericReceive+0x52>
							pxQueue->pxMutexHolder = xTaskGetCurrentTaskHandle();
    16e4:	4b3f      	ldr	r3, [pc, #252]	; (17e4 <xQueueGenericReceive+0x14c>)
    16e6:	4798      	blx	r3
    16e8:	6060      	str	r0, [r4, #4]
					if( listLIST_IS_EMPTY( &( pxQueue->xTasksWaitingToSend ) ) == pdFALSE )
    16ea:	6923      	ldr	r3, [r4, #16]
    16ec:	2b00      	cmp	r3, #0
    16ee:	d007      	beq.n	1700 <xQueueGenericReceive+0x68>
						if( xTaskRemoveFromEventList( &( pxQueue->xTasksWaitingToSend ) ) == pdTRUE )
    16f0:	0020      	movs	r0, r4
    16f2:	3010      	adds	r0, #16
    16f4:	4b3c      	ldr	r3, [pc, #240]	; (17e8 <xQueueGenericReceive+0x150>)
    16f6:	4798      	blx	r3
    16f8:	2801      	cmp	r0, #1
    16fa:	d101      	bne.n	1700 <xQueueGenericReceive+0x68>
							portYIELD_WITHIN_API();
    16fc:	4b3b      	ldr	r3, [pc, #236]	; (17ec <xQueueGenericReceive+0x154>)
    16fe:	4798      	blx	r3
				taskEXIT_CRITICAL();
    1700:	4b3b      	ldr	r3, [pc, #236]	; (17f0 <xQueueGenericReceive+0x158>)
    1702:	4798      	blx	r3
				return pdPASS;
    1704:	2001      	movs	r0, #1
}
    1706:	b004      	add	sp, #16
    1708:	bc04      	pop	{r2}
    170a:	4690      	mov	r8, r2
    170c:	bdf0      	pop	{r4, r5, r6, r7, pc}
					pxQueue->pcReadFrom = pcOriginalReadPosition;
    170e:	60e5      	str	r5, [r4, #12]
					if( listLIST_IS_EMPTY( &( pxQueue->xTasksWaitingToReceive ) ) == pdFALSE )
    1710:	6a63      	ldr	r3, [r4, #36]	; 0x24
    1712:	2b00      	cmp	r3, #0
    1714:	d0f4      	beq.n	1700 <xQueueGenericReceive+0x68>
						if( xTaskRemoveFromEventList( &( pxQueue->xTasksWaitingToReceive ) ) != pdFALSE )
    1716:	0020      	movs	r0, r4
    1718:	3024      	adds	r0, #36	; 0x24
    171a:	4b33      	ldr	r3, [pc, #204]	; (17e8 <xQueueGenericReceive+0x150>)
    171c:	4798      	blx	r3
    171e:	2800      	cmp	r0, #0
    1720:	d0ee      	beq.n	1700 <xQueueGenericReceive+0x68>
							portYIELD_WITHIN_API();
    1722:	4b32      	ldr	r3, [pc, #200]	; (17ec <xQueueGenericReceive+0x154>)
    1724:	4798      	blx	r3
    1726:	e7eb      	b.n	1700 <xQueueGenericReceive+0x68>
					taskEXIT_CRITICAL();
    1728:	4b31      	ldr	r3, [pc, #196]	; (17f0 <xQueueGenericReceive+0x158>)
    172a:	4798      	blx	r3
					return errQUEUE_EMPTY;
    172c:	2000      	movs	r0, #0
    172e:	e7ea      	b.n	1706 <xQueueGenericReceive+0x6e>
					vTaskSetTimeOutState( &xTimeOut );
    1730:	a802      	add	r0, sp, #8
    1732:	4b30      	ldr	r3, [pc, #192]	; (17f4 <xQueueGenericReceive+0x15c>)
    1734:	4798      	blx	r3
    1736:	e01c      	b.n	1772 <xQueueGenericReceive+0xda>
		prvLockQueue( pxQueue );
    1738:	2300      	movs	r3, #0
    173a:	6463      	str	r3, [r4, #68]	; 0x44
    173c:	e022      	b.n	1784 <xQueueGenericReceive+0xec>
    173e:	2300      	movs	r3, #0
    1740:	64a3      	str	r3, [r4, #72]	; 0x48
    1742:	e022      	b.n	178a <xQueueGenericReceive+0xf2>
						portENTER_CRITICAL();
    1744:	4b25      	ldr	r3, [pc, #148]	; (17dc <xQueueGenericReceive+0x144>)
    1746:	4798      	blx	r3
							vTaskPriorityInherit( ( void * ) pxQueue->pxMutexHolder );
    1748:	6860      	ldr	r0, [r4, #4]
    174a:	4b2b      	ldr	r3, [pc, #172]	; (17f8 <xQueueGenericReceive+0x160>)
    174c:	4798      	blx	r3
						portEXIT_CRITICAL();
    174e:	4b28      	ldr	r3, [pc, #160]	; (17f0 <xQueueGenericReceive+0x158>)
    1750:	4798      	blx	r3
    1752:	e02c      	b.n	17ae <xQueueGenericReceive+0x116>
				prvUnlockQueue( pxQueue );
    1754:	0020      	movs	r0, r4
    1756:	4b29      	ldr	r3, [pc, #164]	; (17fc <xQueueGenericReceive+0x164>)
    1758:	4798      	blx	r3
				( void ) xTaskResumeAll();
    175a:	4b29      	ldr	r3, [pc, #164]	; (1800 <xQueueGenericReceive+0x168>)
    175c:	4798      	blx	r3
    175e:	2501      	movs	r5, #1
		taskENTER_CRITICAL();
    1760:	47c0      	blx	r8
			if( pxQueue->uxMessagesWaiting > ( unsigned portBASE_TYPE ) 0 )
    1762:	6ba3      	ldr	r3, [r4, #56]	; 0x38
    1764:	2b00      	cmp	r3, #0
    1766:	d1b0      	bne.n	16ca <xQueueGenericReceive+0x32>
				if( xTicksToWait == ( portTickType ) 0 )
    1768:	9b01      	ldr	r3, [sp, #4]
    176a:	2b00      	cmp	r3, #0
    176c:	d0dc      	beq.n	1728 <xQueueGenericReceive+0x90>
				else if( xEntryTimeSet == pdFALSE )
    176e:	2d00      	cmp	r5, #0
    1770:	d0de      	beq.n	1730 <xQueueGenericReceive+0x98>
		taskEXIT_CRITICAL();
    1772:	4b1f      	ldr	r3, [pc, #124]	; (17f0 <xQueueGenericReceive+0x158>)
    1774:	4798      	blx	r3
		vTaskSuspendAll();
    1776:	4b23      	ldr	r3, [pc, #140]	; (1804 <xQueueGenericReceive+0x16c>)
    1778:	4798      	blx	r3
		prvLockQueue( pxQueue );
    177a:	4b18      	ldr	r3, [pc, #96]	; (17dc <xQueueGenericReceive+0x144>)
    177c:	4798      	blx	r3
    177e:	6c63      	ldr	r3, [r4, #68]	; 0x44
    1780:	3301      	adds	r3, #1
    1782:	d0d9      	beq.n	1738 <xQueueGenericReceive+0xa0>
    1784:	6ca3      	ldr	r3, [r4, #72]	; 0x48
    1786:	3301      	adds	r3, #1
    1788:	d0d9      	beq.n	173e <xQueueGenericReceive+0xa6>
    178a:	4b19      	ldr	r3, [pc, #100]	; (17f0 <xQueueGenericReceive+0x158>)
    178c:	4798      	blx	r3
		if( xTaskCheckForTimeOut( &xTimeOut, &xTicksToWait ) == pdFALSE )
    178e:	a901      	add	r1, sp, #4
    1790:	a802      	add	r0, sp, #8
    1792:	4b1d      	ldr	r3, [pc, #116]	; (1808 <xQueueGenericReceive+0x170>)
    1794:	4798      	blx	r3
    1796:	2800      	cmp	r0, #0
    1798:	d118      	bne.n	17cc <xQueueGenericReceive+0x134>
	taskENTER_CRITICAL();
    179a:	4b10      	ldr	r3, [pc, #64]	; (17dc <xQueueGenericReceive+0x144>)
    179c:	4798      	blx	r3
		if( pxQueue->uxMessagesWaiting == 0 )
    179e:	6ba5      	ldr	r5, [r4, #56]	; 0x38
	taskEXIT_CRITICAL();
    17a0:	4b13      	ldr	r3, [pc, #76]	; (17f0 <xQueueGenericReceive+0x158>)
    17a2:	4798      	blx	r3
			if( prvIsQueueEmpty( pxQueue ) != pdFALSE )
    17a4:	2d00      	cmp	r5, #0
    17a6:	d1d5      	bne.n	1754 <xQueueGenericReceive+0xbc>
					if( pxQueue->uxQueueType == queueQUEUE_IS_MUTEX )
    17a8:	6823      	ldr	r3, [r4, #0]
    17aa:	2b00      	cmp	r3, #0
    17ac:	d0ca      	beq.n	1744 <xQueueGenericReceive+0xac>
				vTaskPlaceOnEventList( &( pxQueue->xTasksWaitingToReceive ), xTicksToWait );
    17ae:	0020      	movs	r0, r4
    17b0:	3024      	adds	r0, #36	; 0x24
    17b2:	9901      	ldr	r1, [sp, #4]
    17b4:	4b15      	ldr	r3, [pc, #84]	; (180c <xQueueGenericReceive+0x174>)
    17b6:	4798      	blx	r3
				prvUnlockQueue( pxQueue );
    17b8:	0020      	movs	r0, r4
    17ba:	4b10      	ldr	r3, [pc, #64]	; (17fc <xQueueGenericReceive+0x164>)
    17bc:	4798      	blx	r3
				if( xTaskResumeAll() == pdFALSE )
    17be:	4b10      	ldr	r3, [pc, #64]	; (1800 <xQueueGenericReceive+0x168>)
    17c0:	4798      	blx	r3
    17c2:	2800      	cmp	r0, #0
    17c4:	d1cb      	bne.n	175e <xQueueGenericReceive+0xc6>
					portYIELD_WITHIN_API();
    17c6:	4b09      	ldr	r3, [pc, #36]	; (17ec <xQueueGenericReceive+0x154>)
    17c8:	4798      	blx	r3
    17ca:	e7c8      	b.n	175e <xQueueGenericReceive+0xc6>
			prvUnlockQueue( pxQueue );
    17cc:	0020      	movs	r0, r4
    17ce:	4b0b      	ldr	r3, [pc, #44]	; (17fc <xQueueGenericReceive+0x164>)
    17d0:	4798      	blx	r3
			( void ) xTaskResumeAll();
    17d2:	4b0b      	ldr	r3, [pc, #44]	; (1800 <xQueueGenericReceive+0x168>)
    17d4:	4798      	blx	r3
			return errQUEUE_EMPTY;
    17d6:	2000      	movs	r0, #0
    17d8:	e795      	b.n	1706 <xQueueGenericReceive+0x6e>
    17da:	46c0      	nop			; (mov r8, r8)
    17dc:	00000fb9 	.word	0x00000fb9
    17e0:	00001311 	.word	0x00001311
    17e4:	000020c9 	.word	0x000020c9
    17e8:	00001fa9 	.word	0x00001fa9
    17ec:	00000fa1 	.word	0x00000fa1
    17f0:	00000fd1 	.word	0x00000fd1
    17f4:	00002025 	.word	0x00002025
    17f8:	000020f5 	.word	0x000020f5
    17fc:	00001339 	.word	0x00001339
    1800:	00001c61 	.word	0x00001c61
    1804:	00001b15 	.word	0x00001b15
    1808:	00002045 	.word	0x00002045
    180c:	00001f11 	.word	0x00001f11

00001810 <vQueueWaitForMessageRestricted>:
	{
    1810:	b570      	push	{r4, r5, r6, lr}
    1812:	0004      	movs	r4, r0
    1814:	000d      	movs	r5, r1
		prvLockQueue( pxQueue );
    1816:	4b0e      	ldr	r3, [pc, #56]	; (1850 <vQueueWaitForMessageRestricted+0x40>)
    1818:	4798      	blx	r3
    181a:	6c63      	ldr	r3, [r4, #68]	; 0x44
    181c:	3301      	adds	r3, #1
    181e:	d00b      	beq.n	1838 <vQueueWaitForMessageRestricted+0x28>
    1820:	6ca3      	ldr	r3, [r4, #72]	; 0x48
    1822:	3301      	adds	r3, #1
    1824:	d00b      	beq.n	183e <vQueueWaitForMessageRestricted+0x2e>
    1826:	4b0b      	ldr	r3, [pc, #44]	; (1854 <vQueueWaitForMessageRestricted+0x44>)
    1828:	4798      	blx	r3
		if( pxQueue->uxMessagesWaiting == ( unsigned portBASE_TYPE ) 0U )
    182a:	6ba3      	ldr	r3, [r4, #56]	; 0x38
    182c:	2b00      	cmp	r3, #0
    182e:	d009      	beq.n	1844 <vQueueWaitForMessageRestricted+0x34>
		prvUnlockQueue( pxQueue );
    1830:	0020      	movs	r0, r4
    1832:	4b09      	ldr	r3, [pc, #36]	; (1858 <vQueueWaitForMessageRestricted+0x48>)
    1834:	4798      	blx	r3
	}
    1836:	bd70      	pop	{r4, r5, r6, pc}
		prvLockQueue( pxQueue );
    1838:	2300      	movs	r3, #0
    183a:	6463      	str	r3, [r4, #68]	; 0x44
    183c:	e7f0      	b.n	1820 <vQueueWaitForMessageRestricted+0x10>
    183e:	2300      	movs	r3, #0
    1840:	64a3      	str	r3, [r4, #72]	; 0x48
    1842:	e7f0      	b.n	1826 <vQueueWaitForMessageRestricted+0x16>
			vTaskPlaceOnEventListRestricted( &( pxQueue->xTasksWaitingToReceive ), xTicksToWait );
    1844:	0020      	movs	r0, r4
    1846:	3024      	adds	r0, #36	; 0x24
    1848:	0029      	movs	r1, r5
    184a:	4b04      	ldr	r3, [pc, #16]	; (185c <vQueueWaitForMessageRestricted+0x4c>)
    184c:	4798      	blx	r3
    184e:	e7ef      	b.n	1830 <vQueueWaitForMessageRestricted+0x20>
    1850:	00000fb9 	.word	0x00000fb9
    1854:	00000fd1 	.word	0x00000fd1
    1858:	00001339 	.word	0x00001339
    185c:	00001f69 	.word	0x00001f69

00001860 <prvAddCurrentTaskToDelayedList>:
	#endif /* vTaskDelete */
}
/*-----------------------------------------------------------*/

static void prvAddCurrentTaskToDelayedList( portTickType xTimeToWake )
{
    1860:	b510      	push	{r4, lr}
    1862:	0004      	movs	r4, r0
	/* The list item will be inserted in wake time order. */
	listSET_LIST_ITEM_VALUE( &( pxCurrentTCB->xGenericListItem ), xTimeToWake );
    1864:	4b0e      	ldr	r3, [pc, #56]	; (18a0 <prvAddCurrentTaskToDelayedList+0x40>)
    1866:	681b      	ldr	r3, [r3, #0]
    1868:	6058      	str	r0, [r3, #4]

	if( xTimeToWake < xTickCount )
    186a:	4b0e      	ldr	r3, [pc, #56]	; (18a4 <prvAddCurrentTaskToDelayedList+0x44>)
    186c:	681b      	ldr	r3, [r3, #0]
    186e:	4298      	cmp	r0, r3
    1870:	d30d      	bcc.n	188e <prvAddCurrentTaskToDelayedList+0x2e>
		vListInsert( ( xList * ) pxOverflowDelayedTaskList, ( xListItem * ) &( pxCurrentTCB->xGenericListItem ) );
	}
	else
	{
		/* The wake time has not overflowed, so we can use the current block list. */
		vListInsert( ( xList * ) pxDelayedTaskList, ( xListItem * ) &( pxCurrentTCB->xGenericListItem ) );
    1872:	4b0d      	ldr	r3, [pc, #52]	; (18a8 <prvAddCurrentTaskToDelayedList+0x48>)
    1874:	6818      	ldr	r0, [r3, #0]
    1876:	4b0a      	ldr	r3, [pc, #40]	; (18a0 <prvAddCurrentTaskToDelayedList+0x40>)
    1878:	6819      	ldr	r1, [r3, #0]
    187a:	3104      	adds	r1, #4
    187c:	4b0b      	ldr	r3, [pc, #44]	; (18ac <prvAddCurrentTaskToDelayedList+0x4c>)
    187e:	4798      	blx	r3

		/* If the task entering the blocked state was placed at the head of the
		list of blocked tasks then xNextTaskUnblockTime needs to be updated
		too. */
		if( xTimeToWake < xNextTaskUnblockTime )
    1880:	4b0b      	ldr	r3, [pc, #44]	; (18b0 <prvAddCurrentTaskToDelayedList+0x50>)
    1882:	681b      	ldr	r3, [r3, #0]
    1884:	429c      	cmp	r4, r3
    1886:	d209      	bcs.n	189c <prvAddCurrentTaskToDelayedList+0x3c>
		{
			xNextTaskUnblockTime = xTimeToWake;
    1888:	4b09      	ldr	r3, [pc, #36]	; (18b0 <prvAddCurrentTaskToDelayedList+0x50>)
    188a:	601c      	str	r4, [r3, #0]
		}
	}
}
    188c:	e006      	b.n	189c <prvAddCurrentTaskToDelayedList+0x3c>
		vListInsert( ( xList * ) pxOverflowDelayedTaskList, ( xListItem * ) &( pxCurrentTCB->xGenericListItem ) );
    188e:	4b09      	ldr	r3, [pc, #36]	; (18b4 <prvAddCurrentTaskToDelayedList+0x54>)
    1890:	6818      	ldr	r0, [r3, #0]
    1892:	4b03      	ldr	r3, [pc, #12]	; (18a0 <prvAddCurrentTaskToDelayedList+0x40>)
    1894:	6819      	ldr	r1, [r3, #0]
    1896:	3104      	adds	r1, #4
    1898:	4b04      	ldr	r3, [pc, #16]	; (18ac <prvAddCurrentTaskToDelayedList+0x4c>)
    189a:	4798      	blx	r3
}
    189c:	bd10      	pop	{r4, pc}
    189e:	46c0      	nop			; (mov r8, r8)
    18a0:	200008b8 	.word	0x200008b8
    18a4:	200009b4 	.word	0x200009b4
    18a8:	200008bc 	.word	0x200008bc
    18ac:	000011f5 	.word	0x000011f5
    18b0:	20000024 	.word	0x20000024
    18b4:	200008c0 	.word	0x200008c0

000018b8 <xTaskGenericCreate>:
{
    18b8:	b5f0      	push	{r4, r5, r6, r7, lr}
    18ba:	46d6      	mov	lr, sl
    18bc:	464f      	mov	r7, r9
    18be:	b580      	push	{r7, lr}
    18c0:	b083      	sub	sp, #12
    18c2:	0005      	movs	r5, r0
    18c4:	9100      	str	r1, [sp, #0]
    18c6:	0016      	movs	r6, r2
    18c8:	9301      	str	r3, [sp, #4]
    18ca:	9b0a      	ldr	r3, [sp, #40]	; 0x28
    18cc:	4699      	mov	r9, r3
    18ce:	9f0c      	ldr	r7, [sp, #48]	; 0x30
	configASSERT( pxTaskCode );
    18d0:	2800      	cmp	r0, #0
    18d2:	d003      	beq.n	18dc <xTaskGenericCreate+0x24>
	configASSERT( ( ( uxPriority & ( ~portPRIVILEGE_BIT ) ) < configMAX_PRIORITIES ) );
    18d4:	2b04      	cmp	r3, #4
    18d6:	d903      	bls.n	18e0 <xTaskGenericCreate+0x28>
    18d8:	b672      	cpsid	i
    18da:	e7fe      	b.n	18da <xTaskGenericCreate+0x22>
	configASSERT( pxTaskCode );
    18dc:	b672      	cpsid	i
    18de:	e7fe      	b.n	18de <xTaskGenericCreate+0x26>
{
tskTCB *pxNewTCB;

	/* Allocate space for the TCB.  Where the memory comes from depends on
	the implementation of the port malloc function. */
	pxNewTCB = ( tskTCB * ) pvPortMalloc( sizeof( tskTCB ) );
    18e0:	2040      	movs	r0, #64	; 0x40
    18e2:	4b5a      	ldr	r3, [pc, #360]	; (1a4c <xTaskGenericCreate+0x194>)
    18e4:	4798      	blx	r3
    18e6:	1e04      	subs	r4, r0, #0

	if( pxNewTCB != NULL )
    18e8:	d00c      	beq.n	1904 <xTaskGenericCreate+0x4c>
	{
		/* Allocate space for the stack used by the task being created.
		The base of the stack memory stored in the TCB so the task can
		be deleted later if required. */
		pxNewTCB->pxStack = ( portSTACK_TYPE * ) pvPortMallocAligned( ( ( ( size_t )usStackDepth ) * sizeof( portSTACK_TYPE ) ), puxStackBuffer );
    18ea:	2f00      	cmp	r7, #0
    18ec:	d000      	beq.n	18f0 <xTaskGenericCreate+0x38>
    18ee:	e078      	b.n	19e2 <xTaskGenericCreate+0x12a>
    18f0:	00b0      	lsls	r0, r6, #2
    18f2:	4b56      	ldr	r3, [pc, #344]	; (1a4c <xTaskGenericCreate+0x194>)
    18f4:	4798      	blx	r3
    18f6:	1e07      	subs	r7, r0, #0
    18f8:	6320      	str	r0, [r4, #48]	; 0x30

		if( pxNewTCB->pxStack == NULL )
    18fa:	d000      	beq.n	18fe <xTaskGenericCreate+0x46>
    18fc:	e072      	b.n	19e4 <xTaskGenericCreate+0x12c>
		{
			/* Could not allocate the stack.  Delete the allocated TCB. */
			vPortFree( pxNewTCB );
    18fe:	0020      	movs	r0, r4
    1900:	4b53      	ldr	r3, [pc, #332]	; (1a50 <xTaskGenericCreate+0x198>)
    1902:	4798      	blx	r3
		xReturn = errCOULD_NOT_ALLOCATE_REQUIRED_MEMORY;
    1904:	2001      	movs	r0, #1
    1906:	4240      	negs	r0, r0
    1908:	e05a      	b.n	19c0 <xTaskGenericCreate+0x108>
		if( ( void * ) pxCreatedTask != NULL )
    190a:	9b0b      	ldr	r3, [sp, #44]	; 0x2c
    190c:	2b00      	cmp	r3, #0
    190e:	d000      	beq.n	1912 <xTaskGenericCreate+0x5a>
			*pxCreatedTask = ( xTaskHandle ) pxNewTCB;
    1910:	601c      	str	r4, [r3, #0]
		taskENTER_CRITICAL();
    1912:	4b50      	ldr	r3, [pc, #320]	; (1a54 <xTaskGenericCreate+0x19c>)
    1914:	4798      	blx	r3
			uxCurrentNumberOfTasks++;
    1916:	4a50      	ldr	r2, [pc, #320]	; (1a58 <xTaskGenericCreate+0x1a0>)
    1918:	6813      	ldr	r3, [r2, #0]
    191a:	3301      	adds	r3, #1
    191c:	6013      	str	r3, [r2, #0]
			if( pxCurrentTCB == NULL )
    191e:	4b4f      	ldr	r3, [pc, #316]	; (1a5c <xTaskGenericCreate+0x1a4>)
    1920:	681b      	ldr	r3, [r3, #0]
    1922:	2b00      	cmp	r3, #0
    1924:	d151      	bne.n	19ca <xTaskGenericCreate+0x112>
				pxCurrentTCB =  pxNewTCB;
    1926:	4b4d      	ldr	r3, [pc, #308]	; (1a5c <xTaskGenericCreate+0x1a4>)
    1928:	601c      	str	r4, [r3, #0]
				if( uxCurrentNumberOfTasks == ( unsigned portBASE_TYPE ) 1 )
    192a:	6813      	ldr	r3, [r2, #0]
    192c:	2b01      	cmp	r3, #1
    192e:	d11f      	bne.n	1970 <xTaskGenericCreate+0xb8>
		vListInitialise( ( xList * ) &( pxReadyTasksLists[ uxPriority ] ) );
    1930:	4e4b      	ldr	r6, [pc, #300]	; (1a60 <xTaskGenericCreate+0x1a8>)
    1932:	0030      	movs	r0, r6
    1934:	4d4b      	ldr	r5, [pc, #300]	; (1a64 <xTaskGenericCreate+0x1ac>)
    1936:	47a8      	blx	r5
    1938:	0030      	movs	r0, r6
    193a:	3014      	adds	r0, #20
    193c:	47a8      	blx	r5
    193e:	0030      	movs	r0, r6
    1940:	3028      	adds	r0, #40	; 0x28
    1942:	47a8      	blx	r5
    1944:	0030      	movs	r0, r6
    1946:	303c      	adds	r0, #60	; 0x3c
    1948:	47a8      	blx	r5
    194a:	0030      	movs	r0, r6
    194c:	3050      	adds	r0, #80	; 0x50
    194e:	47a8      	blx	r5
	vListInitialise( ( xList * ) &xDelayedTaskList1 );
    1950:	4f45      	ldr	r7, [pc, #276]	; (1a68 <xTaskGenericCreate+0x1b0>)
    1952:	0038      	movs	r0, r7
    1954:	47a8      	blx	r5
	vListInitialise( ( xList * ) &xDelayedTaskList2 );
    1956:	4e45      	ldr	r6, [pc, #276]	; (1a6c <xTaskGenericCreate+0x1b4>)
    1958:	0030      	movs	r0, r6
    195a:	47a8      	blx	r5
	vListInitialise( ( xList * ) &xPendingReadyList );
    195c:	4844      	ldr	r0, [pc, #272]	; (1a70 <xTaskGenericCreate+0x1b8>)
    195e:	47a8      	blx	r5
		vListInitialise( ( xList * ) &xTasksWaitingTermination );
    1960:	4844      	ldr	r0, [pc, #272]	; (1a74 <xTaskGenericCreate+0x1bc>)
    1962:	47a8      	blx	r5
		vListInitialise( ( xList * ) &xSuspendedTaskList );
    1964:	4844      	ldr	r0, [pc, #272]	; (1a78 <xTaskGenericCreate+0x1c0>)
    1966:	47a8      	blx	r5
	pxDelayedTaskList = &xDelayedTaskList1;
    1968:	4b44      	ldr	r3, [pc, #272]	; (1a7c <xTaskGenericCreate+0x1c4>)
    196a:	601f      	str	r7, [r3, #0]
	pxOverflowDelayedTaskList = &xDelayedTaskList2;
    196c:	4b44      	ldr	r3, [pc, #272]	; (1a80 <xTaskGenericCreate+0x1c8>)
    196e:	601e      	str	r6, [r3, #0]
			if( pxNewTCB->uxPriority > uxTopUsedPriority )
    1970:	6ae3      	ldr	r3, [r4, #44]	; 0x2c
    1972:	4a44      	ldr	r2, [pc, #272]	; (1a84 <xTaskGenericCreate+0x1cc>)
    1974:	6812      	ldr	r2, [r2, #0]
    1976:	4293      	cmp	r3, r2
    1978:	d901      	bls.n	197e <xTaskGenericCreate+0xc6>
				uxTopUsedPriority = pxNewTCB->uxPriority;
    197a:	4a42      	ldr	r2, [pc, #264]	; (1a84 <xTaskGenericCreate+0x1cc>)
    197c:	6013      	str	r3, [r2, #0]
			uxTaskNumber++;
    197e:	4942      	ldr	r1, [pc, #264]	; (1a88 <xTaskGenericCreate+0x1d0>)
    1980:	680a      	ldr	r2, [r1, #0]
    1982:	3201      	adds	r2, #1
    1984:	600a      	str	r2, [r1, #0]
			prvAddTaskToReadyQueue( pxNewTCB );
    1986:	4a41      	ldr	r2, [pc, #260]	; (1a8c <xTaskGenericCreate+0x1d4>)
    1988:	6812      	ldr	r2, [r2, #0]
    198a:	4293      	cmp	r3, r2
    198c:	d901      	bls.n	1992 <xTaskGenericCreate+0xda>
    198e:	4a3f      	ldr	r2, [pc, #252]	; (1a8c <xTaskGenericCreate+0x1d4>)
    1990:	6013      	str	r3, [r2, #0]
    1992:	009a      	lsls	r2, r3, #2
    1994:	18d3      	adds	r3, r2, r3
    1996:	009b      	lsls	r3, r3, #2
    1998:	4831      	ldr	r0, [pc, #196]	; (1a60 <xTaskGenericCreate+0x1a8>)
    199a:	18c0      	adds	r0, r0, r3
    199c:	9900      	ldr	r1, [sp, #0]
    199e:	4b3c      	ldr	r3, [pc, #240]	; (1a90 <xTaskGenericCreate+0x1d8>)
    19a0:	4798      	blx	r3
		taskEXIT_CRITICAL();
    19a2:	4b3c      	ldr	r3, [pc, #240]	; (1a94 <xTaskGenericCreate+0x1dc>)
    19a4:	4798      	blx	r3
		if( xSchedulerRunning != pdFALSE )
    19a6:	4b3c      	ldr	r3, [pc, #240]	; (1a98 <xTaskGenericCreate+0x1e0>)
    19a8:	681b      	ldr	r3, [r3, #0]
    19aa:	2001      	movs	r0, #1
    19ac:	2b00      	cmp	r3, #0
    19ae:	d007      	beq.n	19c0 <xTaskGenericCreate+0x108>
			if( pxCurrentTCB->uxPriority < uxPriority )
    19b0:	4b2a      	ldr	r3, [pc, #168]	; (1a5c <xTaskGenericCreate+0x1a4>)
    19b2:	681b      	ldr	r3, [r3, #0]
    19b4:	6adb      	ldr	r3, [r3, #44]	; 0x2c
    19b6:	4599      	cmp	r9, r3
    19b8:	d902      	bls.n	19c0 <xTaskGenericCreate+0x108>
				portYIELD_WITHIN_API();
    19ba:	4b38      	ldr	r3, [pc, #224]	; (1a9c <xTaskGenericCreate+0x1e4>)
    19bc:	4798      	blx	r3
    19be:	2001      	movs	r0, #1
}
    19c0:	b003      	add	sp, #12
    19c2:	bc0c      	pop	{r2, r3}
    19c4:	4691      	mov	r9, r2
    19c6:	469a      	mov	sl, r3
    19c8:	bdf0      	pop	{r4, r5, r6, r7, pc}
				if( xSchedulerRunning == pdFALSE )
    19ca:	4b33      	ldr	r3, [pc, #204]	; (1a98 <xTaskGenericCreate+0x1e0>)
    19cc:	681b      	ldr	r3, [r3, #0]
    19ce:	2b00      	cmp	r3, #0
    19d0:	d1ce      	bne.n	1970 <xTaskGenericCreate+0xb8>
					if( pxCurrentTCB->uxPriority <= uxPriority )
    19d2:	4b22      	ldr	r3, [pc, #136]	; (1a5c <xTaskGenericCreate+0x1a4>)
    19d4:	681b      	ldr	r3, [r3, #0]
    19d6:	6adb      	ldr	r3, [r3, #44]	; 0x2c
    19d8:	4599      	cmp	r9, r3
    19da:	d3c9      	bcc.n	1970 <xTaskGenericCreate+0xb8>
						pxCurrentTCB = pxNewTCB;
    19dc:	4b1f      	ldr	r3, [pc, #124]	; (1a5c <xTaskGenericCreate+0x1a4>)
    19de:	601c      	str	r4, [r3, #0]
    19e0:	e7c6      	b.n	1970 <xTaskGenericCreate+0xb8>
		pxNewTCB->pxStack = ( portSTACK_TYPE * ) pvPortMallocAligned( ( ( ( size_t )usStackDepth ) * sizeof( portSTACK_TYPE ) ), puxStackBuffer );
    19e2:	6307      	str	r7, [r0, #48]	; 0x30
			pxNewTCB = NULL;
		}
		else
		{
			/* Just to help debugging. */
			memset( pxNewTCB->pxStack, ( int ) tskSTACK_FILL_BYTE, ( size_t ) usStackDepth * sizeof( portSTACK_TYPE ) );
    19e4:	00b2      	lsls	r2, r6, #2
    19e6:	21a5      	movs	r1, #165	; 0xa5
    19e8:	0038      	movs	r0, r7
    19ea:	4b2d      	ldr	r3, [pc, #180]	; (1aa0 <xTaskGenericCreate+0x1e8>)
    19ec:	4798      	blx	r3
			pxTopOfStack = pxNewTCB->pxStack + ( usStackDepth - ( unsigned short ) 1 );
    19ee:	4b2d      	ldr	r3, [pc, #180]	; (1aa4 <xTaskGenericCreate+0x1ec>)
    19f0:	18f3      	adds	r3, r6, r3
    19f2:	009b      	lsls	r3, r3, #2
    19f4:	6b22      	ldr	r2, [r4, #48]	; 0x30
    19f6:	4694      	mov	ip, r2
    19f8:	4463      	add	r3, ip
			pxTopOfStack = ( portSTACK_TYPE * ) ( ( ( portPOINTER_SIZE_TYPE ) pxTopOfStack ) & ( ( portPOINTER_SIZE_TYPE ) ~portBYTE_ALIGNMENT_MASK  ) );
    19fa:	2607      	movs	r6, #7
    19fc:	43b3      	bics	r3, r6
    19fe:	469a      	mov	sl, r3
		strncpy( ( char * ) pxTCB->pcTaskName, ( const char * ) pcName, ( unsigned short ) configMAX_TASK_NAME_LEN );
    1a00:	0020      	movs	r0, r4
    1a02:	3034      	adds	r0, #52	; 0x34
    1a04:	2208      	movs	r2, #8
    1a06:	9900      	ldr	r1, [sp, #0]
    1a08:	4b27      	ldr	r3, [pc, #156]	; (1aa8 <xTaskGenericCreate+0x1f0>)
    1a0a:	4798      	blx	r3
	pxTCB->pcTaskName[ ( unsigned short ) configMAX_TASK_NAME_LEN - ( unsigned short ) 1 ] = ( signed char ) '\0';
    1a0c:	2200      	movs	r2, #0
    1a0e:	233b      	movs	r3, #59	; 0x3b
    1a10:	54e2      	strb	r2, [r4, r3]
	pxTCB->uxPriority = uxPriority;
    1a12:	464b      	mov	r3, r9
    1a14:	62e3      	str	r3, [r4, #44]	; 0x2c
		pxTCB->uxBasePriority = uxPriority;
    1a16:	63e3      	str	r3, [r4, #60]	; 0x3c
	vListInitialiseItem( &( pxTCB->xGenericListItem ) );
    1a18:	1d23      	adds	r3, r4, #4
    1a1a:	9300      	str	r3, [sp, #0]
    1a1c:	0018      	movs	r0, r3
    1a1e:	4f23      	ldr	r7, [pc, #140]	; (1aac <xTaskGenericCreate+0x1f4>)
    1a20:	47b8      	blx	r7
	vListInitialiseItem( &( pxTCB->xEventListItem ) );
    1a22:	0020      	movs	r0, r4
    1a24:	3018      	adds	r0, #24
    1a26:	47b8      	blx	r7
	listSET_LIST_ITEM_OWNER( &( pxTCB->xGenericListItem ), pxTCB );
    1a28:	6124      	str	r4, [r4, #16]
	listSET_LIST_ITEM_VALUE( &( pxTCB->xEventListItem ), configMAX_PRIORITIES - ( portTickType ) uxPriority );
    1a2a:	2305      	movs	r3, #5
    1a2c:	464a      	mov	r2, r9
    1a2e:	1a9b      	subs	r3, r3, r2
    1a30:	61a3      	str	r3, [r4, #24]
	listSET_LIST_ITEM_OWNER( &( pxTCB->xEventListItem ), pxTCB );
    1a32:	6264      	str	r4, [r4, #36]	; 0x24
			pxNewTCB->pxTopOfStack = pxPortInitialiseStack( pxTopOfStack, pxTaskCode, pvParameters );
    1a34:	9a01      	ldr	r2, [sp, #4]
    1a36:	0029      	movs	r1, r5
    1a38:	4650      	mov	r0, sl
    1a3a:	4b1d      	ldr	r3, [pc, #116]	; (1ab0 <xTaskGenericCreate+0x1f8>)
    1a3c:	4798      	blx	r3
    1a3e:	6020      	str	r0, [r4, #0]
		portALIGNMENT_ASSERT_pxCurrentTCB( ( ( ( unsigned long ) pxNewTCB->pxTopOfStack & ( unsigned long ) portBYTE_ALIGNMENT_MASK ) == 0UL ) );
    1a40:	4230      	tst	r0, r6
    1a42:	d100      	bne.n	1a46 <xTaskGenericCreate+0x18e>
    1a44:	e761      	b.n	190a <xTaskGenericCreate+0x52>
    1a46:	b672      	cpsid	i
    1a48:	e7fe      	b.n	1a48 <xTaskGenericCreate+0x190>
    1a4a:	46c0      	nop			; (mov r8, r8)
    1a4c:	000010a5 	.word	0x000010a5
    1a50:	00001175 	.word	0x00001175
    1a54:	00000fb9 	.word	0x00000fb9
    1a58:	20000928 	.word	0x20000928
    1a5c:	200008b8 	.word	0x200008b8
    1a60:	200008c4 	.word	0x200008c4
    1a64:	000011bd 	.word	0x000011bd
    1a68:	20000944 	.word	0x20000944
    1a6c:	20000958 	.word	0x20000958
    1a70:	20000974 	.word	0x20000974
    1a74:	200009a0 	.word	0x200009a0
    1a78:	2000098c 	.word	0x2000098c
    1a7c:	200008bc 	.word	0x200008bc
    1a80:	200008c0 	.word	0x200008c0
    1a84:	20000940 	.word	0x20000940
    1a88:	20000934 	.word	0x20000934
    1a8c:	2000093c 	.word	0x2000093c
    1a90:	000011d9 	.word	0x000011d9
    1a94:	00000fd1 	.word	0x00000fd1
    1a98:	20000988 	.word	0x20000988
    1a9c:	00000fa1 	.word	0x00000fa1
    1aa0:	0000337f 	.word	0x0000337f
    1aa4:	3fffffff 	.word	0x3fffffff
    1aa8:	0000338f 	.word	0x0000338f
    1aac:	000011d3 	.word	0x000011d3
    1ab0:	00000f61 	.word	0x00000f61

00001ab4 <vTaskStartScheduler>:
{
    1ab4:	b510      	push	{r4, lr}
    1ab6:	b084      	sub	sp, #16
		xReturn = xTaskCreate( prvIdleTask, ( signed char * ) "IDLE", tskIDLE_STACK_SIZE, ( void * ) NULL, ( tskIDLE_PRIORITY | portPRIVILEGE_BIT ), NULL );
    1ab8:	2300      	movs	r3, #0
    1aba:	9303      	str	r3, [sp, #12]
    1abc:	9302      	str	r3, [sp, #8]
    1abe:	9301      	str	r3, [sp, #4]
    1ac0:	9300      	str	r3, [sp, #0]
    1ac2:	2264      	movs	r2, #100	; 0x64
    1ac4:	490c      	ldr	r1, [pc, #48]	; (1af8 <vTaskStartScheduler+0x44>)
    1ac6:	480d      	ldr	r0, [pc, #52]	; (1afc <vTaskStartScheduler+0x48>)
    1ac8:	4c0d      	ldr	r4, [pc, #52]	; (1b00 <vTaskStartScheduler+0x4c>)
    1aca:	47a0      	blx	r4
		if( xReturn == pdPASS )
    1acc:	2801      	cmp	r0, #1
    1ace:	d003      	beq.n	1ad8 <vTaskStartScheduler+0x24>
		configASSERT( xReturn );
    1ad0:	2800      	cmp	r0, #0
    1ad2:	d10e      	bne.n	1af2 <vTaskStartScheduler+0x3e>
    1ad4:	b672      	cpsid	i
    1ad6:	e7fe      	b.n	1ad6 <vTaskStartScheduler+0x22>
			xReturn = xTimerCreateTimerTask();
    1ad8:	4b0a      	ldr	r3, [pc, #40]	; (1b04 <vTaskStartScheduler+0x50>)
    1ada:	4798      	blx	r3
	if( xReturn == pdPASS )
    1adc:	2801      	cmp	r0, #1
    1ade:	d1f7      	bne.n	1ad0 <vTaskStartScheduler+0x1c>
		portDISABLE_INTERRUPTS();
    1ae0:	b672      	cpsid	i
		xSchedulerRunning = pdTRUE;
    1ae2:	2201      	movs	r2, #1
    1ae4:	4b08      	ldr	r3, [pc, #32]	; (1b08 <vTaskStartScheduler+0x54>)
    1ae6:	601a      	str	r2, [r3, #0]
		xTickCount = ( portTickType ) 0U;
    1ae8:	2200      	movs	r2, #0
    1aea:	4b08      	ldr	r3, [pc, #32]	; (1b0c <vTaskStartScheduler+0x58>)
    1aec:	601a      	str	r2, [r3, #0]
		if( xPortStartScheduler() != pdFALSE )
    1aee:	4b08      	ldr	r3, [pc, #32]	; (1b10 <vTaskStartScheduler+0x5c>)
    1af0:	4798      	blx	r3
}
    1af2:	b004      	add	sp, #16
    1af4:	bd10      	pop	{r4, pc}
    1af6:	46c0      	nop			; (mov r8, r8)
    1af8:	0000341c 	.word	0x0000341c
    1afc:	00001dd9 	.word	0x00001dd9
    1b00:	000018b9 	.word	0x000018b9
    1b04:	00002269 	.word	0x00002269
    1b08:	20000988 	.word	0x20000988
    1b0c:	200009b4 	.word	0x200009b4
    1b10:	00001069 	.word	0x00001069

00001b14 <vTaskSuspendAll>:
	++uxSchedulerSuspended;
    1b14:	4a02      	ldr	r2, [pc, #8]	; (1b20 <vTaskSuspendAll+0xc>)
    1b16:	6813      	ldr	r3, [r2, #0]
    1b18:	3301      	adds	r3, #1
    1b1a:	6013      	str	r3, [r2, #0]
}
    1b1c:	4770      	bx	lr
    1b1e:	46c0      	nop			; (mov r8, r8)
    1b20:	20000930 	.word	0x20000930

00001b24 <xTaskGetTickCount>:
{
    1b24:	b510      	push	{r4, lr}
	taskENTER_CRITICAL();
    1b26:	4b04      	ldr	r3, [pc, #16]	; (1b38 <xTaskGetTickCount+0x14>)
    1b28:	4798      	blx	r3
		xTicks = xTickCount;
    1b2a:	4b04      	ldr	r3, [pc, #16]	; (1b3c <xTaskGetTickCount+0x18>)
    1b2c:	681c      	ldr	r4, [r3, #0]
	taskEXIT_CRITICAL();
    1b2e:	4b04      	ldr	r3, [pc, #16]	; (1b40 <xTaskGetTickCount+0x1c>)
    1b30:	4798      	blx	r3
}
    1b32:	0020      	movs	r0, r4
    1b34:	bd10      	pop	{r4, pc}
    1b36:	46c0      	nop			; (mov r8, r8)
    1b38:	00000fb9 	.word	0x00000fb9
    1b3c:	200009b4 	.word	0x200009b4
    1b40:	00000fd1 	.word	0x00000fd1

00001b44 <vTaskIncrementTick>:
{
    1b44:	b5f8      	push	{r3, r4, r5, r6, r7, lr}
	if( uxSchedulerSuspended == ( unsigned portBASE_TYPE ) pdFALSE )
    1b46:	4b3b      	ldr	r3, [pc, #236]	; (1c34 <vTaskIncrementTick+0xf0>)
    1b48:	681b      	ldr	r3, [r3, #0]
    1b4a:	2b00      	cmp	r3, #0
    1b4c:	d16d      	bne.n	1c2a <vTaskIncrementTick+0xe6>
		++xTickCount;
    1b4e:	4b3a      	ldr	r3, [pc, #232]	; (1c38 <vTaskIncrementTick+0xf4>)
    1b50:	681a      	ldr	r2, [r3, #0]
    1b52:	3201      	adds	r2, #1
    1b54:	601a      	str	r2, [r3, #0]
		if( xTickCount == ( portTickType ) 0U )
    1b56:	681b      	ldr	r3, [r3, #0]
    1b58:	2b00      	cmp	r3, #0
    1b5a:	d118      	bne.n	1b8e <vTaskIncrementTick+0x4a>
			configASSERT( ( listLIST_IS_EMPTY( pxDelayedTaskList ) ) );
    1b5c:	4b37      	ldr	r3, [pc, #220]	; (1c3c <vTaskIncrementTick+0xf8>)
    1b5e:	681b      	ldr	r3, [r3, #0]
    1b60:	681b      	ldr	r3, [r3, #0]
    1b62:	2b00      	cmp	r3, #0
    1b64:	d001      	beq.n	1b6a <vTaskIncrementTick+0x26>
    1b66:	b672      	cpsid	i
    1b68:	e7fe      	b.n	1b68 <vTaskIncrementTick+0x24>
			pxTemp = pxDelayedTaskList;
    1b6a:	4b34      	ldr	r3, [pc, #208]	; (1c3c <vTaskIncrementTick+0xf8>)
    1b6c:	6819      	ldr	r1, [r3, #0]
			pxDelayedTaskList = pxOverflowDelayedTaskList;
    1b6e:	4a34      	ldr	r2, [pc, #208]	; (1c40 <vTaskIncrementTick+0xfc>)
    1b70:	6810      	ldr	r0, [r2, #0]
    1b72:	6018      	str	r0, [r3, #0]
			pxOverflowDelayedTaskList = pxTemp;
    1b74:	6011      	str	r1, [r2, #0]
			xNumOfOverflows++;
    1b76:	4933      	ldr	r1, [pc, #204]	; (1c44 <vTaskIncrementTick+0x100>)
    1b78:	680a      	ldr	r2, [r1, #0]
    1b7a:	3201      	adds	r2, #1
    1b7c:	600a      	str	r2, [r1, #0]
			if( listLIST_IS_EMPTY( pxDelayedTaskList ) != pdFALSE )
    1b7e:	681b      	ldr	r3, [r3, #0]
    1b80:	681b      	ldr	r3, [r3, #0]
    1b82:	2b00      	cmp	r3, #0
    1b84:	d11a      	bne.n	1bbc <vTaskIncrementTick+0x78>
				xNextTaskUnblockTime = portMAX_DELAY;
    1b86:	2201      	movs	r2, #1
    1b88:	4252      	negs	r2, r2
    1b8a:	4b2f      	ldr	r3, [pc, #188]	; (1c48 <vTaskIncrementTick+0x104>)
    1b8c:	601a      	str	r2, [r3, #0]
		prvCheckDelayedTasks();
    1b8e:	4b2a      	ldr	r3, [pc, #168]	; (1c38 <vTaskIncrementTick+0xf4>)
    1b90:	681a      	ldr	r2, [r3, #0]
    1b92:	4b2d      	ldr	r3, [pc, #180]	; (1c48 <vTaskIncrementTick+0x104>)
    1b94:	681b      	ldr	r3, [r3, #0]
    1b96:	429a      	cmp	r2, r3
    1b98:	d34b      	bcc.n	1c32 <vTaskIncrementTick+0xee>
    1b9a:	4b28      	ldr	r3, [pc, #160]	; (1c3c <vTaskIncrementTick+0xf8>)
    1b9c:	681b      	ldr	r3, [r3, #0]
    1b9e:	681b      	ldr	r3, [r3, #0]
    1ba0:	2b00      	cmp	r3, #0
    1ba2:	d013      	beq.n	1bcc <vTaskIncrementTick+0x88>
    1ba4:	4b25      	ldr	r3, [pc, #148]	; (1c3c <vTaskIncrementTick+0xf8>)
    1ba6:	681b      	ldr	r3, [r3, #0]
    1ba8:	68db      	ldr	r3, [r3, #12]
    1baa:	68dc      	ldr	r4, [r3, #12]
    1bac:	6863      	ldr	r3, [r4, #4]
    1bae:	4a22      	ldr	r2, [pc, #136]	; (1c38 <vTaskIncrementTick+0xf4>)
    1bb0:	6812      	ldr	r2, [r2, #0]
    1bb2:	4293      	cmp	r3, r2
    1bb4:	d80f      	bhi.n	1bd6 <vTaskIncrementTick+0x92>
    1bb6:	4f25      	ldr	r7, [pc, #148]	; (1c4c <vTaskIncrementTick+0x108>)
    1bb8:	4e25      	ldr	r6, [pc, #148]	; (1c50 <vTaskIncrementTick+0x10c>)
    1bba:	e025      	b.n	1c08 <vTaskIncrementTick+0xc4>
				pxTCB = ( tskTCB * ) listGET_OWNER_OF_HEAD_ENTRY( pxDelayedTaskList );
    1bbc:	4b1f      	ldr	r3, [pc, #124]	; (1c3c <vTaskIncrementTick+0xf8>)
    1bbe:	681b      	ldr	r3, [r3, #0]
    1bc0:	68db      	ldr	r3, [r3, #12]
    1bc2:	68db      	ldr	r3, [r3, #12]
				xNextTaskUnblockTime = listGET_LIST_ITEM_VALUE( &( pxTCB->xGenericListItem ) );
    1bc4:	685a      	ldr	r2, [r3, #4]
    1bc6:	4b20      	ldr	r3, [pc, #128]	; (1c48 <vTaskIncrementTick+0x104>)
    1bc8:	601a      	str	r2, [r3, #0]
    1bca:	e7e0      	b.n	1b8e <vTaskIncrementTick+0x4a>
		prvCheckDelayedTasks();
    1bcc:	2201      	movs	r2, #1
    1bce:	4252      	negs	r2, r2
    1bd0:	4b1d      	ldr	r3, [pc, #116]	; (1c48 <vTaskIncrementTick+0x104>)
    1bd2:	601a      	str	r2, [r3, #0]
    1bd4:	e02d      	b.n	1c32 <vTaskIncrementTick+0xee>
    1bd6:	4a1c      	ldr	r2, [pc, #112]	; (1c48 <vTaskIncrementTick+0x104>)
    1bd8:	6013      	str	r3, [r2, #0]
    1bda:	e02a      	b.n	1c32 <vTaskIncrementTick+0xee>
    1bdc:	0098      	lsls	r0, r3, #2
    1bde:	18c0      	adds	r0, r0, r3
    1be0:	0080      	lsls	r0, r0, #2
    1be2:	4b1c      	ldr	r3, [pc, #112]	; (1c54 <vTaskIncrementTick+0x110>)
    1be4:	1818      	adds	r0, r3, r0
    1be6:	0029      	movs	r1, r5
    1be8:	4b1b      	ldr	r3, [pc, #108]	; (1c58 <vTaskIncrementTick+0x114>)
    1bea:	4798      	blx	r3
    1bec:	4b13      	ldr	r3, [pc, #76]	; (1c3c <vTaskIncrementTick+0xf8>)
    1bee:	681b      	ldr	r3, [r3, #0]
    1bf0:	681b      	ldr	r3, [r3, #0]
    1bf2:	2b00      	cmp	r3, #0
    1bf4:	d0ea      	beq.n	1bcc <vTaskIncrementTick+0x88>
    1bf6:	4b11      	ldr	r3, [pc, #68]	; (1c3c <vTaskIncrementTick+0xf8>)
    1bf8:	681b      	ldr	r3, [r3, #0]
    1bfa:	68db      	ldr	r3, [r3, #12]
    1bfc:	68dc      	ldr	r4, [r3, #12]
    1bfe:	6863      	ldr	r3, [r4, #4]
    1c00:	4a0d      	ldr	r2, [pc, #52]	; (1c38 <vTaskIncrementTick+0xf4>)
    1c02:	6812      	ldr	r2, [r2, #0]
    1c04:	4293      	cmp	r3, r2
    1c06:	d8e6      	bhi.n	1bd6 <vTaskIncrementTick+0x92>
    1c08:	1d25      	adds	r5, r4, #4
    1c0a:	0028      	movs	r0, r5
    1c0c:	47b8      	blx	r7
    1c0e:	6aa3      	ldr	r3, [r4, #40]	; 0x28
    1c10:	2b00      	cmp	r3, #0
    1c12:	d003      	beq.n	1c1c <vTaskIncrementTick+0xd8>
    1c14:	0020      	movs	r0, r4
    1c16:	3018      	adds	r0, #24
    1c18:	4b0c      	ldr	r3, [pc, #48]	; (1c4c <vTaskIncrementTick+0x108>)
    1c1a:	4798      	blx	r3
    1c1c:	6ae3      	ldr	r3, [r4, #44]	; 0x2c
    1c1e:	6832      	ldr	r2, [r6, #0]
    1c20:	4293      	cmp	r3, r2
    1c22:	d9db      	bls.n	1bdc <vTaskIncrementTick+0x98>
    1c24:	4a0a      	ldr	r2, [pc, #40]	; (1c50 <vTaskIncrementTick+0x10c>)
    1c26:	6013      	str	r3, [r2, #0]
    1c28:	e7d8      	b.n	1bdc <vTaskIncrementTick+0x98>
		++uxMissedTicks;
    1c2a:	4a0c      	ldr	r2, [pc, #48]	; (1c5c <vTaskIncrementTick+0x118>)
    1c2c:	6813      	ldr	r3, [r2, #0]
    1c2e:	3301      	adds	r3, #1
    1c30:	6013      	str	r3, [r2, #0]
}
    1c32:	bdf8      	pop	{r3, r4, r5, r6, r7, pc}
    1c34:	20000930 	.word	0x20000930
    1c38:	200009b4 	.word	0x200009b4
    1c3c:	200008bc 	.word	0x200008bc
    1c40:	200008c0 	.word	0x200008c0
    1c44:	20000970 	.word	0x20000970
    1c48:	20000024 	.word	0x20000024
    1c4c:	0000122b 	.word	0x0000122b
    1c50:	2000093c 	.word	0x2000093c
    1c54:	200008c4 	.word	0x200008c4
    1c58:	000011d9 	.word	0x000011d9
    1c5c:	2000092c 	.word	0x2000092c

00001c60 <xTaskResumeAll>:
{
    1c60:	b5f8      	push	{r3, r4, r5, r6, r7, lr}
	configASSERT( uxSchedulerSuspended );
    1c62:	4b2e      	ldr	r3, [pc, #184]	; (1d1c <xTaskResumeAll+0xbc>)
    1c64:	681b      	ldr	r3, [r3, #0]
    1c66:	2b00      	cmp	r3, #0
    1c68:	d101      	bne.n	1c6e <xTaskResumeAll+0xe>
    1c6a:	b672      	cpsid	i
    1c6c:	e7fe      	b.n	1c6c <xTaskResumeAll+0xc>
	taskENTER_CRITICAL();
    1c6e:	4b2c      	ldr	r3, [pc, #176]	; (1d20 <xTaskResumeAll+0xc0>)
    1c70:	4798      	blx	r3
		--uxSchedulerSuspended;
    1c72:	4b2a      	ldr	r3, [pc, #168]	; (1d1c <xTaskResumeAll+0xbc>)
    1c74:	681a      	ldr	r2, [r3, #0]
    1c76:	3a01      	subs	r2, #1
    1c78:	601a      	str	r2, [r3, #0]
		if( uxSchedulerSuspended == ( unsigned portBASE_TYPE ) pdFALSE )
    1c7a:	681b      	ldr	r3, [r3, #0]
signed portBASE_TYPE xAlreadyYielded = pdFALSE;
    1c7c:	2400      	movs	r4, #0
		if( uxSchedulerSuspended == ( unsigned portBASE_TYPE ) pdFALSE )
    1c7e:	2b00      	cmp	r3, #0
    1c80:	d103      	bne.n	1c8a <xTaskResumeAll+0x2a>
			if( uxCurrentNumberOfTasks > ( unsigned portBASE_TYPE ) 0U )
    1c82:	4b28      	ldr	r3, [pc, #160]	; (1d24 <xTaskResumeAll+0xc4>)
    1c84:	681b      	ldr	r3, [r3, #0]
    1c86:	2b00      	cmp	r3, #0
    1c88:	d103      	bne.n	1c92 <xTaskResumeAll+0x32>
	taskEXIT_CRITICAL();
    1c8a:	4b27      	ldr	r3, [pc, #156]	; (1d28 <xTaskResumeAll+0xc8>)
    1c8c:	4798      	blx	r3
}
    1c8e:	0020      	movs	r0, r4
    1c90:	bdf8      	pop	{r3, r4, r5, r6, r7, pc}
				while( listLIST_IS_EMPTY( ( xList * ) &xPendingReadyList ) == pdFALSE )
    1c92:	4d26      	ldr	r5, [pc, #152]	; (1d2c <xTaskResumeAll+0xcc>)
    1c94:	682b      	ldr	r3, [r5, #0]
    1c96:	2b00      	cmp	r3, #0
    1c98:	d021      	beq.n	1cde <xTaskResumeAll+0x7e>
					pxTCB = ( tskTCB * ) listGET_OWNER_OF_HEAD_ENTRY(  ( ( xList * ) &xPendingReadyList ) );
    1c9a:	4b24      	ldr	r3, [pc, #144]	; (1d2c <xTaskResumeAll+0xcc>)
    1c9c:	68db      	ldr	r3, [r3, #12]
    1c9e:	68df      	ldr	r7, [r3, #12]
					uxListRemove( &( pxTCB->xEventListItem ) );
    1ca0:	0038      	movs	r0, r7
    1ca2:	3018      	adds	r0, #24
    1ca4:	4b22      	ldr	r3, [pc, #136]	; (1d30 <xTaskResumeAll+0xd0>)
    1ca6:	4798      	blx	r3
					uxListRemove( &( pxTCB->xGenericListItem ) );
    1ca8:	1d3e      	adds	r6, r7, #4
    1caa:	0030      	movs	r0, r6
    1cac:	4b20      	ldr	r3, [pc, #128]	; (1d30 <xTaskResumeAll+0xd0>)
    1cae:	4798      	blx	r3
					prvAddTaskToReadyQueue( pxTCB );
    1cb0:	6afb      	ldr	r3, [r7, #44]	; 0x2c
    1cb2:	4a20      	ldr	r2, [pc, #128]	; (1d34 <xTaskResumeAll+0xd4>)
    1cb4:	6812      	ldr	r2, [r2, #0]
    1cb6:	4293      	cmp	r3, r2
    1cb8:	d901      	bls.n	1cbe <xTaskResumeAll+0x5e>
    1cba:	4a1e      	ldr	r2, [pc, #120]	; (1d34 <xTaskResumeAll+0xd4>)
    1cbc:	6013      	str	r3, [r2, #0]
    1cbe:	0098      	lsls	r0, r3, #2
    1cc0:	18c0      	adds	r0, r0, r3
    1cc2:	0080      	lsls	r0, r0, #2
    1cc4:	4b1c      	ldr	r3, [pc, #112]	; (1d38 <xTaskResumeAll+0xd8>)
    1cc6:	1818      	adds	r0, r3, r0
    1cc8:	0031      	movs	r1, r6
    1cca:	4b1c      	ldr	r3, [pc, #112]	; (1d3c <xTaskResumeAll+0xdc>)
    1ccc:	4798      	blx	r3
					if( pxTCB->uxPriority >= pxCurrentTCB->uxPriority )
    1cce:	4b1c      	ldr	r3, [pc, #112]	; (1d40 <xTaskResumeAll+0xe0>)
    1cd0:	681b      	ldr	r3, [r3, #0]
    1cd2:	6afa      	ldr	r2, [r7, #44]	; 0x2c
    1cd4:	6adb      	ldr	r3, [r3, #44]	; 0x2c
    1cd6:	429a      	cmp	r2, r3
    1cd8:	d3dc      	bcc.n	1c94 <xTaskResumeAll+0x34>
						xYieldRequired = pdTRUE;
    1cda:	2401      	movs	r4, #1
    1cdc:	e7da      	b.n	1c94 <xTaskResumeAll+0x34>
				if( uxMissedTicks > ( unsigned portBASE_TYPE ) 0U )
